:020000020000FC
:100000000C94F50B18951895189518951895189542
:100010001895189518951895189518951895189578
:100020000C941A0918951895189518950C94890A26
:100030000C94E00A0C94110B0C94B20018951895CE
:100040001895189518951895189518951895189548
:1000500018951895000001CC01D8001401F0003C5F
:10006000002801E401A0006C007801B40050019C5C
:10007000018800440E94440C080160E040E0222412
:10008000332400E010E020E030E060E045C0842F41
:1000900090E0880F991FF001E80FF91F2080318050
:1000A000842F90E0880F991FF001E80FF91F8281DB
:1000B00093812816390620F5842F90E0880F991F28
:1000C000F001E80FF91F20803180842F90E0880F25
:1000D000991FF001E80FF91FA281B381842F90E0EE
:1000E000880F991FF001E80FF91FA083B183842FB7
:1000F00090E0880F991FF001E80FF91F22823382E8
:10010000439550E0E7E1F0E070E0E61BF70B4E1797
:100110005F070CF4BCCF6395673110F440E0F1CF7A
:1001200064E010C0462F50E0440F551FF001E40F6B
:10013000F51F80819181A0E0B0E0080F191F2A1FF0
:100140003B1F6395643170F344E00E94340CE4E09B
:100150000C94510C10E818B90F70006407B908EC42
:1001600006B908959A938A932A931A930A932FB7FC
:1001700004B115B10F7F13700093A0001093A1007C
:100180008091A0009091A1000196969587959695F3
:1001900087958093A0009093A10001E00093A200B6
:1001A0002FBF0991199129918991999118950E94D0
:1001B000450CC8010091A2000130D1F500E0009388
:1001C000A2000091D400C6DF379A2091A0003091A0
:1001D000A1000091D30010E0000F111FF801ED55B0
:1001E000FF4F208331830091D30003950093D30008
:1001F0000091D3000831E0F000E00093D300A0911B
:10020000D4000A2F03950093D40003EA10E032DFF4
:100210002A2F30E0220F331F820F931FFC0103832C
:1002200014830091D400043018F000E00093D4004F
:10023000E3E00C94520CAD0127E131E0F801A28516
:10024000B3850C91F9011389011711F001E001C088
:1002500000E0DA0108950E943E0CD8018D01EBDF29
:10026000002319F001E010E03EC11A96ED91FC91D7
:100270001B970181003189F01A96ED91FC911B9733
:100280000181063051F01A96ED91FC911B97018186
:10029000033019F002E010E026C1FD01868197814C
:1002A00002979C01FD01028513850E94710398014C
:1002B000FD0102851385FD0146815781040F151F3D
:1002C00001501040F8014081542F40E0FD010285AB
:1002D0001385FD0166817781060F171F02501040BC
:1002E000F801008110E0400F511F2417350719F065
:1002F00003E010E0F8C01A96ED91FC911B97018184
:10030000003139F01A96ED91FC911B97018106306E
:1003100041F5FD0106811781083020E01207C1F187
:10032000FD0126813781FD0102851385F801868153
:1003300090E009962817390789F41A96ED91FC91F7
:100340001B97268130E0FD0102851385F8010581A8
:1003500010E0000F111F20173107D1F009E010E065
:10036000C2C0FD0106811781083020E0120781F02C
:10037000FD0126813781FD0102851385F801828107
:1003800090E005962817390719F008E010E0ABC097
:10039000FD0106811781083020E01207B1F51A9699
:1003A000ED91FC911B970181003139F01A96ED9186
:1003B000FC911B970181063019F400E010E093C016
:1003C0001A96ED91FC911B970281102F00E0FD0120
:1003D00022853385F901238130E0020F131FFD01CF
:1003E00022853385F901258130E0ED91FC9111974B
:1003F0000995202F212B09F076C08D0177D0FD01C2
:100400000087118700E010E06EC01A96ED91FC9114
:100410001B970181003141F01A96ED91FC911B97D9
:100420000181063009F05DC01A96ED91FC911B9791
:100430008281982F80E0FD0102851385F8010381F8
:1004400010E0800F911FFD0102851385F8014480A3
:10045000542C4424FD0102851385F801058110E028
:10046000400E511E92018C01ED91FC91119709955E
:10047000202F212BC1F507E0602E7724882425C08A
:10048000FD0104851585060D171DF8012081322F09
:1004900020E001E0600E00E0701EFD01048515857E
:1004A000060D171DF801008110E0200F311F01E03B
:1004B000600E00E0701E99248C01080D191DFD01CD
:1004C00044815581FA0109958394992484149504F3
:1004D000B8F28D010BD0FD010087118700E010E01C
:1004E00002C000E010E0EAE00C944B0C0E943C0CCF
:1004F000D8011A96ED91FC911B970181003141F0D2
:100500001A96ED91FC911B970181063009F057C0B6
:100510001A96ED91FC911B972081FD0104851585AC
:10052000F80120831A96ED91FC911B972181FD0122
:1005300004851585F80121831A96ED91FC911B978E
:100540002281FD0104851585F80122831A96ED911B
:10055000FC911B972381FD0104851585F8012383F8
:100560001A96ED91FC911B972481FD010485158558
:10057000F80124831A96ED91FC911B972581FD01CA
:1005800004851585F801258326E030E0FD0104850A
:1005900015850E947103C80140E051E08C010E9462
:1005A000200CFD0104851585F8014683892FFD0186
:1005B000A485B58517968C9308E010E08FC01A9635
:1005C000ED91FC911B970181033009F085C01A96CB
:1005D000ED91FC911B976280762C6624FD010285CB
:1005E0001385F801038110E0600E711EFD01028584
:1005F0001385F801A580BB24FD0102851385F80150
:100600002081FD0104851585F8012083FD01028507
:100610001385F8012181FD0104851585F8012183E9
:10062000FD0102851385F801158102E0109FFD018F
:1006300004851585F801028203E0402E882425C038
:1006400099248301080D191DFD0122813381F901CF
:100650000995C8018C01012F202FFD010485158506
:100660005524040D151DF8012083439440E051E00A
:100670008C010E94200CFD01048515855524040D74
:10068000151DF80140834394839499248A149B0494
:10069000B8F2242D30E0FD01048515850E94710318
:1006A000C80140E051E08C010E94200CFD0104854E
:1006B00015855524040D151DF80140834394892F99
:1006C000FD01048515855524040D151DF801808351
:1006D0004394042D10E002C000E11EEEECE00C9407
:1006E000490C7B2F0A2ED8010FEF1FEF29C0602F76
:1006F0004C91642744E00E941A0C462F50E04F7042
:100700005070440F551FFA01EC5AFF4F4591549118
:1007100004271527602F4C9142954F70642744E0C1
:100720000E941A0C462F50E04F705070440F551F16
:10073000FA01EC5AFF4F4591549104271527119661
:10074000A9019A0121503040452B89F6A02DB72FE1
:100750000895E199FECF1FBB0EBBE09A0DB308953B
:10076000E199FECF1FBB0EBB2DBB04E00CBBE19A91
:1007700008950E94400CC8013A01D901442455242F
:1007800016C08C01040D151DE4DFFD01E40DF51DFF
:100790001081011741F0FD01E40DF51D20818C0150
:1007A000040D151DDDDF01E0400E00E0501E461473
:1007B000570438F3E8E00C944D0C9A938A93B801EF
:1007C0000A01190180E090E00AC0AB01480F591FEF
:1007D0000E94110CF101E80FF91F008301968015AA
:1007E000910598F38991999108950E94420CC9014D
:1007F000D801442455249C010E9471039695879545
:10080000880F991FA80FB91FFD012081318129018F
:100810004016510611F401E001C000E0E6E00C943E
:100820004F0C0E94440CC901D8019C010E94710325
:1008300096958795880F991FA80FB91F0D931C9344
:10084000E4E00C94510C20E030E0F8012083318387
:10085000F801008101600083089520E030E0F80194
:1008600020833183F801208122602083F8010081F8
:100870000160008308950E94420CD801C9012A0139
:10088000F201008100FFCFC0F201008101FD36C0FE
:10089000F20100810E7F0083AC014E5F5F4F9D012E
:1008A00000E810E08ADF9C018D019FDF002301F545
:1008B000F201008100680083AC014E5F5F4F9D0133
:1008C00000E011E07ADF9C018D018FDF002351F4FD
:1008D00000E010E0F20100831183F2010081006862
:1008E0000083A1C000E010E0F201008311839BC0EF
:1008F00000E010E0F2010083118395C0F201008155
:100900000877002309F5F201008111819801277809
:100910003F7F06950695069510E00F5F1F4F43E059
:100920000E94140C08771070202B312BF2012083C9
:100930003183F201008111810F7F1070006014611A
:10094000F201008311836FC0F20100810877083043
:1009500091F5F2010081118100701F7F012B09F0D8
:1009600062C09C018D015DDF0296AC019D0100E833
:1009700010E0FFDEF201008111810F7F1070006036
:100980001461F20100831183F20100811181980149
:1009900027783F7F06950695069510E00F5F1F4F5D
:1009A00043E00E94140C08771070202B312BF201C9
:1009B0002083318338C0F20100810877003139F596
:1009C000F2010081118100701F7F012B61F59C01F4
:1009D0008D0127DF0296AC019D0100E011E0C9DE28
:1009E000F20100811181980127783F7F06950695D5
:1009F000069510E00F5F1F4F43E00E94140C08772C
:100A00001070202B312BF201208331830CC0F201B6
:100A10000081118100701F7F012B29F400E010E09C
:100A2000F20100831183E6E00C944F0CE5EDF0E059
:100A300000810F77008305ED10E005DF45ED50E004
:100A400022E030E006E211E016DFE5EDF0E00081A3
:100A500007FF0BC0E5EDF0E000810F7700830AE0AF
:100A600010E000932601109327010091D50008772C
:100A7000002319F405ED10E0F0DE08959A938A93AF
:100A8000809128019091290122E030E006E211E0F6
:100A90000E9471038017910719F005ED10E0DDDE6B
:100AA0008991999108950091D5001091D600007018
:100AB0001F7F012B41F0E5EDF0E000811181005036
:100AC00011400083118345ED50E022E030E006E262
:100AD00011E0D1DE089560E070E020E020E011C078
:100AE00036B3422F01E010E00E94140C3023332370
:100AF00039F4422F01E010E00E94140C602B712B9E
:100B00002395283068F328E012C033B3422F4850B1
:100B100001E010E00E94140C3023332339F4422FFB
:100B200001E010E00E94140C602B712B2395203102
:100B300060F38B010895080160E010C0462F01E0CA
:100B400010E00E94140C00951095E9EDF0E0408152
:100B5000518140235123408351836395603108F0D4
:100B600054C0462F01E010E00E94140C1001202216
:100B70003122E091D700F091D800462F01E010E03B
:100B80000E94140CE023F1232E263F262328B1F0E7
:100B9000462F01E010E00E94140C00951095E9ED3D
:100BA000F0E040815181402351234083518300E094
:100BB00070E0FB01E552FF4F0083CFCF70E0FB01F7
:100BC000E552FF4F00810395008370E0FB01E55281
:100BD000FF4F0081043108F2462F01E010E00E942F
:100BE000140CA00140235123452B09F4A7CF462F15
:100BF00001E010E00E94140CE9EDF0E04081518129
:100C0000402B512B40835183A8CF0092D7001092E4
:100C1000D8000091D9001091DA00F9010083118306
:100C20000895F801218124FF0BC0EBEEF0E0218153
:100C300024FD06C0EBEEF0E0018100610183089520
:100C4000F801018104FD05C0EBEEF0E001810F7EAB
:100C50000183089520E0F801238BF801208125FF0E
:100C600004C0F80123892160238BF801208126FF2D
:100C700004C0F80123892260238BF801208127FF1B
:100C800004C0F80123892460238BF801208120FF10
:100C900004C0F80123892860238BF801208121FFFB
:100CA00004C0F80123892061238BF801208122FFF1
:100CB00004C0F80123892062238BF801208123FFDF
:100CC00004C0F80123892064238BF801208124FFCC
:100CD00004C0F80103890068038B0895F80122819C
:100CE00020FF02C0969A01C09698F801228121FF48
:100CF00002C0959A01C09598F801228122FF02C096
:100D0000949A01C09498F801028103FF02C0939A5B
:100D100008959398089510E004C0DC98DD9A069534
:100D20001395183028F4DD9800FBBEF7DC9AF6CF57
:100D30000895AC01F80126852F772687F8012685CE
:100D40002F7B2687F80126852F7D2687F8012685AB
:100D50002F7E2687F80126852E7F2687F801268597
:100D60002D7F2687F801218125FF04C0F801268503
:100D700020682687F801218120FF04C0F80126851C
:100D800020642687F801218124FF04C0F80126850C
:100D900020622687F801218121FF04C0F801268501
:100DA00020612687F801218123FF04C0F8012685F0
:100DB00021602687F801218122FF04C0F8012685E1
:100DC00022602687F80125852E7F2587F801258555
:100DD0002D7F2587F80125852B7F2587F80125851F
:100DE000277F2587F801228123FF04C0F80125858C
:100DF00021602587F801228122FF04C0F8012585A2
:100E000022602587F801228120FF04C0F801258592
:100E100024602587F801228121FF04C0F80125857F
:100E200028602587F80126852B7F2687F8012685EF
:100E3000277F268720913202213058F0E2E1F1E04D
:100E4000238126FB20E020F9F80120FB268522F9EA
:100E5000268720913302213058F0E2E1F1E023812E
:100E600026FB20E020F9F80120FB268523F92687C0
:100E7000F80125852F7B2587F80125852F7D25877E
:100E8000F801878190858630904020F0F801258513
:100E900020642587F801818592858630904020F076
:100EA000F801258520622587F80125852F7E258775
:100EB000F80123853485232B21F0F8012585206155
:100EC0002587F80125852F772587E2E1F1E0238149
:100ED000220F20E0221FF80120FB058507F9058776
:100EE000CA010895F801258520952093FF00F80197
:100EF00006850095009300010895DE9ADF9A00911F
:100F00000101002351F40091FF0005DFDE980091FC
:100F10000101039500930101089500910101013041
:100F200039F400910001F7DEDF9800E00093010141
:100F30000895D8DFE2DF089509E605BD00E004BDAD
:100F400000E003BD089503BD0895F80103851485ED
:100F5000FADF089500E010E00895202F212B41F4DE
:100F6000E7E1F1E0018105FB00E010E000F9089500
:100F7000013020E0120731F4E7E1F1E00181017076
:100F800010700895023020E0120741F4E7E1F1E02B
:100F9000018104FB00E010E000F90895033020E037
:100FA000120741F4E7E1F1E0018101FB00E010E00C
:100FB00000F90895043020E0120741F4E7E1F1E080
:100FC000018103FB00E010E000F90895053020E006
:100FD000120741F4E7E1F1E0018102FB00E010E0DB
:100FE00000F90895063020E0120729F400911E014F
:100FF00010911F010895073020E0120729F4009195
:1010000020011091210108950A3020E0120741F4D7
:10101000E7E1F1E0028103FB00E010E000F9089550
:101020000B3020E0120741F4E7E1F1E0028102FB1E
:1010300000E010E000F908950C3020E0120731F4D0
:10104000E7E1F1E002810170107008950D3020E0B9
:10105000120741F4E7E1F1E0028101FB00E010E05A
:1010600000F908950E3020E0120729F400912201C2
:1010700010912301089500E010E00895012B19F06C
:1010800001E010E0089500E010E008950E94440C93
:10109000D801C901AA3000E0B00751F48C01EEDF9D
:1010A000202F2170E7E1F1E020FB028103F90283A8
:1010B000AB3000E0B00751F48C01E0DF202F21704D
:1010C000E7E1F1E020FB028102F90283AC3000E0AD
:1010D000B00751F48C01D2DF202F2170E7E1F1E05D
:1010E00020FB028100F90283AD3000E0B00751F42B
:1010F0008C01C4DF202F2170E7E1F1E020FB0281A9
:1011000001F90283AE3000E0B00751F4893E03E0FC
:10111000900710F088EE93E08093220190932301D2
:10112000E4E00C94510C2AEA37E0F8012083318383
:101130002DEA37E0F8012283338326E438E0F80112
:10114000248335830895F901EA5FFE4F408150E022
:10115000F80146835783A9014C5F5F4FF80142872E
:1011600053872C5F3F4FF8012487358720E030E01C
:10117000F8012087318708950E94440CF801C901C5
:1011800000851185012B61F004E6DC01A85FBE4FEC
:101190000C9340855185248535858C010E94420B36
:1011A00000E0FC01E55FFE4F008300E08A5F9E4F98
:1011B000FC010083E4E00C94510C02E011E0B3DF89
:1011C0002BE231E002E011E0BEDF0895BA93AA936A
:1011D000ABE2B1E0FD01E55FFE4F008102FF1AC006
:1011E0009D0102E011E0AFDF02E011E00E942B015F
:1011F00000931001109311019D0102E011E0BCDF8A
:10120000FD01E55FFE4F00810B7F008300E0AA5FD8
:10121000BE4F0C93A991B991089500EE0DBD0FEB4F
:101220000CBD09B7046009BF00E00FBD0EB5016039
:101230000EBD08951A930A931FB700EE0DBD0FEB74
:101240000CBD009112010395009312011FBF09917B
:1012500019911895BA93AA93D8010C91002309F417
:101260009EC000E00C9311960D911C910F5F1F4FD3
:101270001C930E93119713960C9101600C93139786
:1012800011960D911C91129745E050E00E94200CA0
:10129000452B51F402E010E013962D913C9120274C
:1012A00031273C932E93139711960D911C91129711
:1012B0004FE050E00E94200C452B51F404E010E078
:1012C00013962D913C91202731273C932E93139711
:1012D00011960D911C91129742E350E00E94200C50
:1012E000452BA1F408E010E013962D913C912027A6
:1012F00031273C932E93139700E810E013962D911D
:101300003C91202731273C932E93139711960D91F2
:101310001C9112974AEF50E00E94200C452B51F48B
:1013200000E410E013962D913C91202731273C9347
:101330002E93139711960D911C91129744EF51E043
:101340000E94200C452B51F400E110E013962D91E2
:101350003C91202731273C932E93139711960D91A2
:101360001C91129744EC59E00E94200C452B51F43B
:1013700000E210E013962D913C91202731273C93F9
:101380002E93139711960D911C911297013523EC12
:10139000120728F000E010E011960D931C93A9911C
:1013A000B991089500E007BB0FEF08BB00E004BB54
:1013B0000FEF05BB8B9A93988C9A94988D9A959879
:1013C0008E9A9698D49ADC98D59ADD98D69ADE981B
:1013D000D79ADF98D298DA98D398DB988F9A979A11
:1013E0008A9A9298089578940895DCDF0E940D09F6
:1013F0000E94700A0E947E0A0E94DD0800E00E949E
:10140000AA000E949C070E941605EDDF02E111E090
:101410000E942A090E94E608E2E1F1E0038100FF50
:101420001AC00E946B0527E131E00E949B0507E18D
:1014300011E00E94110607E111E00E942A060BE26A
:1014400011E00E94B70B07E111E00E94990707E144
:1014500011E00E949906E2E1F1E0038101FF06C07C
:1014600007E111E00E946E060E945305E2E1F1E0FF
:10147000038102FF08C007E111E00E94D70007E1E5
:1014800011E00E94A507E2E1F1E0038104FF02C040
:101490000E943E05E2E1F1E003810E7F0383E2E179
:1014A000F1E003810D7F0383E2E1F1E003810B7F33
:1014B0000383E2E1F1E00381077F0383E2E1F1E0EE
:1014C00003810F7E0383A2CF929A08959298089584
:1014D00020E030E00217130711F0F8010995089594
:1014E00004E61AE000932B0110932C0106E61AE0A3
:1014F00000932D0110932E01E9DF089501E00BB94F
:1015000008EB0AB906E800BD07E609B900E000BD2E
:101510000895BA93AA93FA93EA934A933A932A9333
:101520001A930A934FB7EBE2F1E02CB100ED17E00C
:10153000DF01A75FBE4F0D931C93DF01A55FBE4F78
:101540000C9102FD32C005E0DF01A95FBE4F0C9394
:10155000DF01AA5FBE4F0C910F3F38F5DF01AA5F94
:10156000BE4F0C9110E0DF01A00FB11F14962C9319
:10157000DF01AA5FBE4F0C9103950C93DF01AA5FB8
:10158000BE4F0C91083031F4DF01A55FBE4F0C91C6
:1015900001600C93DF01AA5FBE4F0C910F3F29F44D
:1015A000E55FFE4F0081046000834FBF09911991F0
:1015B000299139914991E991F991A991B991189598
:1015C000BA93AA93FA93EA932A931A930A932FB79A
:1015D000EBE2F1E0DF01AC5FBE4F0C91DF01AB5FEE
:1015E000BE4F1C91011790F45E98DF01AC5FBE4FB7
:1015F0000C9110E0DF01A00FB11F14960C910CB9F3
:10160000EC5FFE4F00810395008302C05598569A07
:101610002FBF099119912991E991F991A991B99156
:101620001895BA93AA938A93FA93EA933A922A92D4
:101630001A920A927A936A935A934A933A932A9304
:101640001A930A938FB7EBE2F1E0DF01A55FBE4F7B
:101650000C910F7E0C93028113813ADF56988FBF55
:1016600009911991299139914991599169917991EA
:101670000990199029903990E991F9918991A9914E
:10168000B99118950E94420CD8012901CA01FD01A7
:10169000E55FFE4F008104FD40C0FD01E55FFE4FA8
:1016A0000081006100830D911C91119711DF00E012
:1016B000FD01EB5FFE4F008300E0FD01EC5FFE4F9C
:1016C0000083FD01EB5FFE4F008110E0080F191F42
:1016D000013021E0120748F080E091E0FD01EB5F6E
:1016E000FE4F008110E0801B910BAC019201FD01C7
:1016F000EB5FFE4F608170E08D01060F171F0C5FDE
:101700001F4F0E945C0CFD01EB5FFE4F80835E98D3
:10171000559AFD0104810CB927C0FD01EB5FFE4F16
:10172000008110E0080F191F013021E0120748F076
:1017300080E091E0FD01EB5FFE4F008110E0801B37
:10174000910BAC019201FD01EB5FFE4F608170E0F7
:101750008D01060F171F0C5F1F4F0E945C0CAB5FC3
:10176000BE4F0C91080F0C93E6E00C944F0CF8015F
:10177000E95FFE4F20812130C0F0F801E95FFE4FA4
:1017800020812A952083F801E95FFE4F20812223E2
:1017900061F4F801EA5FFE4F2081213030F0F8015A
:1017A000E55FFE4F208124602083F801E85FFE4F53
:1017B0002081213030F0F801E85FFE4F20812A952A
:1017C0002083F801E75FFE4F20813181232B49F010
:1017D000075F1E4FF8010081118101501040008306
:1017E0001183089500008895FECF0FE90DBF00E03A
:1017F0000EBFC0E8D0E00E945A0C002311F00E94F6
:10180000780C0E94F5090E94F20B0C94F20BE199FE
:10181000FECF08954F5F5F4FFADF4EBB5FBBE09A8C
:101820000895FADF0DB308954A951AF0000F111FBD
:10183000FBCF08954A951AF016950795FBCF0895AA
:1018400000241124EFE0001F111F001C111C0416BE
:10185000150610F0041A150AEA95AAF7001F111FC1
:10186000A0010095109508954A952AF03695279580
:1018700017950795F9CF0895BA92AA929A928A92EB
:101880007A926A925A924A92BA93AA939A938A93B4
:101890000895BB84AA84998488847F806E805D804B
:1018A0004C80BB81AA8199818881F0E0EC0FFD1FFB
:1018B000EF01089501E008950D01D80104C0F90178
:1018C00061919F016D93BA0141505040672BB9F768
:1018D000D001089520E006D0E9F70895259102D0BF
:1018E000E9F708952D9301501040202F212B0895E2
:1018F00084E299E1FC0105911491FC013296A591D5
:10190000B491FC01349625913491422F432B19F068
:10191000F901E4DF01C0DEDF069619E18A329107A2
:0A19200048F308959701A0000000AD
:0400000300000000F9
:00000001FF
