:020000020000FC
:100000000C94400C0C94FC071895189518951895AD
:100010001895189518951895189518951895189578
:100020000C9412080C94F307189518950C94CA09AF
:100030000C94310A0C94620A0C94B200189518952D
:100040001895189518951895189518951895189548
:1000500018951895000001CC01D8001401F0003C5F
:10006000002801E401A0006C007801B40050019C5C
:10007000018800440E94B50C080160E040E02224A1
:10008000332400E010E020E030E060E045C0842F41
:1000900090E0880F991FF001E80FF91F2080318050
:1000A000842F90E0880F991FF001E80FF91F8281DB
:1000B00093812816390620F5842F90E0880F991F28
:1000C000F001E80FF91F20803180842F90E0880F25
:1000D000991FF001E80FF91FA281B381842F90E0EE
:1000E000880F991FF001E80FF91FA083B183842FB7
:1000F00090E0880F991FF001E80FF91F22823382E8
:10010000439550E0E7E1F0E070E0E61BF70B4E1797
:100110005F070CF4BCCF6395673110F440E0F1CF7A
:1001200064E010C0462F50E0440F551FF001E40F6B
:10013000F51F80819181A0E0B0E0080F191F2A1FF0
:100140003B1F6395643170F344E00E947F0CE4E050
:100150000C94C50C10E818B90F70006407B908ECCE
:1001600006B908952A931A930A932FB704B115B1CB
:100170000F7F13700093DB001093DC0001E000930D
:10018000DD002FBF09911991299118950E94B60C95
:10019000C8010091DD000130D1F500E00093DD00E1
:1001A00000910F01D7DF379A2091DB003091DC00FE
:1001B00000910E0110E0000F111FF801E252FF4FF5
:1001C0002083318300910E01039500930E0100916D
:1001D0000E010831E0F000E000930E01A0910F0144
:1001E0000A2F039500930F010EED10E043DF2A2F35
:1001F00030E0220F331F820F931FFC010283138311
:1002000000910F01063018F000E000930F01E3E0C9
:100210000C94C60CBD0123E331E0F801A285B3853F
:100220004C9150E0F901208D318D4217530741F078
:10023000F801A285B3850C91013011F001E001C0F5
:1002400000E0DB0108950E94AF0CD8018D01E2DFD0
:10025000002319F001E010E03EC11A96ED91FC91E7
:100260001B970181003189F01A96ED91FC911B9743
:100270000181063051F01A96ED91FC911B97018196
:10028000033019F002E010E026C1FD01868197815C
:1002900002979C01FD01028513850E946903980164
:1002A000FD0102851385FD0146815781040F151F4D
:1002B00001501040F8014081542F40E0FD010285BB
:1002C0001385FD0166817781060F171F02501040CC
:1002D000F801008110E0400F511F2417350719F075
:1002E00003E010E0F8C01A96ED91FC911B97018194
:1002F000003139F01A96ED91FC911B97018106307F
:1003000041F5FD0106811781083020E01207C1F197
:10031000FD0126813781FD0102851385F801868163
:1003200090E009962817390789F41A96ED91FC9107
:100330001B97268130E0FD0102851385F8010581B8
:1003400010E0000F111F20173107D1F009E010E075
:10035000C2C0FD0106811781083020E0120781F03C
:10036000FD0126813781FD0102851385F801828117
:1003700090E005962817390719F008E010E0ABC0A7
:10038000FD0106811781083020E01207B1F51A96A9
:10039000ED91FC911B970181003139F01A96ED9196
:1003A000FC911B970181063019F400E010E093C026
:1003B0001A96ED91FC911B970281102F00E0FD0130
:1003C00022853385F901238130E0020F131FFD01DF
:1003D00022853385F901258130E0ED91FC9111975B
:1003E0000995202F212B09F076C08D0177D0FD01D2
:1003F0000087118700E010E06EC01A96ED91FC9125
:100400001B970181003141F01A96ED91FC911B97E9
:100410000181063009F05DC01A96ED91FC911B97A1
:100420008281982F80E0FD0102851385F801038108
:1004300010E0800F911FFD0102851385F8014480B3
:10044000542C4424FD0102851385F801058110E038
:10045000400E511E92018C01ED91FC91119709956E
:10046000202F212BC1F507E0602E7724882425C09A
:10047000FD0104851585060D171DF8012081322F19
:1004800020E001E0600E00E0701EFD01048515858E
:10049000060D171DF801008110E0200F311F01E04B
:1004A000600E00E0701E99248C01080D191DFD01DD
:1004B00044815581FA010995839499248414950403
:1004C000B8F28D010BD0FD010087118700E010E02C
:1004D00002C000E010E0EAE00C94BF0C0E94AD0CFA
:1004E000D8011A96ED91FC911B970181003141F0E2
:1004F0001A96ED91FC911B970181063009F057C0C7
:100500001A96ED91FC911B972081FD0104851585BC
:10051000F80120831A96ED91FC911B972181FD0132
:1005200004851585F80121831A96ED91FC911B979E
:100530002281FD0104851585F80122831A96ED912B
:10054000FC911B972381FD0104851585F801238308
:100550001A96ED91FC911B972481FD010485158568
:10056000F80124831A96ED91FC911B972581FD01DA
:1005700004851585F801258326E030E0FD0104851A
:1005800015850E946903C80140E051E08C010E947A
:100590006B0CFD0104851585F8014683892FFD014B
:1005A000A485B58517968C9308E010E08FC01A9645
:1005B000ED91FC911B970181033009F085C01A96DB
:1005C000ED91FC911B976280762C6624FD010285DB
:1005D0001385F801038110E0600E711EFD01028594
:1005E0001385F801A580BB24FD0102851385F80160
:1005F0002081FD0104851585F8012083FD01028518
:100600001385F8012181FD0104851585F8012183F9
:10061000FD0102851385F801158102E0109FFD019F
:1006200004851585F801028203E0402E882425C048
:1006300099248301080D191DFD0122813381F901DF
:100640000995C8018C01012F202FFD010485158516
:100650005524040D151DF8012083439440E051E01A
:100660008C010E946B0CFD01048515855524040D39
:10067000151DF80140834394839499248A149B04A4
:10068000B8F2242D30E0FD01048515850E94690330
:10069000C80140E051E08C010E946B0CFD01048513
:1006A00015855524040D151DF80140834394892FA9
:1006B000FD01048515855524040D151DF801808361
:1006C0004394042D10E002C000E11EEEECE00C9417
:1006D000BD0C7B2F0A2ED8010FEF1FEF29C0602F12
:1006E0004C91642744E00E94650C462F50E04F7007
:1006F0005070440F551FFA01EC5AFF4F4591549129
:1007000004271527602F4C9142954F70642744E0D1
:100710000E94650C462F50E04F705070440F551FDB
:10072000FA01EC5AFF4F4591549104271527119671
:10073000A9019A0121503040452B89F6A02DB72FF1
:100740000895E199FECF1FBB0EBBE09A0DB308954B
:10075000E199FECF1FBB0EBB2DBB04E00CBBE19AA1
:1007600008950E94B10CC8013A01D90144245524CE
:1007700016C08C01040D151DE4DFFD01E40DF51D0F
:100780001081011741F0FD01E40DF51D20818C0160
:10079000040D151DDDDF01E0400E00E0501E461483
:1007A000570438F3E8E00C94C10C9A938A93B8018B
:1007B0000A01190180E090E00AC0AB01480F591FFF
:1007C0000E945C0CF101E80FF91F0083019680156F
:1007D000910598F38991999108950E94B30CC901EC
:1007E000D801442455249C010E946903969587955D
:1007F000880F991FA80FB91FFD01208131812901A0
:100800004016510611F401E001C000E0E6E00C944E
:10081000C30C0E94B50CC901D8019C010E94690358
:1008200096958795880F991FA80FB91F0D931C9354
:10083000E4E00C94C50C20E030E0F8012083318323
:10084000F801008101600083089520E030E0F801A4
:1008500020833183F801208122602083F801008108
:100860000160008308950E94B30CD801C9012A01D8
:10087000F201008100FFCFC0F201008101FD36C00E
:10088000F20100810E7F0083AC014E5F5F4F9D013E
:1008900000E810E08ADF9C018D019FDF002301F555
:1008A000F201008100680083AC014E5F5F4F9D0143
:1008B00000E011E07ADF9C018D018FDF002351F40D
:1008C00000E010E0F20100831183F2010081006872
:1008D0000083A1C000E010E0F201008311839BC0FF
:1008E00000E010E0F2010083118395C0F201008165
:1008F0000877002309F5F20100811181980127781A
:100900003F7F06950695069510E00F5F1F4F43E069
:100910000E945F0C08771070202B312BF20120838E
:100920003183F201008111810F7F1070006014612A
:10093000F201008311836FC0F20100810877083053
:1009400091F5F2010081118100701F7F012B09F0E8
:1009500062C09C018D015DDF0296AC019D0100E843
:1009600010E0FFDEF201008111810F7F1070006046
:100970001461F20100831183F20100811181980159
:1009800027783F7F06950695069510E00F5F1F4F6D
:1009900043E00E945F0C08771070202B312BF2018E
:1009A0002083318338C0F20100810877003139F5A6
:1009B000F2010081118100701F7F012B61F59C0104
:1009C0008D0127DF0296AC019D0100E011E0C9DE38
:1009D000F20100811181980127783F7F06950695E5
:1009E000069510E00F5F1F4F43E00E945F0C0877F1
:1009F0001070202B312BF201208331830CC0F201C7
:100A00000081118100701F7F012B29F400E010E0AC
:100A1000F20100831183E6E00C94C30CEEE1F1E0F7
:100A200000810F7700830EE111E005DF4EE151E018
:100A300024E030E009E411E016DFEEE1F1E00081AE
:100A400007FF11C0EEE1F1E000810F77008301E0C4
:100A500010E00093490110934A0102E010E0009376
:100A60004B0110934C0100911E010877002319F4EB
:100A70000EE111E0EADE089500911E0110911F01C0
:100A800000701F7F012B41F0EEE1F1E00081118148
:100A9000005011400083118308959A938A938091A6
:100AA0004D0190914E0124E030E009E411E00E94F4
:100AB00069038017910719F00EE111E0C6DE8991F4
:100AC0009991089500E0869B0160879B0260989B46
:100AD0000460999B08600895502F60E00CC0462F79
:100AE00001E010E00E945F0C00951091210110239D
:100AF000109321016395643008F047C0462F01E050
:100B000010E00E945F0C752F702300902001462F8B
:100B100001E010E00E945F0C00227025772391F025
:100B2000462F01E010E00E945F0C0095109121011A
:100B300010231093210100E070E0FB01EE5DFE4FF9
:100B40000083D8CF70E0FB01EE5DFE4F008103957E
:100B5000008370E0FB01EE5DFE4F0081043150F236
:100B6000462F01E010E00E945F0C152F1023112387
:100B700009F4B5CF462F01E010E00E945F0C109100
:100B80002101102B10932101B5CF5093200100912A
:100B90002101F90100830895F801208120FF0BC095
:100BA000E6E2F1E0208120FD06C0E6E2F1E000810E
:100BB000016000830895F801008100FD05C0E6E2B0
:100BC000F1E000810E7F00830895F801218122FF6A
:100BD00002C0939A01C09398F801218121FF02C0BD
:100BE000949A01C09498F801218120FF02C0959A3F
:100BF00001C09598F801218124FF02C0AE9801C080
:100C0000AE9AF801018105FF02C0AF980895AF9A2E
:100C1000089500E002BF09E603BF00E00CBF08959D
:100C2000043F21E0120730F01695079516950795B9
:100C30000B5F04C016950795169507950CBF089590
:100C4000BC014091290150912A01CA01019680936B
:100C5000290190932A01493E33E0530730F040E0E8
:100C600050E04093290150932A01053F31E01307DA
:100C700010F40253104000932701109328010091B3
:100C8000290110912A014091270150912801041750
:100C9000150748F4422F01E010E00E945F0C18B3E2
:100CA000102B18BB09C0422F01E010E00E945F0C1E
:100CB000009518B3102318BBCB01089500912B01A8
:100CC000002361F421E00091410110914201B8DF5D
:100CD00000912B01039500932B01089500912B01A6
:100CE000013061F422E00091430110914401A8DF3A
:100CF00000912B01039500932B01089524E00091AE
:100D00004701109148019CDF00E000932B010895FA
:100D100048EC50E00417150718F005E010E00895BE
:100D2000020F131F0417150718F006E010E00895CE
:100D3000293700E0300718F007E010E0089500E0E0
:100D400010E00895202F212B31F4E3E3F1E000813E
:100D5000017010700895013020E0120741F4E3E3C0
:100D6000F1E0008101FB00E010E000F9089502309D
:100D700020E0120741F4E3E3F1E0008102FB00E030
:100D800010E000F90895033020E0120741F4E3E396
:100D9000F1E0008103FB00E010E000F90895043069
:100DA00020E0120760F00A3020E0120740F4000F44
:100DB000111FF801E35DFE4F0081118108950A3093
:100DC00020E0120731F4E3E3F1E0018101701070DB
:100DD00008950B3020E0120741F4E3E3F1E00181D4
:100DE00001FB00E010E000F908950C3020E012074C
:100DF00041F4E3E3F1E0018102FB00E010E000F9DF
:100E000008950D3020E0120760F0013120E0120754
:100E100040F4000F111FF801E95DFE4F00811181C0
:100E20000895043120E0120729F400914B0110913C
:100E30004C010895053120E0120739F40091D900E2
:100E40001091DA000E941C0D089500E010E0089552
:100E5000012B19F001E010E0089500E010E0089582
:100E60000E94B50CD801C901AA3000E0B00751F4C6
:100E70008C01EEDF202F2170E3E3F1E020FB018104
:100E800000F90183AB3000E0B00751F48C01E0DFE2
:100E9000202F2170E3E3F1E020FB018101F90183C0
:100EA000AC3000E0B00751F48C01D2DF202F21706C
:100EB000E3E3F1E020FB018102F90183AD3000E0C2
:100EC000B00790F0A13100E0B00770F4883E03E075
:100ED000900710F088EE93E08D01000F111FF801CC
:100EE000E95DFE4F80839183A43100E0B00721F4D7
:100EF00080934B0190934C01E4E00C94C50C28E8DE
:100F000036E0F8012083318322EA36E0F8012283BB
:100F1000338320E337E0F801248335830895F90112
:100F2000EA5FFE4F408150E0F80146835783A901F4
:100F30004C5F5F4FF801428753872C5F3F4FF801AA
:100F40002487358720E030E0F80120873187089535
:100F5000BA93AA93F801D90100851185012B39F0C4
:100F600040855185248535858D010E94930A00E0D6
:100F7000FD01E65FFE4F008300E0AA5FBE4F0C93C9
:100F8000A991B991089500E111E0B9DF20E531E0C0
:100F900000E111E0C4DF0895BA93AA93A0E5B1E09F
:100FA000FD01E65FFE4F008102FF1AC09D0100E1D6
:100FB00011E0B5DF00E111E00E94230100932C0154
:100FC00010932D019D0100E111E0C2DFFD01E65FFC
:100FD000FE4F00810B7F008300E0AA5FBE4F0C93A1
:100FE000A991B99108951A930A931FB70EEC02BF05
:100FF0001FBF0991199118951A930A931FB700E41E
:101000000ABF1FBF09911991189500EE0DBD0FEB96
:101010000CBD09B7046009BF00E00FBD0EB501604B
:101020000EBD08951A930A931FB700EE0DBD0FEB86
:101030000CBD00912E01039500932E011FBF099155
:1010400019911895BA93AA93D8010C91002309F429
:1010500091C000E00C9311960D911C910F5F1F4FF2
:101060001C930E93119713960C9101600C93139798
:1010700011960D911C9112974AE050E00E946B0C62
:10108000452B29F413960C9102600C93139711963B
:101090000D911C91129744E150E00E946B0C452B7E
:1010A00029F413960C9104600C93139711960D91EB
:1010B0001C91129742E350E00E946B0C452B59F4AF
:1010C00013960C9108600C93139702E014961C91F0
:1010D00010271C93149711960D911C91129744E6BA
:1010E00050E00E946B0C452B29F413960C91006183
:1010F0000C93139711960D911C91129744EF51E0A8
:101100000E946B0C452B59F413960C9100620C93C2
:10111000139701E014961C9110271C9314971196B5
:101120000D911C91129748EE53E00E946B0C452BD9
:1011300029F413960C9100640C93139711960D915A
:101140001C91129748E853E10E946B0C452B29F43F
:1011500013960C9100680C93139711960D911C91A6
:101160001297013523EC120728F000E010E01196E9
:101170000D931C93A991B9910895A098A89AA1984C
:10118000A99A8E98969A8F98979A8B9A93988C9AF8
:1011900094988D9A9598B99AC198BA9AC298BB9A20
:1011A000C398BC9AC498D098D898D198D998D29816
:1011B000DA98D398DB98D498DC98D598DD988A9AF9
:1011C0009298B89AC098A69AAE98A79AAF980895A0
:1011D00022979E012E5F3F4F28833983AE019801ED
:1011E00004E511E00E94340DA80124E531E000E59A
:1011F00011E00E94930A2296089578940895BDDF25
:101200000E9405080E94B1090E94BF090E94C307FD
:1012100000E00E94AA000E9409060E940E05EDDF70
:101220000EE211E00E9422080E94CC070E945E0696
:1012300000914501109146010E941006EEE2F1E096
:10124000038100FF0EC00E94620523E331E00E948B
:101250006C0503E311E00E94CC0500E511E00E945B
:10126000080BEEE2F1E0038101FF0EC00E943C0595
:101270004EE151E024E030E009E411E00E94330443
:1012800003E311E00E94E505EEE2F1E0038102FFD5
:1012900004C003E311E00E94C600EEE2F1E0038126
:1012A00006FF02C00E944D05EEE2F1E0038107FF58
:1012B00002C00E946909EEE2F1E004810170E3E3FB
:1012C000F1E000FB018104F9018300E000933101AA
:1012D000A7CF0091D800002399F009EB10E00E94FD
:1012E000E8082091D9003091DA0000915B0210915A
:1012F0005C020E94060D012B19F400E00093D80057
:1013000008950091D8000023F9F02CB100915D02FE
:1013100010E0E0915B02F0915C02E00FF11F20838E
:1013200000915D02039500935D020091D900109138
:10133000DA000E941C0D20915D0230E02017310779
:1013400019F400E000935D020895929A089592982E
:10135000089520E030E00217130711F0F801099515
:10136000089505EA19E0009350011093510107EA2E
:1013700019E00093520110935301E9DF089501E051
:101380000BB908EB0AB906E800BD03E309B900E0B0
:1013900000BD0895BA93AA938A93FA93EA933A9276
:1013A0002A921A920A927A936A935A934A933A9398
:1013B0002A931A930A938FB7A0E5B1E0A2DF2CB16C
:1013C00000ED17E0FD01E85FFE4F00831183FD0192
:1013D000E65FFE4F008102FD31C005E0FD01E95FDF
:1013E000FE4F0083FD01EA5FFE4F00810F3F30F5A5
:1013F000FD01EA5FFE4F008110E0FD01E00FF11FEB
:101400002483FD01EA5FFE4F008103950083FD0107
:10141000EA5FFE4F0081083031F4FD01E65FFE4FC8
:10142000008101600083FD01EA5FFE4F00810F3FF4
:1014300029F4A65FBE4F0C9104600C938FBF0991F5
:10144000199129913991499159916991799109900D
:10145000199029903990E991F9918991A991B991BF
:101460001895BA93AA93FA93EA932A931A930A9334
:101470002FB7E0E5F1E0DF01AC5FBE4F0C91DF017B
:10148000AB5FBE4F1C91011790F45E98DF01AC5F1B
:10149000BE4F0C9110E0DF01A00FB11F14960C910C
:1014A0000CB9EC5FFE4F00810395008302C0559894
:1014B000569A2FBF099119912991E991F991A99112
:1014C000B9911895BA93AA938A93FA93EA933A92A8
:1014D0002A921A920A927A936A935A934A933A9367
:1014E0002A931A930A938FB7E0E5F1E0DF01A65F34
:1014F000BE4F0C910F7E0C93028113812ADF569808
:101500008FBF099119912991399149915991699107
:1015100079910990199029903990E991F9918991DF
:10152000A991B99118950E94B30CD8012901CA015B
:10153000FD01E65FFE4F008104FD40C0FD01E65F56
:10154000FE4F0081006100830D911C91119701DF16
:1015500000E0FD01EB5FFE4F008300E0FD01EC5F6A
:10156000FE4F0083FD01EB5FFE4F008110E0080F8E
:10157000191F013021E0120748F080E091E0FD01E1
:10158000EB5FFE4F008110E0801B910BAC019201DC
:10159000FD01EB5FFE4F608170E08D01060F171FAC
:1015A0000C5F1F4F0E94D00CFD01EB5FFE4F80834C
:1015B0005E98559AFD0104810CB927C0FD01EB5FCF
:1015C000FE4F008110E0080F191F013021E01207C3
:1015D00048F080E091E0FD01EB5FFE4F008110E0FC
:1015E000801B910BAC019201FD01EB5FFE4F60810E
:1015F00070E08D01060F171F0C5F1F4F0E94D00C6B
:10160000AB5FBE4F0C91080F0C93E6E00C94C30C3B
:10161000F801E95FFE4F20812130C0F0F801E95F59
:10162000FE4F20812A952083F801E95FFE4F20813B
:10163000222361F4F801EA5FFE4F2081213030F06F
:10164000F801E65FFE4F208124602083F801E85F07
:10165000FE4F20813181232B49F0085F1E4FF80196
:101660000081118101501040008311830895000012
:101670008895FECF0E94AA0C2A970A831B832E838B
:101680003F834C835D834B0100E0088309832BC0BB
:1016900020E030E0EA810081085621F0045041F456
:1016A00031E001C021E08F010F5F1F4F0A831B83D0
:1016B000D1D0085509F480C00B5059F00A9509F4AF
:1016C0006BC00B5051F10450C9F0055009F474C0BF
:1016D00007C0D401ED91FC91A1903196FC93EE935B
:1016E000B6D00A2DC3D0B6D0053291F20023C1F78F
:1016F000088119812A96EFE00C94BA0CD401ED917F
:10170000FC9181919191FC93EE93FC010191CF01A9
:10171000002349F39CD0AAD0F8CF08E0A2D011F45E
:101720003323A1F5442400E8502E66247724222395
:1017300009F450C082D009F04AC0A92FAA0FAA0B01
:10174000BA2FBB2352F49095A095B09581959F4FE9
:10175000AF4FBF4F7CD00DE289D0C884D984EE242E
:1017600084159505A605B70538F45DD002E040164E
:101770005E046E047E0488F750D0402F405D4A33EB
:10178000F8F108E7A016D9F5495D3AC0442455247C
:10179000662400E4702E20C00AE063D011F43323E5
:1017A00021F400E1402E07E2BFCF44240AEC502E82
:1017B0000AE9602E0BE3EECF00E153D011F433239E
:1017C00011F44424B1CF442455246624E3CFA0E08F
:1017D000B0E0C3CF332381F0F401A081B1810D913A
:1017E0001D912D913D91A083B183C801D90104E6DB
:1017F000A01609F0B2CFA5CF20D049F79ECF495F00
:1018000026D0042F33D009D0CA01DB010CD0012B24
:10181000022B032B09F0B0CF66CFA201B3018C01DC
:101820009D010C94870CA60160E070E08201930199
:101830000E94870C28013901089504E6A016F401DE
:10184000A081B1818D919D91A083B18308952C8158
:101850003D810895EA81FB810191EA83FB83A02EFB
:10186000089510E00887198722230895EE81FF81EB
:101870000995088119810F5F1F4F08831983089507
:101880000FE90DBF00E00EBFC0E8D0E00E94CE0C13
:10189000002311F00E94EC0C0E94FF080E94370BFD
:1018A0000C94370BE199FECF08954F5F5F4FFADF3D
:1018B0004EBB5FBBE09A0895FADF0DB308954A95D9
:1018C0001AF0000F111FFBCF08954A951AF01695D4
:1018D0000795FBCF089500241124EFE0001F111F8E
:1018E000001C111C0416150610F0041A150AEA95BE
:1018F000AAF7001F111FA0010095109508954A95A1
:101900002AF03695279517950795F9CF0895002465
:1019100011241001E0E2EA9592F0001F111F221F2E
:10192000331F001C111C221C331C0416150626062E
:10193000370688F3041A150A260A370AECCF001F67
:10194000111F221F331FA001B10100951095209592
:1019500030950895EA92DA92CA92BA92AA929A922D
:101960008A927A926A925A924A92BA93AA939A93D4
:101970008A930895EE84DD84CC84BB84AA84998400
:1019800088847F806E805D804C80BB81AA81998134
:101990008881F0E0EC0FFD1FEF01089501E008954C
:1019A0000D01D80104C0F90161919F016D93BA0145
:1019B00041505040672BB9F7D001089520E006D080
:1019C000E9F70895259102D0E9F708952D93015084
:1019D0001040202F212B089580E99AE1FC01059108
:1019E0001491FC013296A591B491FC013496259195
:1019F0003491422F432B19F0F901E4DF01C0DEDFFF
:101A000006961AE18C39910748F3089502C02F5FBA
:101A10003F4FF8014081F9015081451741F4F80129
:101A200031968F01442399F700E010E00895042FC8
:101A300010E0051B10400895F80101C03196208187
:101A40002223E1F7E01BF10B8F0108951B2F6A2F72
:101A5000F901A081B181AD014F5F5F4F4083518398
:101A60000C93A62FB12F0895BA93AA9322970883B7
:101A700019838901BA01AE0126E23DE00E943A0BCA
:101A800020E0A881B9812C932296A991B99108955B
:101A90008301DB0000003B00A0009C1A41646472DB
:101AA000657373204170706C79205375636365733F
:101AB0007366756C00546F206170706C7920666F6E
:101AC000722074686520616464726573732073703A
:071AD0006163650001A00045
:0400000300000000F9
:00000001FF
