:020000020000FC
:100000000C94BF071895189518951895189518957C
:100010001895189518951895189518951895189578
:100020000C9432050C941705189518950C946C06D1
:100030000C94B1060C94E20618951895189518952D
:100040001895189518951895189518951895189548
:1000500018951895000001CC01D8001401F0003C5F
:10006000002801E401A0006C007801B40050019C5C
:10007000018800440E941C08B801C90100E010E09A
:1000800020E030E040E042E010C0A42FB0E0AA0F32
:10009000BB1FFB01EA0FFB1F0080118022243324C9
:1000A000000D111D221D331D439550E048175907BF
:1000B00060F30497AC0160E070E00E94F107E4E0B7
:1000C0000C942908006407B9379A369A349BFECFFE
:1000D000349A04B110E025B1322F20E0020F131F33
:1000E00008950E941C08D801E4EEF0E0048101FFAD
:1000F0002CC080E00DC00091A000E4DF282F30E08C
:10010000220F331FF901EF55FF4F008311838395B1
:10011000843188F324E130E001EA10E0ABDF209184
:10012000A00030E0220F331FA20FB31FFD01048394
:1001300015830091A00003950093A0000091A000FA
:10014000053018F000E00093A000E4E00C942908CA
:100150000E941608D8011A96ED91FC911B97008118
:1001600010E020911101309112010217130751F094
:100170001A96ED91FC911B970081013019F001E076
:1001800010E03EC11A96ED91FC911B970181003160
:1001900089F01A96ED91FC911B970181063051F080
:1001A0001A96ED91FC911B970181033019F002E042
:1001B00010E026C1FD018681978102979C01FD0117
:1001C000028513850E94F7029801FD0102851385BF
:1001D000FD0146815781040F151F01501040F801A1
:1001E0004081542F40E0FD0102851385FD016681A9
:1001F0007781060F171F02501040F801008110E0B0
:10020000400F511F2417350719F003E010E0F8C024
:100210001A96ED91FC911B970181003139F01A96E5
:10022000ED91FC911B970181063041F5FD0106819E
:100230001781083020E01207C1F1FD0126813781C6
:10024000FD0102851385F801868190E00996281743
:10025000390789F41A96ED91FC911B97268130E0BD
:10026000FD0102851385F801058110E0000F111FC3
:1002700020173107D1F009E010E0C2C0FD0106816E
:100280001781083020E0120781F0FD0126813781B7
:10029000FD0102851385F801828190E005962817FB
:1002A000390719F008E010E0ABC0FD0106811781A5
:1002B000083020E01207B1F51A96ED91FC911B97DA
:1002C0000181003139F01A96ED91FC911B97018163
:1002D000063019F400E010E093C01A96ED91FC91FD
:1002E0001B970281102F00E0FD0122853385F90163
:1002F000238130E0020F131FFD0122853385F901B0
:10030000258130E0ED91FC9111970995202F212B4B
:1003100009F076C08D0177D0FD010087118700E0DC
:1003200010E06EC01A96ED91FC911B97018100318F
:1003300041F01A96ED91FC911B970181063009F06E
:100340005DC01A96ED91FC911B978281982F80E0F9
:10035000FD0102851385F801038110E0800F911FD4
:10036000FD0102851385F8014480542C4424FD01CD
:1003700002851385F801058110E0400E511E92019F
:100380008C01ED91FC9111970995202F212BC1F53E
:1003900007E0602E7724882425C0FD01048515859B
:1003A000060D171DF8012081322F20E001E0600EBC
:1003B00000E0701EFD0104851585060D171DF8016E
:1003C000008110E0200F311F01E0600E00E0701E80
:1003D00099248C01080D191DFD0144815581FA01F4
:1003E00009958394992484149504B8F28D010BD057
:1003F000FD010087118700E010E002C000E010E07E
:10040000EAE00C9423080E941408D8011A96ED9192
:10041000FC911B970181003109F057C01A96ED91AC
:10042000FC911B972081FD0104851585F80120832F
:100430001A96ED91FC911B972181FD01048515858C
:10044000F80121831A96ED91FC911B972281FD0101
:1004500004851585F80122831A96ED91FC911B976E
:100460002381FD0104851585F80123831A96ED91FA
:10047000FC911B972481FD0104851585F8012483D7
:100480001A96ED91FC911B972581FD010485158538
:10049000F801258326E030E0FD01048515850E94E2
:1004A000F702C80140E051E08C010E94DD07FD0128
:1004B00004851585F8014683892FFD01A485B5853E
:1004C00017968C9308E010E08FC01A96ED91FC917E
:1004D0001B970181033009F085C01A96ED91FC91BC
:1004E0001B976280762C6624FD0102851385F80136
:1004F000038110E0600E711EFD0102851385F80175
:10050000A580BB24FD0102851385F8012081FD0132
:1005100004851585F8012083FD0102851385F80106
:100520002181FD0104851585F8012183FD010285E6
:100530001385F801158102E0109FFD0104851585E2
:10054000F801028203E0402E882425C0992483010B
:10055000080D191DFD0122813381F9010995C8019A
:100560008C01012F202FFD01048515855524040DD4
:10057000151DF8012083439440E051E08C010E9456
:10058000DD07FD01048515855524040D151DF801B1
:1005900040834394839499248A149B04B8F2242DB5
:1005A00030E0FD01048515850E94F702C80140E096
:1005B00051E08C010E94DD07FD010485158555245D
:1005C000040D151DF80140834394892FFD01048516
:1005D00015855524040D151DF80180834394042DC1
:1005E00010E002C000E11EEEECE00C9421087B2F2D
:1005F0000A2ED8010FEF1FEF29C0602F4C916427FE
:1006000044E00E94D707462F50E04F705070440FCF
:10061000551FFA01EC5AFF4F4591549104271527B5
:10062000602F4C9142954F70642744E00E94D70799
:10063000462F50E04F705070440F551FFA01EC5A8E
:10064000FF4F45915491042715271196A9019A014E
:1006500021503040452B89F6A02DB72F089500E09A
:10066000989B0160999B02609E9B04609F9B086021
:100670000895502FE4EEF0E0048100FF5EC060E0DA
:100680000CC0462F01E010E00E94D10700951091A8
:10069000CA0010231093CA006395643008F047C065
:1006A000462F01E010E00E94D107752F70230090C3
:1006B000C900462F01E010E00E94D10700227025FA
:1006C000772391F0462F01E010E00E94D1070095BA
:1006D0001091CA0010231093CA0000E070E0FB01E3
:1006E000E553FF4F0083D8CF70E0FB01E553FF4F88
:1006F00000810395008370E0FB01E553FF4F00810B
:10070000043150F2462F01E010E00E94D107152F6E
:100710001023112309F4B5CF462F01E010E00E9409
:10072000D1071091CA00102B1093CA00B5CF509377
:10073000C9000091CA00F90100830895F8012081E1
:1007400020FF0BC0EFECF0E0208120FD06C0EFECB5
:10075000F0E00081016000830895F801008100FD50
:1007600005C0EFECF0E000810E7F00830895E4EE19
:10077000F0E0248121FF2AC0F801238120FF02C07C
:10078000C09A01C0C098F801238121FF02C0C19A1C
:1007900001C0C198F801238122FF02C0C29A01C0A2
:1007A000C298F801238123FF02C0C49A01C0C498F3
:1007B000F801238124FF02C0939801C0939AF801A5
:1007C000038105FF02C096980895969A0895202FF8
:1007D000212B09F4979A013020E0120709F4959A29
:1007E000023020E0120709F4949A033020E0120747
:1007F00009F4C39A0895202F212B09F4979801300A
:1008000020E0120709F49598023020E0120709F45D
:100810009498033020E0120709F4C39808958A934E
:100820000091E5000023D1F100E00093E500E2ED46
:10083000F0E0008111810F5F1F4F0083118380E082
:1008400007C000E010E00093D2001093D30083951E
:10085000843020F5082F10E0000F111FF801E65139
:10086000FF4F068D178D4AE050E00E94DD07209172
:10087000D2003091D3000217130720F0082F10E0A8
:10088000A6DFE5CF0091D2001091D300053620E01D
:100890001207B8F6082F10E0AEDFD9CF899108957E
:1008A00000E010E00895053020E0120740F4000F4A
:1008B000111FF801E651FF4F04811581089507309B
:1008C00020E0120729F400E03699039510E008951E
:1008D000083020E0120729F40091F8001091F90087
:1008E0000895093020E0120719F406E110E0089598
:1008F0000A3020E0120760F00E3020E0120740F4CA
:10090000000F111FF801E651FF4F0285138508956E
:10091000033120E0120721F40091130110E0089543
:1009200000E010E008950A3040E0140758F00E305F
:1009300040E0140738F4000F111FF801E651FF4F93
:1009400022873387089520E534E0F801208331833E
:1009500023E534E0F8012283338323E934E0F8010E
:10096000248335830895F901EA5FFE4F408150E00A
:10097000F80146835783A9014C5F5F4FF801428716
:1009800053872C5F3F4FF8012487358720E030E004
:10099000F801208731870895BA93AA93F801D90105
:1009A00000851185012B39F04085518524853585D9
:1009B0008D010E94130700E0FD01E65FFE4F0083FA
:1009C00000E0AA5FBE4F0C93A991B991089504ED80
:1009D00010E0B9DF24E131E004ED10E0C4DF089558
:1009E000BA93AA93A4E1B1E0FD01E65FFE4F008156
:1009F00002FF1AC09D0104ED10E0B5DF04ED10E028
:100A00000E94A8000093E2001093E3009D0104ED12
:100A100010E0C2DFFD01E65FFE4F00810B7F008327
:100A200000E0AA5FBE4F0C93A991B99108951A9363
:100A30000A931FB703E802BF0091E50003950093F6
:100A4000E5001FBF09911991189500EE0DBD0FEB40
:100A50000CBD09B7046009BF00E00FBD0EB5016011
:100A60000EBD08951A930A931FB700EE0DBD0FEB4C
:100A70000CBD0091E40003950093E4000091E500B3
:100A800003950093E5001FBF099119911895BA933A
:100A9000AA93D8010C91002309F486C000E00C93BE
:100AA00012960D911C910F5F1F4F1C930E9312977E
:100AB00014960C9101600C93149712960D911C9151
:100AC000139745E050E00E94DD07452B51F402E00A
:100AD00010E014962D913C91202731273C932E93C2
:100AE000149712960D911C91139749E150E00E94C2
:100AF000DD07452B51F400E410E014962D913C9154
:100B0000202731273C932E93149712960D911C9118
:100B1000139742E350E00E94DD07452B51F404E0B7
:100B200010E014962D913C91202731273C932E9371
:100B3000149712960D911C9113974AEF50E00E9462
:100B4000DD07452B51F400E210E014962D913C9105
:100B5000202731273C932E93149712960D911C91C8
:100B6000139744EF51E00E94DD07452B51F408E054
:100B700010E014962D913C91202731273C932E9321
:100B8000149712960D911C91139744EC59E00E9412
:100B9000DD07452B49F400E110E014962D913C91BE
:100BA000202731273C932E93A991B9910895A098BD
:100BB000A89AA198A99AA698AE9AA798AF9AB89A17
:100BC000C098B99AC198BA9AC298BC9AC498BB9A6C
:100BD000C3988C9A94988D9A95988F9A9798D09854
:100BE000D898D198D998D298DA98D398DB988A9ADD
:100BF00092988B9A93988E9A9698089578940895DF
:100C0000D6DF0E9453060E9461060E94E7040E94FC
:100C10002505F4DF02E010E00093110110931201AA
:100C20000AC0EAEEF0E003810F7E0383E4EEF0E019
:100C300004810E7F0483E2DF04EE10E00E9447058A
:100C40000E942F032AEE30E00E9439030AEE10E0E2
:100C50000E949E0304E111E00E9488070AEE10E062
:100C60000E94B7030AEE10E00E9471000AEE10E045
:100C70000E940F040E94F004E4EEF0E0048103FF00
:100C8000D0CFEAEEF0E0038100610383CFCF929AE8
:100C900008959298089520E030E00217130711F0AC
:100CA000F8010995089507E416E0009314011093E4
:100CB000150109E416E00093160110931701E9DF0E
:100CC000089501E00BB908EB0AB906E800BD03E39B
:100CD00009B900E000BD0895BA93AA93FA93EA9384
:100CE0004A933A932A931A930A934FB7E4E1F1E0B7
:100CF0002CB100ED17E0DF01A85FBE4F0D931C93F0
:100D0000DF01A65FBE4F0C9102FD20C005E0DF01B0
:100D1000A95FBE4F0C93DF01AA5FBE4F0C9110E09C
:100D2000DF01A00FB11F14962C93DF01AA5FBE4F05
:100D30000C9103950C93DF01AA5FBE4F0C91083014
:100D400029F4E65FFE4F0081016000834FBF0991E7
:100D50001991299139914991E991F991A991B99103
:100D60001895BA93AA93FA93EA932A931A930A933B
:100D70002FB7E4E1F1E0DF01AC5FBE4F0C91DF0182
:100D8000AB5FBE4F1C91011790F45E98DF01AC5F22
:100D9000BE4F0C9110E0DF01A00FB11F14960C9113
:100DA0000CB9EC5FFE4F00810395008302C055989B
:100DB000569A2FBF099119912991E991F991A99119
:100DC000B9911895BA93AA938A93FA93EA933A92AF
:100DD0002A921A920A927A936A935A934A933A936E
:100DE0002A931A930A938FB7E4E1F1E0DF01A65F3B
:100DF000BE4F0C910F7E0C93028113814CDF5698ED
:100E00008FBF09911991299139914991599169910E
:100E100079910990199029903990E991F9918991E6
:100E2000A991B99118950E941A08D8012901CA01FF
:100E3000FD01E65FFE4F008104FD40C0FD01E65F5D
:100E4000FE4F0081006100830D911C91119723DFFB
:100E500000E0FD01EB5FFE4F008300E0FD01EC5F71
:100E6000FE4F0083FD01EB5FFE4F008110E0080F95
:100E7000191F013021E0120748F080E091E0FD01E8
:100E8000EB5FFE4F008110E0801B910BAC019201E3
:100E9000FD01EB5FFE4F608170E08D01060F171FB3
:100EA0000C5F1F4F0E943408FD01EB5FFE4F8083F3
:100EB0005E98559AFD0104810CB927C0FD01EB5FD6
:100EC000FE4F008110E0080F191F013021E01207CA
:100ED00048F080E091E0FD01EB5FFE4F008110E003
:100EE000801B910BAC019201FD01EB5FFE4F608115
:100EF00070E08D01060F171F0C5F1F4F0E94340812
:100F0000AB5FBE4F0C91080F0C93E6E00C942708E2
:100F1000E4EEF0E0248120FF2EC0F801E95FFE4FEF
:100F200020812130C0F0F801E95FFE4F20812A9531
:100F30002083F801E95FFE4F2081222361F4F8014C
:100F4000EA5FFE4F2081213030F0F801E65FFE4F6E
:100F5000208124602083F801E85FFE4F20813181E9
:100F6000232B49F0085F1E4FF801008111810150C9
:100F7000104000831183089500008895FECF0FE98B
:100F80000DBF00E00EBFC0E8D0E00E943208002391
:100F900011F00E9450080E9400060E94BC070C94A9
:100FA000BC074A951AF0000F111FFBCF08954A9510
:100FB0001AF016950795FBCF089500241124EFE051
:100FC000001F111F001C111C0416150610F0041A36
:100FD000150AEA95AAF7001F111FA00100951095A8
:100FE0000895002411241001E0E2EA9592F0001F18
:100FF000111F221F331F001C111C221C331C04163E
:1010000015062606370688F3041A150A260A370A33
:10101000ECCF001F111F221F331FA001B10100954B
:101020001095209530950895BA92AA929A928A9234
:101030007A926A925A924A92BA93AA939A938A930C
:101040000895BB84AA84998488847F806E805D80A3
:101050004C80BB81AA8199818881F0E0EC0FFD1F53
:10106000EF01089501E008950D01D80104C0F901D0
:1010700061919F016D93BA0141505040672BB9F7C0
:10108000D001089520E006D0E9F70895259102D017
:10109000E9F708952D9301501040202F212B08953A
:1010A00084ED90E1FC0105911491FC013296A5912B
:1010B000B491FC01349625913491422F432B19F0C1
:1010C000F901E4DF01C0DEDF069610E18A3D9107F9
:0A10D00048F308957F01A00000001E
:0400000300000000F9
:00000001FF
