:020000020000FC
:100000000C94900B189518951895189518951895A7
:100010001895189518951895189518951895189578
:100020000C94DC080C94C508189518950C942B0AB0
:100030000C94820A0C94B30A189518951895189583
:100040001895189518951895189518951895189548
:1000500018951895000001CC01D8001401F0003C5F
:10006000002801E401A0006C007801B40050019C5C
:10007000018800440E94020CB801C90100E010E0B0
:1000800020E030E040E042E010C0A42FB0E0AA0F32
:10009000BB1FFB01EA0FFB1F0080118022243324C9
:1000A000000D111D221D331D439550E048175907BF
:1000B00060F30497AC0160E070E00E94D70BE4E0CD
:1000C0000C940F0C006407B9379A369A349BFECF14
:1000D000349A04B110E025B1322F20E0020F131F33
:1000E00008950E94020CD801E5EEF0E0048102FFC1
:1000F0002CC080E00DC00091A000E4DF282F30E08C
:10010000220F331FF901EF55FF4F008311838395B1
:10011000843188F324E130E001EA10E0ABDF209184
:10012000A00030E0220F331FA20FB31FFD01028396
:1001300013830091A00003950093A0000091A000FC
:10014000053018F000E00093A000E4E00C940F0CE0
:100150003B2F4A2FF801A385B48511962C912130AD
:1001600071F0F801A385B48511962C91253039F0F2
:10017000F801A385B48511962C912F3011F401E07C
:100180002AC0F801A385B48511962C91223011F470
:1001900002E021C0F801A385B48511962C9124308A
:1001A00011F403E018C0F801A385B48511962C91D1
:1001B000233071F0F801A385B48511962C91263077
:1001C00039F0F801A385B48511960C91003111F432
:1001D00004E001C000E0A42FB32F08950E94FC0B9F
:1001E000D8011B96ED91FC911C970081013051F0D4
:1001F0001B96ED91FC911C970081023019F001E0F3
:1002000010E0E9C11B96ED91FC911C970181013032
:10021000A1F11B96ED91FC911C970181023069F1CF
:100220001B96ED91FC911C970181033031F11B96D7
:10023000ED91FC911C9701810430F9F01B96ED9132
:10024000FC911C9701810530C1F01B96ED91FC914A
:100250001C970181063089F01B96ED91FC911C974B
:1002600001810F3051F01B96ED91FC911C9701819B
:10027000003119F002E010E0AEC18D0169DFFD012F
:100280000683FD018781908502979C01FD0103850E
:1002900014850E94BB04FD0123853485FD0147813F
:1002A0005085240F351F21503040F9014081542FD3
:1002B00040E0FD0123853485FD0167817085260FAF
:1002C000371F22503040F901208130E0420F531F88
:1002D0000417150719F003E010E07DC11B96ED919E
:1002E000FC911C9701810530B1F01B96ED91FC91BA
:1002F0001C970181063079F01B96ED91FC911C97BB
:100300000181003141F01B96ED91FC911C97018118
:100310000F3009F05DC0FD0107811085083020E035
:10032000120709F46CC0FD0127813085FD010385AA
:100330001485F801868190E009962817390791F411
:100340001B96ED91FC911C97268130E0FD01038501
:100350001485F801058110E0000F111F20173107E7
:1003600009F44DC0FD0127813085FD010385148509
:10037000F801868190E009962817390731F51B9618
:10038000ED91FC911C97468150E008E010E00E943E
:10039000AF0BFD0123853485F901258130E002177B
:1003A00013079CF01B96ED91FC911C97458150E042
:1003B00008E010E00E94AF0BFD0123853485F901B0
:1003C000258130E002171307D4F009E010E003C1E3
:1003D000FD0107811085083020E0120781F0FD0142
:1003E00027813085FD0103851485F801828190E025
:1003F00005962817390719F008E010E0ECC0FD0158
:1004000007811085083020E0120721F51B96ED9139
:10041000FC911C9701810130A9F01B96ED91FC9194
:100420001C970181023071F01B96ED91FC911C9795
:100430000181033039F01B96ED91FC911C970181ED
:10044000043041F48D01CAD0FD010187128700E01C
:1004500010E0C1C01B96ED91FC911C970181053005
:10046000B1F01B96ED91FC911C970181063079F05B
:100470001B96ED91FC911C9701810F3041F01B966A
:10048000ED91FC911C970181003109F0A2C01B96EF
:10049000ED91FC911C978281982F80E0FD010385EE
:1004A0001485F801038110E0800F911FFD01038581
:1004B0001485F8018480982C8824FD010385148517
:1004C000F801058110E0800E911E94018C01ED91E0
:1004D000FC9111970995202F212B09F07CC0FD017B
:1004E00003851485F8010181053039F0FD0103858C
:1004F0001485F8010181063041F504E0402E5524B1
:1005000040E0FD0105851685040D151DF8012081CB
:10051000322F20E001E0400E00E0501EFD01058575
:100520001685040D151DF801008110E0200F311F04
:1005300001E0400E00E0501E50E08C01040F151F3A
:10054000FD0144815581FA010995FD01038514855A
:10055000F80101810F3039F0FD0103851485F801A0
:100560000181003171F507E0402E5524662425C035
:10057000FD0105851685040D151DF8012081322F1A
:1005800020E001E0400E00E0501EFD0105851685CB
:10059000040D151DF801008110E0200F311F01E04E
:1005A000400E00E0501E77248C01060D171DFD0142
:1005B00044815581FA01099563947724681479047C
:1005C000B8F28D010BD0FD010187128700E010E029
:1005D00002C000E010E0EAE00C94090C0E94FA0B63
:1005E000D8015524FD0103851485F80101810130EE
:1005F00041F0FD0103851485F8010181023009F005
:10060000A3C0FD0103851485F8016280762C662461
:10061000FD0103851485F801038110E0600E711E51
:10062000FD0103851485F801A580BB24FD01038528
:100630001485F8012081FD0105851685F8012083C8
:10064000FD0103851485F8012181FD0105851685CD
:10065000F801218348E050E085010E94C30B452B3F
:1006600059F443E085010E94BD0B202FFD01058553
:100670001685F80122830BC043E085010E94BD0B63
:10068000202F2395FD0105851685F801228303E0BF
:10069000402E88242FC099248301080D191DFD01C7
:1006A00022813381F9010995C801892B89F0452DF3
:1006B00001E010E00E94B70B402FFD010585168573
:1006C000242D30E0020F131FF8010081042B00835A
:1006D0005394052D502E083060F05524439440E08B
:1006E000FD0105851685242D30E0020F131FF8014A
:1006F0004083839499248A149B0468F2552009F05E
:100700004394242D30E0FD01058516850E94BB042D
:10071000C80140E051E08C010E94C30BFD0105853A
:1007200016855524040D151DF80140834394892F27
:10073000FD01058516855524040D151DF8018083DE
:100740004394042D10E014C11B96ED91FC911C976D
:100750000181033041F01B96ED91FC911C970181C2
:10076000043009F08FC01B96ED91FC911C976280BC
:10077000762C6624FD0103851485F801038110E0C1
:10078000600E711EFD0103851485F801A580BB2450
:10079000FD0103851485F8010181013019F400E0A1
:1007A00010E0E6C0FD0103851485F8012081FD01FC
:1007B00005851685F8012083FD0103851485F80160
:1007C0002181FD0105851685F8012183FD01038541
:1007D0001485F801158102E0109FFD01058516853D
:1007E000F801028203E0402E882425C09924830169
:1007F000080D191DFD0122813381F9010995C801F8
:100800008C01012F202FFD01058516855524040D2F
:10081000151DF8012083439440E051E08C010E94B3
:10082000C30BFD01058516855524040D151DF80122
:1008300040834394839499248A149B04B8F2242D12
:1008400030E0FD01058516850E94BB04C80140E02B
:1008500051E08C010E94C30BFD01058516855524CE
:10086000040D151DF80140834394892FFD01058572
:1008700016855524040D151DF80180834394042D1D
:1008800010E076C01B96ED91FC911C97018105301C
:10089000B1F01B96ED91FC911C970181063079F027
:1008A0001B96ED91FC911C9701810F3041F01B9636
:1008B000ED91FC911C970181003109F057C01B9606
:1008C000ED91FC911C972081FD0105851685F801AD
:1008D00020831B96ED91FC911C972181FD010585DC
:1008E0001685F80121831B96ED91FC911C972281BE
:1008F000FD0105851685F80122831B96ED91FC917B
:100900001C972381FD0105851685F80123831B961D
:10091000ED91FC911C972481FD0105851685F80158
:1009200024831B96ED91FC911C972581FD01058583
:100930001685F801258326E030E0FD010585168542
:100940000E94BB04C80140E051E08C010E94C30B2F
:10095000FD0105851685F8014683892FFD01A585D2
:10096000B68517968C9308E010E002C000E11EEEF9
:10097000ECE00C94070C7B2F0A2ED8010FEF1FEF31
:1009800029C0602F4C91642744E00E94BD0B462F84
:1009900050E04F705070440F551FFA01EC5AFF4F52
:1009A0004591549104271527602F4C9142954F7023
:1009B000642744E00E94BD0B462F50E04F705070FA
:1009C000440F551FFA01EC5AFF4F459154910427EB
:1009D00015271196A9019A0121503040452B89F61F
:1009E000A02DB72F0895E199FECF1FBB0EBBE09A53
:1009F0000DB30895E199FECF1FBB0EBB2DBB04E0E4
:100A00000CBBE19A08950E94FE0BC8013A01D9017E
:100A10004424552416C08C01040D151DE4DFFD018E
:100A2000E40DF51D1081011741F0FD01E40DF51DE8
:100A300020818C01040D151DDDDF01E0400E00E07A
:100A4000501E4614570438F3E8E00C940B0C9A93AC
:100A50008A93B8010A01190180E090E00AC0AB0155
:100A6000480F591F0E94AC0BF101E80FF91F0083DA
:100A700001968015910598F38991999108950E94A6
:100A8000000CC901D801442455249C010E94BB04D8
:100A900096958795880F991FA80FB91FFD01208192
:100AA000318129014016510611F401E001C000E036
:100AB000E6E00C940D0C0E94020CC901D8019C01C7
:100AC0000E94BB0496958795880F991FA80FB91FA0
:100AD0000D931C93E4E00C940F0C20E030E0F8013F
:100AE00020833183F801008101600083089520E0B4
:100AF00030E0F80120833183F801208122602083D7
:100B0000F80100810160008308950E94000CD80163
:100B1000C9012A01F201008100FFCFC0F20100816A
:100B200001FD36C0F20100810E7F0083AC014E5FF3
:100B30005F4F9D0100E810E08ADF9C018D019FDF7F
:100B4000002301F5F201008100680083AC014E5FD3
:100B50005F4F9D0100E011E07ADF9C018D018FDF86
:100B6000002351F400E010E0F20100831183F20150
:100B7000008100680083A1C000E010E0F201008362
:100B800011839BC000E010E0F2010083118395C047
:100B9000F20100810877002309F5F201008111813B
:100BA000980127783F7F06950695069510E00F5F20
:100BB0001F4F43E00E94B70B08771070202B312B9A
:100BC000F20120833183F201008111810F7F1070C7
:100BD00000601461F201008311836FC0F201008193
:100BE0000877083091F5F2010081118100701F7FB4
:100BF000012B09F062C09C018D015DDF0296AC0102
:100C00009D0100E810E0FFDEF201008111810F7FFD
:100C1000107000601461F20100831183F201008101
:100C20001181980127783F7F06950695069510E07B
:100C30000F5F1F4F43E00E94B70B08771070202B07
:100C4000312BF2012083318338C0F2010081087713
:100C5000003139F5F2010081118100701F7F012BF5
:100C600061F59C018D0127DF0296AC019D0100E03A
:100C700011E0C9DEF20100811181980127783F7FE0
:100C800006950695069510E00F5F1F4F43E00E9402
:100C9000B70B08771070202B312BF20120833183A2
:100CA0000CC0F2010081118100701F7F012B29F41B
:100CB00000E010E0F20100831183E6E00C940D0CDB
:100CC000E8EDF0E000810F77008308ED10E005DF2C
:100CD00048ED50E022E030E00FE011E016DFE8EDF3
:100CE000F0E0008107FF0BC0E8EDF0E000810F7736
:100CF000008301E010E000930F01109310010091B8
:100D0000D8000877002319F408ED10E0F0DE08950C
:100D10009A938A93E5EEF0E0048105FF10C080917C
:100D200011019091120122E030E00FE011E00E94E9
:100D3000BB048017910719F008ED10E0D8DEE5EE4E
:100D4000F0E0048101FF10C00091D8001091D9009B
:100D500000701F7F012B41F0E8EDF0E00081118170
:100D60000050114000831183E5EEF0E0048102FFA2
:100D700007C048ED50E022E030E00FE011E0C5DEB2
:100D800089919991089500E0989B0160999B026078
:100D90009E9B04609F9B08600895502FE5EEF0E055
:100DA000048100FF5EC060E00CC0462F01E010E04F
:100DB0000E94B70B00951091DB0010231093DB000D
:100DC0006395643008F047C0462F01E010E00E94B0
:100DD000B70B752F70230090DA00462F01E010E06A
:100DE0000E94B70B00227025772391F0462F01E077
:100DF00010E00E94B70B00951091DB0010231093B8
:100E0000DB0000E070E0FB01E452FF4F0083D8CF2D
:100E100070E0FB01E452FF4F00810395008370E016
:100E2000FB01E452FF4F0081043150F2462F01E0F4
:100E300010E00E94B70B152F1023112309F4B5CF32
:100E4000462F01E010E00E94B70B1091DB00102B41
:100E50001093DB00B5CF5093DA000091DB00F9016D
:100E600000830895F801208120FF0BC0E0EEF0E040
:100E7000208120FD06C0E0EEF0E0008101600083EB
:100E80000895F801008100FD05C0E0EEF0E000816A
:100E90000E7F00830895E5EEF0E0248121FF2AC053
:100EA000F801218120FF02C0C09A01C0C098F8015A
:100EB000218121FF02C0C19A01C0C198F80121819E
:100EC00022FF02C0C29A01C0C298F801218123FF0B
:100ED00002C0C49A01C0C498F801218124FF02C055
:100EE000939801C0939AF801018105FF02C096987A
:100EF0000895969A0895202F212B09F4979A01308E
:100F000020E0120709F4959A023020E0120709F454
:100F1000949A033020E0120709F4C39A0895202F11
:100F2000212B09F49798013020E0120709F49598D5
:100F3000023020E0120709F49498033020E01207F1
:100F400009F4C39808958A930091E6000023D1F133
:100F500000E00093E600E1EEF0E0008111810F5F18
:100F60001F4F0083118380E007C000E010E0009372
:100F7000E1001093E2008395843020F5082F10E003
:100F8000000F111FF801E551FF4F048D158D4AE048
:100F900050E00E94C30B2091E1003091E200021763
:100FA000130720F0082F10E0A6DFE5CF0091E10045
:100FB0001091E200053620E01207B8F6082F10E085
:100FC000AEDFD9CF8991089500E010E00895053093
:100FD00020E0120740F4000F111FF801E551FF4F08
:100FE000028113810895073020E0120729F400E000
:100FF0003699039510E00895083020E0120729F48F
:101000000091F7001091F8000895093020E01207D0
:1010100019F406E110E008950A3020E0120760F0AC
:101020000E3020E0120740F4000F111FF801E551C7
:10103000FF4F008511850895023120E0120719F451
:1010400006E110E00895033120E0120729F4009131
:101050000F0110911001089500E010E008954091F3
:10106000CF004230E9F04091CF00433009F40895B9
:101070000A3040E0140760F00E3040E0140740F4FE
:10108000A801440F551FFA01E551FF4F2087318712
:10109000033140E0140721F420930F013093100135
:1010A000089524EE37E0F8012083318327EE37E0FE
:1010B000F801228333832FE238E0F801248335835B
:1010C0000895F901EA5FFE4F408150E0F80147833F
:1010D0005087A9014C5F5F4FF801438754872C5F0D
:1010E0003F4FF8012587368720E030E0F80121875F
:1010F00032870895BA93AA93F801D9010185128520
:10110000012B39F041855285258536858D010E9458
:10111000E40A00E0FD01E65FFE4F008300E0AA5F05
:10112000BE4F0C93A991B991089509EC10E0B9DF75
:1011300024E131E009EC10E0C4DF0895BA93AA93EA
:10114000A4E1B1E0FD01E65FFE4F008102FF1AC09D
:101150009D0109EC10E0B5DF09EC10E00E94EE0003
:101160000093E3001093E4009D0109EC10E0C2DF5E
:10117000FD01E65FFE4F00810B7F008300E0AA5F68
:10118000BE4F0C93A991B99108951A930A931FB772
:10119000789403E802BF1FBF09911991189500EEDA
:1011A0000DBD0FEB0CBD09B7046009BF00E00FBD1A
:1011B0000EB501600EBD08951A930A931FB700EE95
:1011C0000DBD0FEB0CBD0091E50003950093E5000C
:1011D0000091E60003950093E6001FBF0991199165
:1011E0001895BA93AA93D8010C91002309F4AEC0C4
:1011F00000E00C9312960D911C910F5F1F4F1C93F2
:101200000E93129714960C9101600C9314971296FA
:101210000D911C91139745E050E00E94C30B452BA4
:1012200051F402E010E014962D913C9120273127D3
:101230003C932E93149712960D911C9113974AE0AC
:1012400050E00E94C30B452B51F404E010E01496CB
:101250002D913C91202731273C932E931497129681
:101260000D911C91139749E150E00E94C30B452B4F
:1012700051F400E810E014962D913C91202731277D
:101280003C932E93149712960D911C91139742E361
:1012900050E00E94C30B452B51F408E010E0149677
:1012A0002D913C91202731273C932E931497129631
:1012B0000D911C9113974AEF50E00E94C30B452BF0
:1012C00081F400E410E014962D913C912027312701
:1012D0003C932E93149700E11091EC00102710938B
:1012E000EC0012960D911C91139744EF51E00E946F
:1012F000C30B452B51F400E110E014962D913C9165
:10130000202731273C932E93149712960D911C9110
:10131000139744EC59E00E94C30B452B51F400E2B3
:1013200010E014962D913C91202731273C932E9369
:10133000149712960D911C911397013523EC120707
:1013400028F000E010E012960D931C93A991B9913A
:101350000895A098A89AA198A99AA698AE9AA79835
:10136000AF9AB89AC098B99AC198BA9AC298BC9ADA
:10137000C498BB9AC3988C9A94988D9A95988F9A92
:101380009798D098D898D198D998D298DA98D39835
:10139000DB988A9A92988B9A93988E9A9698089549
:1013A00078940895D6DF0E94CF080E94120A0E9406
:1013B000200A0E9495080E946006F2DF05EE10E008
:1013C0000E94F1080E94C3062BEE30E00E94CD0679
:1013D0000BEE10E00E94320704E111E00E94590B6D
:1013E0000BEE10E00E944B070BEE10E00E94710024
:1013F0000BEE10E00E94A3070E9488060E949E0840
:10140000E5EEF0E004810E7F0483D8CF929A089530
:101410009298089520E030E00217130711F0F801C8
:101420000995089506E01AE0009314011093150140
:1014300008E01AE00093160110931701E9DF089500
:1014400001E00BB908EB0AB906E800BD03E309B9EE
:1014500000E000BD0895BA93AA93FA93EA934A93E1
:101460003A932A931A930A934FB7E4E1F1E02CB12F
:1014700000ED17E0DF01A85FBE4F0D931C93DF0165
:10148000A65FBE4F0C9102FD32C005E0DF01A95FEF
:10149000BE4F0C93DF01AA5FBE4F0C910F3F38F592
:1014A000DF01AA5FBE4F0C9110E0DF01A00FB11F5A
:1014B00014962C93DF01AA5FBE4F0C9103950C93F9
:1014C000DF01AA5FBE4F0C91083031F4DF01A65F47
:1014D000BE4F0C9101600C93DF01AA5FBE4F0C91CF
:1014E0000F3F29F4E65FFE4F0081046000834FBF89
:1014F00009911991299139914991E991F991A9910C
:10150000B9911895BA93AA93FA93EA932A931A93E6
:101510000A932FB7E4E1F1E0DF01AC5FBE4F0C911D
:10152000DF01AB5FBE4F1C91011790F45E98DF01A5
:10153000AC5FBE4F0C9110E0DF01A00FB11F1496FD
:101540000C910CB9EC5FFE4F00810395008302C043
:101550005598569A2FBF099119912991E991F991BE
:10156000A991B9911895BA93AA938A93FA93EA9399
:101570003A922A921A920A927A936A935A934A93C7
:101580003A932A931A930A938FB7E4E1F1E0DF01CB
:10159000A65FBE4F0C910F7E0C93028113813ADF40
:1015A00056988FBF09911991299139914991599173
:1015B000699179910990199029903990E991F9915F
:1015C0008991A991B99118950E94000CD80129011F
:1015D000CA01FD01E65FFE4F008104FD40C0FD0130
:1015E000E65FFE4F0081006100830D911C91119711
:1015F00011DF00E0FD01EB5FFE4F008300E0FD0125
:10160000EC5FFE4F0083FD01EB5FFE4F008110E0B9
:10161000080F191F013021E0120748F080E091E027
:10162000FD01EB5FFE4F008110E0801B910BAC01D0
:101630009201FD01EB5FFE4F608170E08D01060FAE
:10164000171F0C5F1F4F0E941A0CFD01EB5FFE4F2E
:1016500080835E98559AFD0104810CB927C0FD0175
:10166000EB5FFE4F008110E0080F191F013021E0F1
:10167000120748F080E091E0FD01EB5FFE4F008132
:1016800010E0801B910BAC019201FD01EB5FFE4F5E
:10169000608170E08D01060F171F0C5F1F4F0E94C5
:1016A0001A0CAB5FBE4F0C91080F0C93E6E00C9444
:1016B0000D0CE5EEF0E0248120FF2EC0F801E95F7B
:1016C000FE4F20812130C0F0F801E95FFE4F2081FC
:1016D0002A952083F801E95FFE4F2081222361F4DF
:1016E000F801EA5FFE4F2081213030F0F801E65F1B
:1016F000FE4F208124602083F801E85FFE4F2081A7
:101700003181232B49F0085F1E4FF80100811181C0
:101710000150104000831183089500008895FECF8A
:101720000FE90DBF00E00EBFC0E8D0E00E94180C2A
:10173000002311F00E94360C0E94D2090E948D0BEA
:101740000C948D0BE199FECF08954F5F5F4FFADF48
:101750004EBB5FBBE09A0895FADF0DB30895149F66
:10176000102D059F100D049F002D110D08954A9511
:101770001AF0000F111FFBCF08954A951AF0169525
:101780000795FBCF089500241124EFE0001F111FDF
:10179000001C111C0416150610F0041A150AEA950F
:1017A000AAF7001F111FA0010095109508950024AD
:1017B00011241001E0E2EA9592F0001F111F221F90
:1017C000331F001C111C221C331C04161506260690
:1017D000370688F3041A150A260A370AECCF001FC9
:1017E000111F221F331FA001B101009510952095F4
:1017F00030950895BA92AA929A928A927A926A92AF
:101800005A924A92BA93AA939A938A930895BB8460
:10181000AA84998488847F806E805D804C80BB819F
:10182000AA8199818881F0E0EC0FFD1FEF010895F6
:1018300001E008950D01D80104C0F90161919F01F3
:101840006D93BA0141505040672BB9F7D00108950C
:1018500020E006D0E9F70895259102D0E9F7089530
:101860002D9301501040202F212B089580EA98E1FC
:10187000FC0105911491FC013296A591B491FC01F3
:10188000349625913491422F432B19F0F901E4DF6E
:1018900001C0DEDF069618E1863A910748F3089505
:0618A0007F01A000000022
:0400000300000000F9
:00000001FF
