:020000020000FC
:100000000C94A11A18951895189518951895189587
:100010001895189518951895189518951895189578
:100020001895189518951895189518951895189568
:1000300018951895189518950C94581918951895A1
:100040000C944119189518950C94F6030C945104CE
:100050000C9486040C948E00189518951895189594
:100060001895189518951895189518951895189528
:1000700018951895189518950C941F030C947B03EC
:100080000C94BD031895189518951895000001CC8F
:1000900001D8001401F0003C002801E401A0006C2C
:1000A000007801B40050019C018800440001020363
:1000B0000405060708090A0B0C0D0E0FFF010400CA
:1000C00000FF021006000E947C1DB801A90100E09B
:1000D00010E020E030E080E080E010C0A82FB0E029
:1000E000AA0FBB1FFB01EA0FFB1F00801180222417
:1000F0003324000D111D221D331D839590E08417BC
:10010000950760F360E070E00E94361BE4E00C9419
:10011000891D03E407B90DEE06B90895FA93EA9331
:100120003A932A931A930A932FB73BB704B115B1A8
:100130000093220310932303E0EFF2E000810160BB
:1001400000833BBF2FBF0991199129913991E99102
:10015000F991189520E030E044E550E060E070E06F
:100160000E940E1B44E05AE061E070E0401B510B1E
:10017000620B730B8A019B010E5C1F4F2F4F3F4F89
:1001800044E650E060E070E00E94361B05501040ED
:1001900020403040093E43E0140740E0240740E09F
:1001A000340720F000E010E020E030E008959A935A
:1001B0008A93C801E0EFF2E0008100FF8FC0E0EF1A
:1001C000F2E000810E7F00830091F0021091F102B5
:1001D0000C7F11701695079516950795083130F527
:1001E00020912203309123030091F0021091F1023B
:1001F0000C7F11701695079516950795000F111F26
:10020000F801E051FD4F228333838091F0029091F9
:10021000F1028C0103701E7F04968C7F9170082B75
:10022000192B0093F0021093F10258C02091F002B4
:100230003091F1022C7F31703695279536952795B0
:1002400002EF12E040DF0093240310932503E0EF58
:10025000F2E00081118103701E7F00831183FC0195
:10026000FC9620813181009124031091250372DFD7
:100270000093260310932703009126031091270370
:10028000209128033091290302171307B1F0009140
:100290002A03002391F408EC10E0FC01EA59FF4F17
:1002A0000083118301E000932A030091260310913B
:1002B00027030093280310932903FC01EA59FF4FF9
:1002C00000811181012B51F4009128031091290321
:1002D000FC0100AF11AF00E000932A0389919991CE
:1002E0000895E199FECF1FBB0EBBE09A0DB30895B0
:1002F000E199FECF1FBB0EBB2DBB04E00CBBE19A06
:1003000008950E94781DC8013A01D901442455245A
:1003100016C08C01040D151DE4DFFD01E40DF51D73
:100320001081011741F0FD01E40DF51D20818C01C4
:10033000040D151DDDDF01E0400E00E0501E4614E7
:10034000570438F3E8E00C94851D9A938A93B8011A
:100350000A01190180E090E00AC0AB01480F591F63
:100360000E94BD1AF101E80FF91F00830196801564
:10037000910598F38991999108950E947A1DC90178
:10038000D801442455249C010E947D0996958795A7
:10039000880F991FA80FB91FFD0120813181290104
:1003A0004016510611F401E001C000E0E6E00C94B3
:1003B000871D0E947C1DC901D8019C010E947D09F6
:1003C00096958795880F991FA80FB91F0D931C93B9
:1003D000E4E00C94891D20E030E0F80120833183B3
:1003E000F801008101600083089520E030E0F80109
:1003F00020833183F801208122602083F80100816D
:100400000160008308950E947A1DD801C9012A0164
:10041000F201008100FFCFC0F201008101FD36C072
:10042000F20100810E7F0083AC014E5F5F4F9D01A2
:1004300000E010E08ADF9C018D019FDF002301F5C1
:10044000F201008100680083AC014E5F5F4F9D01A7
:1004500000E012E07ADF9C018D018FDF002351F470
:1004600000E010E0F20100831183F20100810068D6
:100470000083A1C000E010E0F201008311839BC063
:1004800000E010E0F2010083118395C0F2010081C9
:100490000877002309F5F20100811181980127787E
:1004A0003F7F06950695069510E00F5F1F4F43E0CE
:1004B0000E94D61A08771070202B312BF20120836E
:1004C0003183F201008111810F7F1070006014618F
:1004D000F201008311836FC0F201008108770830B8
:1004E00091F5F2010081118100701F7F012B09F04D
:1004F00062C09C018D015DDF0296AC019D0100E0B0
:1005000010E0FFDEF201008111810F7F10700060AA
:100510001461F20100831183F201008111819801BD
:1005200027783F7F06950695069510E00F5F1F4FD1
:1005300043E00E94D61A08771070202B312BF2016D
:100540002083318338C0F20100810877003139F50A
:10055000F2010081118100701F7F012B61F59C0168
:100560008D0127DF0296AC019D0100E012E0C9DE9B
:10057000F20100811181980127783F7F0695069549
:10058000069510E00F5F1F4F43E00E94D61A0877D0
:100590001070202B312BF201208331830CC0F2012B
:1005A0000081118100701F7F012B29F400E010E011
:1005B000F20100831183E6E00C94871D919A08955F
:1005C000919808951A9A08951A98089501E0009351
:1005D0009B0008EB00939A0006E800939D0003E35C
:1005E0000093990000E000939800089501E00BB992
:1005F00008EB0AB906E80093950003E309B900E0A7
:100600000093900008950EED12E000932D031093D7
:100610002E0300EE12E000932F0310933003D0DF7F
:10062000089502EE12E000933B0410933C0404EEA4
:1006300012E000933D0410933E04C6DF0895BA9380
:10064000AA93FA93EA935A934A933A932A931A9362
:100650000A934FB75BB7EDE2F3E020919C0008EE00
:1006600013E0DF01A75FBE4F0D931C93DF01A35F73
:10067000BE4F0C9102FD32C003E0DF01A95FBE4F07
:100680000C93DF01AA5FBE4F0C910F3F38F5DF01DD
:10069000AA5FBE4F0C9110E0DF01A00FB11F1496AE
:1006A0002C93DF01AA5FBE4F0C9103950C93DF01E1
:1006B000AA5FBE4F0C91083031F4DF01A35FBE4F3B
:1006C0000C9101600C93DF01AA5FBE4F0C910F3FAC
:1006D00029F4E35FFE4F0081046000835BBF4FBFDE
:1006E000099119912991399149915991E991F9917A
:1006F000A991B9911895BA93AA93FA93EA933A9368
:100700002A931A930A932FB73BB7EDE2F3E0DF0188
:10071000AC5FBE4F0C91DF01AB5FBE4F1C91011768
:10072000B8F400919B000F7B00939B00DF01AC5F4E
:10073000BE4F0C9110E0DF01A00FB11F14960C9179
:1007400000939C00EC5FFE4F0081039500830AC07C
:1007500000919A000F7D00939A0000919A00006426
:1007600000939A003BBF2FBF0991199129913991AC
:10077000E991F991A991B9911895BA93AA939A938D
:100780008A93FA93EA933A922A921A920A927A9365
:100790006A935A934A933A932A931A930A938FB778
:1007A0009BB7EDE2F3E0DF01A35FBE4F0C910F7E3C
:1007B0000C9302811381DFD000919A000F7B00938C
:1007C0009A009BBF8FBF0991199129913991499145
:1007D0005991699179910990199029903990E991ED
:1007E000F99189919991A991B9911895BA93AA9380
:1007F000FA93EA935A934A933A932A931A930A9351
:100800004FB75BB7EBE3F4E02CB108EE13E0DF0188
:10081000A75FBE4F0D931C93DF01A35FBE4F0C91EA
:1008200002FD32C003E0DF01A95FBE4F0C93DF0180
:10083000AA5FBE4F0C910F3F38F5DF01AA5FBE4F94
:100840000C9110E0DF01A00FB11F14962C93DF0173
:10085000AA5FBE4F0C9103950C93DF01AA5FBE4FB8
:100860000C91083031F4DF01A35FBE4F0C910160A1
:100870000C93DF01AA5FBE4F0C910F3F29F4E35F99
:10088000FE4F0081046000835BBF4FBF0991199147
:100890002991399149915991E991F991A991B99188
:1008A0001895BA93AA93FA93EA933A932A931A93D0
:1008B0000A932FB73BB7EBE3F4E0DF01AC5FBE4F29
:1008C0000C91DF01AB5FBE4F1C91011790F45E9855
:1008D000DF01AC5FBE4F0C9110E0DF01A00FB11F34
:1008E00014960C910CB9EC5FFE4F008103950083C8
:1008F00002C05598569A3BBF2FBF09911991299173
:100900003991E991F991A991B9911895BA93AA935E
:100910009A938A93FA93EA933A922A921A920A92B3
:100920007A936A935A934A933A932A931A930A931F
:100930008FB79BB7EBE3F4E0DF01A35FBE4F0C91F1
:100940000F7E0C930281138116D056989BBF8FBFE8
:100950000991199129913991499159916991799107
:100960000990199029903990E991F991899199917B
:10097000A991B991189520E030E00217130711F002
:10098000F801099508950E947A1DD8012901CA012C
:10099000FD01E35FFE4F008104FD43C0FD01E35F05
:1009A000FE4F0081006100830D911C911197E3DFE0
:1009B00000E0FD01EB5FFE4F008300E0FD01EC5F16
:1009C000FE4F0083FD01EB5FFE4F008110E0080F3A
:1009D000191F013021E0120748F080E091E0FD018D
:1009E000EB5FFE4F008110E0801B910BAC01920188
:1009F000FD01EB5FFE4F608170E08D01060F171F58
:100A00000C5F1F4FD5D0AB5FBE4F8C9300919B0006
:100A10000F7B00939B0000919A00006200939A0064
:100A200026C0FD01EB5FFE4F008110E0080F191F8B
:100A3000013021E0120748F080E091E0FD01EB5F1A
:100A4000FE4F008110E0801B910BAC019201FD0173
:100A5000EB5FFE4F608170E08D01060F171F0C5F8A
:100A60001F4FA6D0AB5FBE4F0C91080F0C93E6E072
:100A70000C94871D0E947A1DD8012901CA01FD012D
:100A8000E35FFE4F008104FD3BC0FD01E35FFE4FCD
:100A90000081006100830D911C9111976CDF00E0D3
:100AA000FD01EB5FFE4F008300E0FD01EC5FFE4FB8
:100AB0000083FD01EB5FFE4F008110E0080F191F5E
:100AC000013021E0120748F080E091E0FD01EB5F8A
:100AD000FE4F008110E0801B910BAC019201FD01E3
:100AE000EB5FFE4F608170E08D01060F171F0C5FFA
:100AF0001F4F5ED0AB5FBE4F8C935E98559A26C059
:100B0000FD01EB5FFE4F008110E0080F191F01305F
:100B100021E0120748F080E091E0FD01EB5FFE4F1D
:100B2000008110E0801B910BAC019201FD01EB5F95
:100B3000FE4F608170E08D01060F171F0C5F1F4F85
:100B400037D0AB5FBE4F0C91080F0C93E6E00C94CE
:100B5000871DF801E95FFE4F20812130C0F0F801C8
:100B6000E95FFE4F20812A952083F801E95FFE4F5F
:100B70002081222361F4F801EA5FFE4F20812130B9
:100B800030F0F801E35FFE4F208124602083F801FC
:100B9000E75FFE4F20813181232B49F0075F1E4F15
:100BA000F8010081118101501040008311830895E4
:100BB0007B2F0A2ED801F901232B61F0012B39F488
:100BC00009C000810C933196119641505040042F7A
:100BD000052BB9F7A02DB72F08950E94761DD801D7
:100BE0000091CB051091CC050F731070009340025B
:100BF000109341021F96ED91FC915097008110E0F7
:100C000020914002309141020217130749F01F96CC
:100C1000ED91FC91509700810F3F11F001E168C107
:100C20001F96ED91FC9150970181003181F01F9644
:100C3000ED91FC9150970181063049F01F96ED919E
:100C4000FC9150970181033011F002E151C1FD0187
:100C50008385948502979C01FD01078510890E9478
:100C60007D09FD0127853089FD0143855485240FC9
:100C7000351F21503040F9014081542F40E0FD01E3
:100C800027853089FD0163857485260F371F225023
:100C90003040F901208130E0420F531F041715073F
:100CA00011F003E125C11F96ED91FC915097018150
:100CB000003139F01F96ED91FC915097018106307B
:100CC00039F5FD0103851485083020E01207B1F1E4
:100CD000FD0123853485FD0107851089F801868192
:100CE00090E009962817390789F41F96ED91FC9139
:100CF0005097268130E0FD0107851089F8010581B4
:100D000010E0000F111F20173107C1F009E1F0C0FA
:100D1000FD0103851485083020E0120779F0FD01FC
:100D200023853485FD0107851089F801828190E0D3
:100D300005962817390711F008E1DAC0FD0103858F
:100D40001485083020E01207D1F41F96ED91FC9134
:100D500050970181003139F01F96ED91FC91509729
:100D60000181063011F400E0C3C01F96ED91509749
:100D70008D01C1D0FD010587168700E0B9C01F961F
:100D8000ED91FC9150970181003141F01F96ED915A
:100D9000FC9150970181063009F053C01F96ED91E8
:100DA000FC9150978281982F80E0FD010785108982
:100DB000F801038110E0800F911FFD010785108964
:100DC000F8014480542C4424FD0107851089F80162
:100DD000058110E0400E511E07E0602E7724882424
:100DE00025C0FD0101891289060D171DF80120811A
:100DF000322F20E001E0600E00E0701EFD0101894D
:100E00001289060D171DF801008110E0200F311F17
:100E100001E0600E00E0701E99248C01080D191D80
:100E2000FD0144815581FA01099583949924841424
:100E30009504B8F28D015FD0FD010587168700E0AB
:100E400057C01F96ED91FC9150970081FD011681CE
:100E5000011711F00CE14CC01F96ED91FC915097D9
:100E6000228130E0FD01008510E0000F111F2017E6
:100E7000310711F00EE13CC003E0802E9924FD0102
:100E800081859285FD0107851089F801028142E084
:100E90000E94C01A402E5524662425C0FD010785F6
:100EA0001089080D191DF8012081322F20E001E082
:100EB000800E00E0901EFD0107851089080D191DA8
:100EC000F801008110E0200F311F01E0800E00E0EA
:100ED000901E77248C01060D171DFD01448155815C
:100EE000FA0109956394772464147504B8F200E05C
:100EF000EAE00C94831D0E94741DD8011F96ED91A9
:100F0000FC9150970181003109F057C01F96ED9177
:100F1000FC9150972081FD0101891289F8012083FD
:100F20001F96ED91FC9150972181FD010189128955
:100F3000F80121831F96ED91FC9150972281FD01CC
:100F400001891289F80122831F96ED91FC91509737
:100F50002381FD0101891289F80123831F96ED91F8
:100F6000FC9150972481FD0101891289F8012483A5
:100F70001F96ED91FC9150972581FD010189128901
:100F8000F801258326E030E0FD01018912890E94E5
:100F90007D09C80140E051E08C010E94E21AFD0188
:100FA00001891289F8014683892FFD01A189B2893F
:100FB00017968C9308E010E08FC01F96ED91FC917E
:100FC00050970181033009F085C01F96ED91FC9187
:100FD00050976280762C6624FD0107851089F80100
:100FE000038110E0600E711EFD0107851089F80174
:100FF000A580BB24FD0107851089F8012081FD0132
:1010000001891289F8012083FD0107851089F80103
:101010002181FD0101891289F8012183FD010785E4
:101020001089F801158102E0109FFD0101891289E4
:10103000F801028203E0402E882425C09924830110
:10104000080D191DFD0122813381F9010995C8019F
:101050008C01012F202FFD01018912895524040DD7
:10106000151DF8012083439440E051E08C010E945B
:10107000E21AFD01018912895524040D151DF8019C
:1010800040834394839499248A149B04B8F2242DBA
:1010900030E0FD01018912890E947D09C80140E00C
:1010A00051E08C010E94E21AFD0101891289552448
:1010B000040D151DF80140834394892FFD0101891A
:1010C00012895524040D151DF80180834394042DC5
:1010D00010E002C00AEF10E0ECE00C94811D0E94C9
:1010E000761DD801FD01078100FF4AC0FD01268160
:1010F000FD0101891289F801208323E0FD010189A6
:101100001289F8012183FD011285012F202FFD0195
:1011100001891289F8012283FD010185128540E0D1
:1011200051E00E94E21AFD0101891289F80143830E
:1011300020E0FD0101891289F8012483FD01208549
:10114000FD0101891289F801258326E030E0FD01C7
:10115000018912890E947D09C80140E051E08C019B
:101160000E94E21AFD0101891289F8014683892F44
:10117000FD01A189B28917968C9308E010E0BAC0EE
:10118000FD012681FD0101891289F801208320E1FA
:10119000FD0101891289F8012183FD011285012FCA
:1011A000202FFD0101891289F8012283FD010185AB
:1011B000128540E051E00E94E21AFD010189128986
:1011C000F801438320E0FD0101891289F80124839D
:1011D000FD01008542E00E94C01A5196ED91FC91FC
:1011E00052970583FD012085FD0101891289F801CF
:1011F00026835196ED91FC9152976580772407E004
:10120000402E5524FD012281338100E010E020179B
:101210003107A1F1882499248614970408F046C068
:10122000FD0101851285080D191DFD012281338103
:10123000F9010995C8018C01012F202FFD010189B9
:101240001289040D151DF801208301E0400E00E015
:10125000501E40E051E08C010E94E21AFD0101891C
:101260001289040D151DF801408301E0400E00E0D5
:10127000501E01E0800E00E0901ECECF20E0FD0168
:1012800001891289040D151DF801208301E0400E2B
:1012900000E0501E20E0FD0101891289040D151D9A
:1012A000F801208301E0400E00E0501E9201FD0194
:1012B000018912890E947D09C80140E051E08C013A
:1012C0000E94E21AFD0101891289040D151DF80121
:1012D000408301E0400E00E0501E892FFD0101898E
:1012E0001289040D151DF801808301E0400E00E015
:1012F000501E8201EAE00C94831D7B2F0A2ED80138
:101300000FEF1FEF29C0602F4C91642744E00E942B
:10131000DC1A462F50E04F705070440F551FFA01F1
:10132000E457FF4F4591549104271527602F4C91A6
:1013300042954F70642744E00E94DC1A462F50E02B
:101340004F705070440F551FFA01E457FF4F4591FD
:101350005491042715271196A9019A012150304074
:10136000452B89F6A02DB72F089500E010E09D9938
:10137000139510FB07F910E09C99139510FB06F9E3
:1013800010E09B99139510FB05F910E09A991395BD
:1013900010FB04F910E09999139510FB03F910E084
:1013A0009899139510FB02F910916300212F21FBEE
:1013B00020E020F920FB01F910916300212F21701A
:1013C00020FB00F9089500E010E0B699139510FB9A
:1013D00007F910E0B499139510FB06F908958A9364
:1013E000802F102F1F73103110F000E075C087FBA5
:1013F000E6F40F73802F80FB66F042E0082F0E9416
:10140000C01A10E0F801E35BFA4F0081007F00830F
:1014100062C042E0082F0E94C01A10E0F801E35BAE
:10142000FA4F00810F70008356C086FB16F50F73CC
:10143000802F80FB5EF042E0082F0E94C01A10E06F
:10144000F801E35BFA4F80818F700DC042E0082FF6
:101450000E94C01A10E0F801E35BFA4F008140E1FE
:101460000E94C01A802F8B3010F001E035C000E0E0
:1014700033C0802F8F7300FBC6F042E0082F0E941C
:10148000C01A10E0F801E35BFA4F00810F700F30D3
:1014900010F542E0082F0E94C01A10E0F801E35B4B
:1014A000FA4F00810395008316C042E0082F0E9486
:1014B000C01A10E0F801E35BFA4F0081003F58F4D6
:1014C00042E0082F0E94C01A10E0F801E35BFA4FD7
:1014D0000081005F008300E0899108950E947B1DD8
:1014E00080E0A0E090E04424B0E03FDF00934905B5
:1014F0006ADF00934A0580E00CC0A0E03A2F90E03C
:10150000FC01E455FF4F249107EA15E00E94BB154A
:101510008395803188F548E0082F0E94C01AA02FDB
:1015200048E0082F0E94C01A942FB0E0FD01E75B4D
:10153000FA4F4080492F01E010E00E94D61A402265
:10154000B0E0FD01E55BFA4FB081492F01E010E00A
:101550000E94D61AB023B41519F4082F40DF03C037
:10156000082F00683CDF082F006439DF013080F26B
:10157000BB2319F6A1E0C2CF0091490500934B05AA
:1015800000914A0500934C050091A7051091A8050C
:101590000093CB051093CC05E5E00C94881DAC01BD
:1015A0009801890101501040232B41F080E090E028
:1015B000843F21E09207A0F70196FACFCA0108956F
:1015C00008EE13E0ECDFEBE2F3E000810F7700833D
:1015D0000BE213E00E94EB014BE253E020E330E02A
:1015E00005E515E00E940302EBE2F3E0008107FF4E
:1015F0001FC025E535E0EBE2F3E000810F770083C3
:1016000040E014C050E007E010E00E94CE1AF8015C
:10161000EE5BFD4F60817181042F10E0000F111F00
:10162000F901E00FF11F608371834395483150F356
:101630000BE213E00E94F50100E010E00093C90501
:101640001093CA052BE735E00DEC15E00E94F0126F
:1016500008EC10E000938F051093900500E010E077
:101660000093A9051093AA050895F80124813581F6
:10167000232B19F421E030E002C020E030E0422FBB
:10168000242F2170F801EC58FF4F20FB208121F915
:101690002083F80124813581213040E0340719F49A
:1016A00021E030E002C020E030E0422F242F217002
:1016B000F801EC58FF4F20FB208122F92083F8012C
:1016C00024813581223040E0340719F421E030E0F4
:1016D00002C020E030E0422F242F2170F801EC58A6
:1016E000FF4F20FB208123F92083F80122813381E1
:1016F000232B19F421E030E002C020E030E0422F3B
:10170000242F2170F801EC58FF4F20FB318131F973
:101710003183F80122813381213040E0340719F40C
:1017200021E030E002C020E030E0422F242F217081
:10173000F801EC58FF4F20FB318130F93183F8017B
:1017400022813381223040E0340719F421E030E077
:1017500002C020E030E0422F242F2170F801EC5825
:10176000FF4F20FB208127F92083F801228133815C
:10177000233040E0340719F421E030E002C020E0DB
:1017800030E0422F242F21700C581F4FF80120FB0E
:10179000008106F900830895BA93AA93F801DF0146
:1017A000AC58BF4F0C910170DF01AC5ABF4F11967E
:1017B0001C911170011709F449C0DF01AC58BF4FEB
:1017C0000C910170DF01AC5ABF4F00FB11961C91C8
:1017D00010F91C93028D138DDF01AC59BF4F0D938F
:1017E0001C93008D118DDF01A05ABF4F0D931C93E8
:1017F00006891789DF01AE59BF4F0D931C930CE288
:1018000011E0DF01A25ABF4F0D931C93DF01AC58CA
:10181000BF4F0C9100FD1AC044A155A104E610E091
:101820000E94CE1A20E030E0DF01A659BF4F0D9391
:101830001D932D933C9300E010E020E030E0DF01A9
:10184000AA57BF4F0D931D932D933C93048115818F
:10185000DF01A65ABF4F2D913C910217130771F07B
:1018600004811581DF01A65ABF4F0D931C93028D91
:10187000138DDF01AC59BF4F0D931C93028113816F
:10188000DF01A85ABF4F2D913C910217130771F049
:1018900002811381DF01A85ABF4F0D931C93008D65
:1018A000118DDF01A05ABF4F0D931C930081118150
:1018B000DF01AA5ABF4F2D913C910217130771F017
:1018C00000811181DF01AA5ABF4F0D931C93068935
:1018D0001789DF01AE59BF4F0D931C93DF01AE5A3C
:1018E000BF4F11960C9105FF19C0DF01AC5ABF4FD5
:1018F00011960C9105FD12C0DF01AC5ABF4F119635
:101900000C9100620C930085118500831183DF0127
:10191000AC58BF4F0C9101600C9329C0DF01AE5A47
:10192000BF4F11960C9105FD22C0DF01AC5ABF4F8D
:1019300011960C9105FF1BC0DF01AC5ABF4F1196E9
:101940000C910F7D0C93DF01AE5ABF4F11960C9195
:1019500006FD0DC0DF01AE5ABF4F11960C9107FD79
:1019600006C0DF01AC58BF4F0C910E7F0C93DF0116
:10197000AE5ABF4F11960C9106FF19C0DF01AC5A49
:10198000BF4F11960C9106FD12C0DF01AC5ABF4F3C
:1019900011960C9100640C930285138500831183CA
:1019A000DF01AC58BF4F0C9101600C9329C0DF01DF
:1019B000AE5ABF4F11960C9106FD22C0DF01AC5A02
:1019C000BF4F11960C9106FF1BC0DF01AC5ABF4FF1
:1019D00011960C910F7B0C93DF01AE5ABF4F1196FD
:1019E0000C9105FD0DC0DF01AE5ABF4F11960C9151
:1019F00007FD06C0DF01AC58BF4F0C910E7F0C9362
:101A0000DF01AE5ABF4F11960C9107FF19C0DF01DD
:101A1000AC5ABF4F11960C9107FD12C0DF01AC5AB2
:101A2000BF4F11960C9100680C93048515850083B7
:101A30001183DF01AC58BF4F0C9101600C9329C09A
:101A4000DF01AE5ABF4F11960C9107FD22C0DF0196
:101A5000AC5ABF4F11960C9107FF1BC0DF01AC5A67
:101A6000BF4F11960C910F770C93DF01AE5ABF4F09
:101A700011960C9105FD0DC0DF01AE5ABF4F1196B6
:101A80000C9106FD06C0DF01AC58BF4F0C910E7FD4
:101A90000C938F01EADDA991B99108950C01F80129
:101AA000E05AFF4F20813181232B49F0F801E05AA1
:101AB000FF4F208131812150304020833183F80154
:101AC000EE59FF4F20813181232B49F0F801EE5967
:101AD000FF4F208131812150304020833183F80134
:101AE000EC59FF4F20813181232B49F0F801EC594B
:101AF000FF4F208131812150304020833183F80114
:101B0000EA59FF4F20813181232B49F0F801EA592E
:101B1000FF4F20813181215030402083318320913B
:101B2000460530914705232B41F0E6E4F5E020819E
:101B30003181215030402083318320912B0330911B
:101B40002C0320703F7F232B41F0EBE2F3E0208158
:101B500031812050314020833183F801E457FF4F19
:101B600080819181813090404CF0F801E457FF4F23
:101B7000208131812150304020833183F801E659A2
:101B8000FF4F4081518162817381452B462B472B4A
:101B900079F0F801E659FF4F4081518162817381EC
:101BA0004150504060407040408351836283738352
:101BB000F801E259FF4F4081518162817381452BC9
:101BC000462B472B79F0F801E259FF4F40815181B4
:101BD0006281738141505040604070404083518326
:101BE00062837383F801E25AFF4F20813181232BF6
:101BF00049F0025A1F4FF801008111810150104035
:101C000000831183C0010895F801EC58FF4F208133
:101C100020FD12C0F801EC58FF4F21812B7F21835A
:101C2000F801EC58FF4F2181277F2183F801EC5800
:101C3000FF4F21812F7E2183F801EA58FF4F208139
:101C400027FF0AC0F801EC58FF4F208120FF04C095
:101C50001F9A1E981D9827C0F801EC58FF4F21814C
:101C600022FF02C021E001C020E020FB23B127F9C0
:101C700023B9F801EC58FF4F218123FF02C021E076
:101C800001C020E020FB23B126F923B9F801EC586C
:101C9000FF4F218124FF02C021E001C020E020FB92
:101CA00023B125F923B9F801EC58FF4F218126FF14
:101CB00002C021E001C020E020FB23B123F923B9B9
:101CC0000C581F4FF801018105FF02C001E001C05F
:101CD00000E000FB03B104F903B90895F80122A95B
:101CE00033A9232B39F020E030E0F80122AB33ABED
:101CF0000FE001BD0895B09929C00091EC050130B5
:101D0000D9F401E01091EF0510271093EF05EFEEE5
:101D1000F5E0008100FDC49A00FFC4980091EC0535
:101D200003950093EC05EDEEF5E0008111810F5F66
:101D30001F4F0083118308950091EC050A3048F489
:101D40000091EC0503950093EC05089500E00093E5
:101D5000EC050895F801E45AFF4F218120FF2EC0C1
:101D6000F801EE59FF4F20813181232B41F4F80116
:101D700020813181F801EC57FF4F20833183F80136
:101D8000EC59FF4F20813181232BC1F4F801EC582D
:101D9000FF4F208121FF06C0F801EE56FF4F208142
:101DA00022602083F801EC58FF4F208122FF06C0FB
:101DB0000E561F4FF80100810D7F008308950E9489
:101DC000781DD801FD01EE57FF4F80819181FD0103
:101DD000E45AFF4F018100FF4FC1FD01E05AFF4F60
:101DE00000811181012B09F047C18B3000E0900781
:101DF0000CF42BC18D3201E0900714F48CE291E0D9
:101E0000FD01EC58FF4F018101FF69C0AC01652F56
:101E1000660F660B762FFD0102891389FD01248967
:101E20003589021B130B20E030E00E940E1B44E6B4
:101E300050E060E070E00E94361B2801FD014489FB
:101E400055890AE010E00E94CE1A400E511EFD0195
:101E500044AA55AAFD0100A111A10817190798F07D
:101E6000FD01EC58FF4F018100610183FD01EC5839
:101E7000FF4F0181077F0183AC58BF4F11960C9132
:101E80000B7F0C93F9C0FD01068D178D08171907FC
:101E900098F0FD01EC58FF4F01810F7E0183FD0199
:101EA000EC58FF4F018108600183AC58BF4F119679
:101EB0000C910B7F0C93E0C0FD01EC58FF4F0181AA
:101EC0000F7E0183FD01EC58FF4F0181077F0183E5
:101ED000AC58BF4F11960C9104600C93CDC0FD011E
:101EE000EC58FF4F008106FF36C008EE13E020E0FB
:101EF00030E0FD0142895389FD0164897589461BE3
:101F0000570B60E070E00E940E1B44E650E060E07A
:101F100070E00E94361B2801FD01448955890AE0C2
:101F200010E00E94CE1A400E511EFD0144AA55AA8F
:101F3000FD01EC58FF4F01810F7E0183FD01EC583C
:101F4000FF4F0181077F0183AC58BF4F11960C9161
:101F500004600C9391C0FD01EC58FF4F008107FF16
:101F600037C0FD01468D578D60E070E0FD010289AC
:101F70001389FD0124893589021B130B20E030E011
:101F80000E940E1B44E650E060E070E00E94361BA9
:101F90002801FD01448955890AE010E00E94CE1A0B
:101FA000400E511EFD0144AA55AAFD01EC58FF4FF9
:101FB00001810F7E0183FD01EC58FF4F0181086014
:101FC0000183AC58BF4F11960C910B7F0C9354C0FA
:101FD000FD01EC58FF4F018100FF4EC0FD0140A103
:101FE00051A160E070E0FD0102891389FD0124899F
:101FF0003589021B130B20E030E00E940E1B44E6E3
:1020000050E060E070E00E94361B2801FD01448929
:1020100055890AE010E00E94CE1A400E511EFD01C3
:1020200044AA55AAFD01EC58FF4F018100610183CC
:10203000FD01EC58FF4F0181077F0183AC58BF4F72
:1020400011960C910B7F0C9317C000E010E0FD017E
:1020500004AB15ABFD01EC58FF4F01810F7E0183EE
:10206000FD01EC58FF4F0181077F0183AC58BF4F42
:1020700011960C910B7F0C93E8E00C94851D0E9447
:102080007A1DD801FD01E45AFF4F018101FFA1C073
:102090008091EA059091EB050196FD01EE57FF4F07
:1020A000008111812801FD0144A155A108EE13E032
:1020B0000E94E21AA80182010E94E21A000F111F79
:1020C00080179107F8F40091EA051091EB05FD01E6
:1020D00024A135A10217130740F4EAEEF5E00081D0
:1020E00011810F5F1F4F00831183FD01EC58FF4FDB
:1020F000018100620183FD01EC58FF4F01810F7BDC
:10210000018342C0FD01EE57FF4F00811181C801DC
:10211000FD0144A155A108EE13E00E94E21AA801B6
:102120008C010E94E21A000F111F8091EA05909124
:10213000EB05019708171907D8F4E091EA05F0912B
:10214000EB05329740F0EAEEF5E000811181015095
:10215000104000831183FD01EC58FF4F01810F7D7A
:102160000183FD01EC58FF4F0181006401830CC025
:10217000FD01EC58FF4F01810F7D0183FD01EC58FB
:10218000FF4F01810F7B0183FD0102891389FD014E
:1021900024893589021B130B20E030E0EAE1F6E0E8
:1021A00040815181628173810E940E1B44E650E0A0
:1021B00060E070E00E94361B9801FD01448955895A
:1021C0000AE010E00E94CE1A200F311FFD0126AB5D
:1021D00037ABE6E00C94871DF801E45AFF4F2181EC
:1021E00021FF79C0F801E259FF4F4081518162819E
:1021F0007381452B462B472B51F12091EA053091F5
:10220000EB05F80144A155A12417350740F4EAEE87
:10221000F5E0208131812F5F3F4F2083318340E003
:1022200050E060E070E0F801E659FF4F40835183D1
:1022300062837383F801EC58FF4F21812062218370
:102240000C581F4FF80101810F7B01830895F8019D
:10225000E659FF4F4081518162817381452B462BA6
:10226000472B31F12091EA053091EB05232B41F00A
:10227000EAEEF5E020813181215030402083318326
:1022800040E050E060E070E0F801E259FF4F408329
:10229000518362837383F801EC58FF4F21812F7DB6
:1022A00021830C581F4FF8010181006401830895B8
:1022B0002091E905213019F422E02093E905F80185
:1022C000EC58FF4F21812F7D21830C581F4FF801BF
:1022D00001810F7B01830895BA93AA93D8010091DD
:1022E000E905005069F00A9509F461C00A9509F4FE
:1022F0008EC00A9509F4C6C00A9509F41CC16DC1C7
:10230000FD01EC58FF4F00810E7F0083FD01EC586A
:10231000FF4F01810B7F0183FD01EC58FF4F0181CD
:10232000077F0183FD01EC58FF4F01810F7E018380
:10233000FD01EC58FF4F018100620183FD01EC5863
:10234000FF4F01810F7B018300E010E0FD0104AB32
:1023500015AB00E010E0FD0106AB17AB00E010E0AC
:1023600020E030E0FD01EA57FF4F00831183228314
:102370003383FD0144A155A104E610E00E94CE1A6A
:1023800020E030E0FD01E259FF4F008311832283FA
:10239000338300E010E020E030E0A659BF4F0D93FA
:1023A0001D932D933C9301E00093E90516C1FD01B7
:1023B000E45AFF4F018101FF10C1FD01EC58FF4FAE
:1023C00001810B7F0183FD01EC58FF4F0181077FE5
:1023D0000183FD01EC58FF4F01810F7E018300E076
:1023E00010E0FD0104AB15AB00E010E0FD0106AB11
:1023F00017AB00E010E020E030E0FD01EA57FF4FAE
:1024000000831183228333838D01E6DEE6C0FD0164
:10241000E25AFF4F00811181012B09F0DEC0FD015E
:10242000EC58FF4F01810B7F0183FD01EC58FF4FFA
:102430000181077F0183FD01EC58FF4F01810F7E71
:10244000018300E010E0FD0104AB15AB00E010E0FB
:10245000FD0106AB17AB00E010E020E030E0FD012D
:10246000EA57FF4F0083118322833383FD01EC5829
:10247000FF4F008100FF03C003E00093E9058D01D9
:10248000ABDEABC08D0166DC8D0108581F4F0E948A
:102490001C138D0194DC8D01F2DDFD01EC58FF4F22
:1024A000008100FD1EC002E00093E90500E010E09D
:1024B00020E030E0FD01E259FF4F008311832283C9
:1024C0003383FD0144A155A104E610E00E94CE1A19
:1024D00020E030E0A659BF4F0D931D932D933C9300
:1024E0007CC0FD01E057FF4F408151810EE110E0BB
:1024F0000E94CE1A44E650E00E94FA1AFD01EE57FF
:10250000FF4F20813181021713070CF066C0409104
:10251000790550917A0504E610E00E94CE1A20E079
:1025200030E0A259BF4F0D931D932D933C9304E0CF
:102530000093E90552C08D010DDC8D0108581F4F35
:102540000E941C13FD01EC58FF4F008100FD1EC0CE
:1025500002E00093E90500E010E020E030E0FD013A
:10256000E259FF4F0083118322833383FD0144A18D
:1025700055A104E610E00E94CE1A20E030E0FD01F3
:10258000E659FF4F0083118322833383FD01E05717
:10259000FF4F408151810EE110E00E94CE1A44E6C7
:1025A00050E00E94FA1AFD01EE57FF4F2081318161
:1025B0000217130774F000E010E020E030E0FD01A6
:1025C000E259FF4F008311832283338303E000939A
:1025D000E9058D0101DE8D01F2DBA991B991089524
:1025E0000E947C1DD801C90148EE53E020E030E094
:1025F0008D01F2D1FC0106811781FD01068317834D
:10260000FC010085FD01038FFC0164817581FC01E3
:1026100042815381FC01208131818D0190D1FD01E6
:10262000068117814AE050E00E94FA1AFD01048BEE
:10263000158BE4E00C94891D0E94781DD801FD01E2
:1026400004891589012B11F000E076C1FD01068196
:102650001781212F220F220B322F0E94BB1B40E03B
:1026600050E06AE774E40E94EF1C280139010091F0
:102670007B0510917C050D931C93119700917D05AE
:1026800010917E05212F220F220B322F0E94BB1B9F
:10269000A201B3010E94761C0E94C61BFD010283A9
:1026A000138300917F0510918005212F220F220BAB
:1026B000322F0E94BB1BA201B3010E94EF1C0E949B
:1026C000C61BFD010483158300918305FD01038F63
:1026D000FD01068117814AE050E00E94FA1AFD01CF
:1026E000048B158B00918D0510918E05FD010087DF
:1026F0001187FD0180859185FD0104851585801B6D
:10270000910B8C01FD01228D21FD04C091958195D5
:1027100090408C0111238AF4119501951040FD0120
:10272000238D30E020173107C4F0FD0100851185AD
:10273000FD01028B138B02E0FFC0FD01238DE22F10
:10274000F0E03197E017F10744F0FD0100851185B5
:10275000FD01028B138B02E0EFC0FD0102811381AA
:10276000AC010E94CE1A212F220F220B322FFD0125
:102770004685578560897189400F511F621F731FFD
:1027800046875787608B718BFD01408C518C652C7F
:10279000660C6608762CFD0106851785208931892F
:1027A00044E650E060E070E00E94591B401651067C
:1027B000620673069CF4FD01008D118D212F220FFE
:1027C000220B322F44E650E060E070E00E940E1BC6
:1027D000FD0106871787208B318B27C0FD010685F9
:1027E00017852089318944E650E060E070E00E945E
:1027F000591BFD0146895789652F660F660B762F99
:10280000041715072607370784F4FD014689578901
:1028100004E610E00E94CE1A212F220F220B322F45
:10282000FD0106871787208B318BFD014289538973
:10283000FD0100851185401B510B652F660F660B4E
:10284000762FFD01028D01FD07C0509560957095B2
:1028500041955F4F6F4F7F4F2D913C9111978C01A8
:10286000222431023001209F200130037208500CD5
:10287000611C721C12037208500C611C721CFD0159
:102880000685178520893189400E511E621E731EF0
:10289000FD0104801580212C220C2208322C8A0193
:1028A0009B01A001B1010E940E1BA801B901820188
:1028B0009301041B150B260B370B44E650E060E038
:1028C00070E00E94591BFD01408D518D652F660FF0
:1028D000660B762F401751076207730744F4FD011A
:1028E000008D118D212F220F220B322F13C0FD01DD
:1028F00046895789652F660F660B762F04171507D3
:10290000260737073CF4FD0106891789212F220F7E
:10291000220B322F332322F0FD010287138705C0DB
:1029200000E010E0FD0102871387FD01008511859D
:10293000FD01028B138B01E0E8E00C94851D0E94E1
:10294000741D280159013A014B01BB2022F0772068
:1029500012F099200AF43DC0F201A082B182F20186
:1029600062827382F20184829582F201068117816C
:10297000212F220F220B322F0E94BB1B40E050E080
:102980006AE774E40E94EF1CC801D901F201A08239
:10299000B1828301212F220F220B322F0E94BB1BF9
:1029A000AC01BD010E94761C0E94C61BF20102838D
:1029B00013838401212F220F220B322F0E94BB1B75
:1029C000AC01BD010E94EF1C0E94C61BF2010483F2
:1029D0001583ECE00C94811D0E94781DD80124170A
:1029E00035070CF074C0FD01268B378BFD01408F3D
:1029F000518FFD01008D118DFD0122853385021758
:102A000013073CF4FD01008D118DFD010287138732
:102A10000FC0FD0102851385FD0126893789021744
:102A2000130734F4FD0106891789FD010287138716
:102A3000FD01408C518C652C660C6608762CFD01DE
:102A4000068517852089318944E650E060E070E012
:102A50000E94591B40165106620673068CF4FD0154
:102A6000408D518D04E610E00E94CE1A212F220FD6
:102A7000220B322FFD0106871787208B318B27C051
:102A8000FD01068517852089318944E650E060E024
:102A900070E00E94591BFD0146895789652F660F1A
:102AA000660B762F041715072607370784F4FD01F8
:102AB0004689578904E610E00E94CE1A212F220F82
:102AC000220B322FFD0106871787208B318BE8E020
:102AD0000C94851D01E80FBD02E00EBD02E605BDA8
:102AE000089516950795169507951BBD0ABD08957F
:102AF000169507951695079503BD0895BA93AA9361
:102B0000D801FD01EC58FF4F008100FF2BC0FD01F3
:102B100004A915A92091F0053091F10502171307BA
:102B200059F0FD0104A915A9DCDFFD0104A915A9CF
:102B30000093F0051093F105FD0106A917A9209156
:102B4000F2053091F3050217130791F0FD0106A974
:102B500017A9CEDFFD0106A917A90093F20510936E
:102B6000F30506C000E010E0BCDF00E010E0C0DFCD
:102B7000A991B99108950E947A1DD801922F832FAF
:102B800048E0092F0E94C01A402E48E0092F0E94F9
:102B9000C01A813060F001E010E00E94D61A55247E
:102BA000A40DB51DFD011081102B10830BC001E099
:102BB00010E00E94D61A00955524A40DB51D1C9155
:102BC00010231C93E6E00C94871D00E00895083163
:102BD00020E0120748F4E5E5F5E0000F111FE00FD3
:102BE000F11F008111810895083120E0120770F073
:102BF0000D3120E0120750F4E7E8F5E0000F111F57
:102C0000E00FF11FF0970081118108950D3120E050
:102C1000120729F40091EE021091EF0208950E318F
:102C200020E0120770F00C3220E0120750F4EDECB7
:102C3000F5E0000F111FE00FF11FFC9700811181DB
:102C400008950D3220E0120769F40AE010E0409187
:102C5000EA055091EB050E94CE1A49E050E00E942F
:102C6000E21A08950E3220E0120729F4EAEEF2E0AB
:102C70000081118108950F3220E0120729F400919C
:102C80002306109124060895003320E0120729F44A
:102C9000EAE1F6E0008111810895043620E0120790
:102CA00029F40091C9051091CA050895053620E060
:102CB000120729F40091CB051091CC05089500E08E
:102CC00010E00895402F412B89F4E3E9F5E0000F6F
:102CD000111FE00FF11F20833183009155051091E2
:102CE000560500939505109396050895013040E030
:102CF000140791F4EBE9F5E0000F111FE00FF11F4D
:102D00003297208331830091570510915805009325
:102D10009D0510939E050895023040E0140791F43C
:102D2000E7E9F5E0000F111FE00FF11F3497208352
:102D300031830091590510915A050093990510931C
:102D40009A050895033040E0140770F0083140E020
:102D5000140750F4EBE5F5E0000F111FE00FF11F31
:102D60003697208331830895083140E0140770F0CE
:102D70000D3140E0140750F4E7E8F5E0000F111FB3
:102D8000E00FF11FF0972083318308950D3140E06B
:102D9000140729F42093EE023093EF0208950E32C7
:102DA00040E0140751F4A90160E070E0EAEEF2E0BF
:102DB00040835183628373830895003340E0140796
:102DC00051F4A90160E070E0EAE1F6E0408351834C
:102DD000628373830895043640E01407C1F4EFE979
:102DE000F5E0422F242F21703070000F111FE00FEB
:102DF000F11FE85CF04020833183E9ECF5E00081CD
:102E0000017010700093A1051093A2050895053676
:102E100040E0140751F4EBECF5E0000F111FE00F58
:102E2000F11FEA5CF04020833183089525EE35E1FF
:102E3000F8012083318327EE35E1F80122833383C3
:102E400022E636E1F801248335830895063020E038
:102E5000120729F400918D0510918E050895073011
:102E600020E0120729F4009163051091640508958C
:102E7000083020E0120729F40091650510916605DD
:102E80000895093020E0120729F40091710510918E
:102E9000720508950A3020E0120799F40091930515
:102EA000109194052091950530919605021713070E
:102EB00029F00091930510919405089500E010E029
:102EC00008950B3020E0120799F400919B051091B2
:102ED0009C0520919D0530919E050217130729F04E
:102EE00000919B0510919C05089505E010E0089560
:102EF0000C3020E0120799F4009197051091980585
:102F00002091990530919A050217130729F0009135
:102F1000970510919805089505E010E008950D308B
:102F200020E0120799F4EFE9F5E000810170E1EA91
:102F3000F5E010811170011731F0EFE9F5E0008143
:102F400001701070089505E010E0089500E010E0B1
:102F50000895033040E0140708F042C0E5E5F5E0CD
:102F6000000F111FE00FF11F2083318300915505E1
:102F7000109156052091930530919405021713077F
:102F800041F4009155051091560500939505109355
:102F90009605009157051091580520919B05309199
:102FA0009C050217130741F400915705109158052D
:102FB00000939D0510939E050091590510915A05A7
:102FC00020919705309198050217130771F500912C
:102FD000590510915A050093990510939A05089583
:102FE000033040E0140709F5E9ECF5E0422F242F07
:102FF0002170000F111FE00FF11F369720FB008199
:1030000000F90083E9ECF5E000810170EFE9F5E0FB
:1030100010811170011749F4E9ECF5E000810170AD
:1030200010700093A1051093A205089525EE35E1D7
:10303000F8012083318326E237E1F80122833383CC
:1030400029EA37E1F801248335830895F901EA5F1D
:10305000FE4F408150E0F80143875487A9014C5F3F
:103060005F4FF8014787508B2C5F3F4FF801218B52
:10307000328B20E030E0F801258736870895BA9337
:10308000AA93F801D90105851685012B39F04585EC
:103090005685218932898D010E94C30400E0FD011B
:1030A000E35FFE4F008300E0AA5FBE4F0C93A9913F
:1030B000B9910895BA93AA93F801D90105851685A7
:1030C000012B39F045855685218932898D010E9471
:1030D0003A0500E0FD01E35FFE4F008300E0AA5FD8
:1030E000BE4F0C93A991B991089504EF15E09EDEAF
:1030F0002DE233E004EF15E0A9DF089507E016E0C4
:1031000095DF2BE334E007E016E0A0DF0895BA93E3
:10311000AA93ADE2B3E0FD01E35FFE4F008102FF41
:1031200018C09D0104EF15E091DF04EF15E00E9447
:10313000ED0500931E069D0104EF15E0A0DFFD01E3
:10314000E35FFE4F00810B7F008300E0AA5FBE4F6C
:103150000C93A991B99108959A938A938BE394E083
:10316000FC01E35FFE4F008102FF11C09C0107E0FC
:1031700016E06CDF07E016E00E94ED0500931E06E6
:103180009C0107E016E096DF00911E0601C00DE1EC
:103190008991999108959A938A938BE394E0FC0125
:1031A000E55FFE4F00811181012BE9F502E310E09C
:1031B000FC01E55FFE4F008311832DE036E0FC014A
:1031C000E85FFE4F408150E005E010E00E94CE1A1B
:1031D0006CEB70E0600F711F8901FB0145E050E06E
:1031E0000E94691DFC01E85FFE4F00810395FC0110
:1031F000E85FFE4F0083023028F000E0FC01E85F4A
:10320000FE4F00839C0107E016E020DF07E016E098
:103210000E946F0800931406109315069C0107E0A6
:1032200016E048DF01C098DF89919991089500E088
:103230000ABB00E00BBB00EB07BB0FE508BB00E0DF
:1032400004BB0FEF05BB0AE001BB0CE002BB0EEFB5
:1032500002B903E003B900E40093610000EB0093BE
:10326000620000E0009364000FEF00936500089592
:1032700003E003BF07B7016007BF03E802BF78940C
:1032800008952A931A930A931FB72BB703E802BF36
:1032900000911F06039500931F06009122060395D7
:1032A000009322062BBF1FBF0991199129911895F0
:1032B0002A931A930A931FB72BB700EE0DBD0FEB9D
:1032C0000CBD2BBF1FBF0991199129911895BA9375
:1032D000AA93D80100911F06043008F479C000E0D9
:1032E00000931F06FD01E45AFF4F00810062008336
:1032F000E0E2F6E0008111810F5F1F4F0083118330
:10330000E0E2F6E0008100FD0CC0FD01E45AFF4F51
:10331000018100610183FD01E45AFF4F00810064D7
:10332000008344E150E000912006109121060E94A4
:10333000E21A452B31F4FD01E45AFF4F018101608F
:10334000018345E050E000912006109121060E9483
:10335000E21A452B31F4FD01E45AFF4F0081006869
:10336000008344EF51E000912006109121060E9455
:10337000E21A452B31F4FD01E45AFF4F018102604E
:10338000018348E853E100912006109121060E9434
:10339000E21A452B31F4FD01E45AFF4F018104602C
:1033A000018305E010E04091EE025091EF020E948F
:1033B000CE1AA80100912006109121060E94E21A5F
:1033C000452B31F4A45ABF4F11960C9108600C9311
:1033D000A991B99108959A938A9329DF49DF0E94B0
:1033E000E6020E94F6020E9403030E9411030E945B
:1033F00075180E947E180E9489000E946A150E941A
:10340000E00A05E515E063DF0E9487180E94CB18EB
:1034100005E515E00E94CC0B05E515E00E946E0E57
:1034200005E515E00E946C1105E515E00E94040E0B
:10343000E1EBF5E0008105FF17C001E01091EF0519
:1034400010271093EF05EFEEF5E0008100FDC49A20
:1034500000FFC4980E947B0E0DE213E00E94A905B4
:103460000BE314E00E94A905E1EBF5E0008106FF03
:1034700002C00E946E0AE1EBF5E0008107FF04C084
:1034800005E515E00E944E0DE1EBF5E0018100FF3E
:1034900010C005E515E00E94D70005E515E00E9483
:1034A0007E154BE253E020E330E005E515E00E9495
:1034B0000302E1EBF5E0018102FF11C08091850577
:1034C0009091860520E330E005E515E00E947D0936
:1034D0008017910721F00BE213E00E94F501E1EB68
:1034E000F5E0018103FF23C00CE310E04091ED05FE
:1034F0005091EE050E94CE1A1695079516950795E0
:10350000C80144E650E00091EE021091EF020E94E3
:10351000E21AA8018C010E94E21A0093230610937C
:10352000240600E010E00093ED051093EE0500E0A6
:1035300010E00093B1051093B20563CF00008895A9
:10354000FECF0FE30DBF02E00EBFC0E0D2E00E944D
:10355000921D002311F00E94A41D0E94EB190E94ED
:103560009E1A0C949E1AE199FECF08954F5F5F4F0B
:10357000FADF4EBB5FBBE09A0895FADF0DB3089502
:103580000024E8E0EA9532F0001F001C0416D0F396
:10359000041AF8CF001F402D00950895149F102D98
:1035A000059F100D049F002D110D08954A951AF0E6
:1035B000000F111FFBCF08954A951AF01695079535
:1035C000FBCF089500241124EFE0001F111F001C01
:1035D000111C0416150610F0041A150AEA95AAF72C
:1035E000001F111FA0010095109508955195419558
:1035F00050400895FF27552312F4F160F7DF11239F
:1036000012F4F09507D00E94E21AF0FD03D0F1FD0C
:10361000EDCF089511950195104008952224349F0F
:10362000302D259F300D169F300D079F300D249FA4
:10363000202D310D159F200D311D069F200D311DB0
:10364000149F102D210D321D059F100D211D321DBF
:10365000049F002D110D221D321D08954A952AF058
:103660003695279517950795F9CF089500241124CD
:103670001001E0E2EA9592F0001F111F221F331F94
:10368000001C111C221C331C0416150626063706C6
:1036900088F3041A150A260A370AECCF001F111FF7
:1036A000221F331FA001B101009510952095309580
:1036B0000895FF27772312F4F16015D0332312F415
:1036C000F09509D00E94361BF69508F404D0F695C3
:1036D00008F409C0089530952095109501951F4F65
:1036E0002F4F3F4F089570956095509541955F4FCE
:1036F0006F4F7F4F0895FF27112477FB660F771FC9
:10370000089409F4771F679517F8EE27002437FB14
:10371000220F331F089409F4331F279507F80895E3
:1037200027FD0EC0EE0F001F111F221F3A953230E9
:10373000B8F7332319F427FD31E002C027FF30E04A
:10374000E03821F400FF08940EF488940F4F1F4FC7
:103750002F4F3F4F323038F4332319F427FD31E037
:1037600002C027FF30E03F3F29F0220F000C3795C1
:1037700027950895A7C0032E002012F40E946B1B0A
:10378000E02F012F122F232F3EE9D1CFBEDF432F91
:103790004F5748F04F3148F007FC8EC03FE72FEFFE
:1037A0001FEF0FEF0895332789C0322F212F102FDD
:1037B0000E2F4F5141950E942E1B07FE08950C9429
:1037C0006B1BF901EE0FFF1F37FBFF3F31F0EF2BB3
:1037D000E12BE02B8894B8940895E02BE12B21F0A5
:1037E00008949894B8940895989488943894089577
:1037F000FB01EE0FFF1F77FBFF3F31F0EF2BE52BB7
:10380000E42B8894B8940895E42BE52B69F3E8CF72
:10381000EFDF68F021F43723262F8A010895372F30
:10382000FBCFE6DF20F00BF008957327EAF74EC0D8
:10383000C8DFE8F3B3F361F3DBDFC8F383F3A1F38D
:103840005ADF401751076207730731F4011411F171
:103850000024E89488942BC078F0332E372F732DF2
:10386000322E262F632D312E152F532D302E042F5F
:10387000432D302C012C132C371739F066955795B2
:103880004795F795E0407395F7CFE7FBEE0FE0E043
:1038900010246AF0EF0F041F151F261F60F42795F0
:1038A00017950795E79508F46894339540CFEF0B8B
:1038B000040B150B260B3BCF302D30782227112718
:1038C000002708953FE7302920E8F9CF3FEF2FEF99
:1038D000F6CF8EDFD8F3D1F370783727089588DFDD
:1038E000A8F3A3F3F9CF3078372796CF6ADF70F3C8
:1038F00083F3A9F37DDF50F3B3F3A9F3FCDE0124D6
:10390000E8943F57E040370FEF1F12F0D9F603C09D
:103910003A3E90F26894E0E00A92AA933A93AA277A
:10392000332422243327049FF001059FF00D712DCD
:10393000731F149FF00D711D221C069F700D211C1A
:10394000331C159F700D211C331E249F700D211CEC
:10395000331E169F200C311CAA1F259F200C311CE2
:10396000A31F269F300CA11D39915EF43395A695B7
:10397000379427947795F795E79533953130BCF3D5
:1039800016C0AA2322F0332351F4339510C0339587
:1039900071F4A991099096CFA7FD09C03A95EE0F51
:1039A000FF1F771F221C331CAA1F3230A8F7E89490
:1039B000FE2B09F068942A2F8101E72FA991099025
:1039C000BFCE16DF10F00BF087CF80CF11DFE9F309
:1039D000E0F3032E072670CF032E072673CFF1DE08
:1039E000A0F37BF399F304DF80F39BF3A9F383DE69
:1039F000012427FD06C0000F111F221F3150E04097
:103A0000F8CF67FD06C0440F551F661F7150F04088
:103A1000F8CFE894371BEF0B3158EF4F2AF0EE2325
:103A2000E9F63F3FD9F203C03A3EA8F26894E0E0DD
:103A3000F0E01124139440175107620738F0315019
:103A400008F46894000F111F221FEE1F041B150BB2
:103A5000260BEF0B000F111F221FEE1FAA9379E117
:103A60007A95AAF0041715072607EF0730F0041B14
:103A7000150B260BEF0B089401C08894111C221C17
:103A8000331CAA1F000F111F221FEE1FE9CFF0F9F0
:103A9000E894E22BE12BE02B09F06894A69537948B
:103AA00027941794E79508F468947395B9F3A9914E
:103AB000332311F0F0FF09C0369427941794E7954B
:103AC00008F4689433953130BCF3012D122D232D69
:103AD00037CEAF93BF93D80105900D92415050401F
:103AE000D9F7BF91AF910895BA92AA929A928A9209
:103AF0007A926A925A924A92BA93AA939A938A9322
:103B00000895BB84AA84998488847F806E805D80B8
:103B10004C80BB81AA8199818881F0E0EC0FFD1F68
:103B2000EF01089501E0089520E008D0E9F7089535
:103B30003BBF27913BB702D0D9F708952D93015091
:103B40001040202F212B089508EA402E0BE3502E21
:103B500000E0602EF201362D6BBE07911691F20146
:103B6000EE5FFF4F3F4F3BBFA791B691F201362D5D
:103B7000EC5FFF4F3F4F3BBF479157916691242F1A
:103B8000252B262B21F0FA01362FD2DF01C0CCDF06
:103B900007E0400E00E0501E601EA201662D463B6D
:103BA0005B436040B8F208953503F002000000B0B6
:103BB000004002B63B003300040100009001010008
:103BC00000000009000100000000090001000000E1
:103BD000000F2701D2000000E70301DC000000E72E
:103BE0000301E6000000E703015E0100009001010F
:103BF0003200000090010164000000640001140024
:103C000000006400012C0100000F27032C010000BC
:103C10000F27032C0100000F2703DC0500000F27EE
:103C200003580200006300012C0100006300010042
:103C30000000006300015A000000E80301C409000D
:103C4000000F27020A000000F4010200000000F447
:103C50000102A00FC800983A0305000000640001AB
:063C600014050000F40150
:0400000300000000F9
:00000001FF
