:020000020000FC
:100000000C942C0A1895189518951895189518950C
:100010001895189518951895189518951895189578
:100020000C94000918951895189518950C9457007C
:100030000C94AE000C94DF0018951895189518953F
:100040001895189518951895189518951895189548
:1000500018951895000001CC01D8001401F0003C5F
:10006000002801E401A0006C007801B40050019C5C
:1000700001880044929A08959298089501E00BB97E
:1000800008EB0AB906E800BD03E309B900E000BDCA
:1000900008950AE310E00093A2001093A3000CE37C
:1000A00010E00093A4001093A500E6DF0895BA9332
:1000B000AA93FA93EA934A933A932A931A930A9348
:1000C0004FB7E2EAF0E02CB100ED17E0DF01A85FE6
:1000D000BE4F0D931C93DF01A65FBE4F0C9102FD36
:1000E00032C005E0DF01A95FBE4F0C93DF01AA5FBC
:1000F000BE4F0C910F3F38F5DF01AA5FBE4F0C9148
:1001000010E0DF01A00FB11F14962C93DF01AA5F4E
:10011000BE4F0C9103950C93DF01AA5FBE4F0C916B
:10012000083031F4DF01A65FBE4F0C9101600C93E3
:10013000DF01AA5FBE4F0C910F3F29F4E65FFE4F2F
:100140000081046000834FBF099119912991399171
:100150004991E991F991A991B9911895BA93AA9306
:10016000FA93EA932A931A930A932FB7E2EAF0E0FC
:10017000DF01AC5FBE4F0C91DF01AB5FBE4F1C9146
:10018000011790F45E98DF01AC5FBE4F0C9110E058
:10019000DF01A00FB11F14960C910CB9EC5FFE4F5C
:1001A00000810395008302C05598569A2FBF09918C
:1001B00019912991E991F991A991B9911895BA9359
:1001C000AA938A93FA93EA933A922A921A920A92FB
:1001D0007A936A935A934A933A932A931A930A9377
:1001E0008FB7E2EAF0E0DF01A65FBE4F0C910F7E11
:1001F0000C930281138114D056988FBF09911991E5
:100200002991399149915991699179910990199060
:1002100029903990E991F9918991A991B99118950D
:1002200020E030E00217130711F0F8010995089556
:100230000E94710AD8012901CA01FD01E65FFE4F43
:10024000008104FD3FC0FD01E65FFE4F00810061BB
:1002500000830D911C911197E3DF00E0FD01EB5F3E
:10026000FE4F008300E0FD01EC5FFE4F0083FD01C7
:10027000EB5FFE4F008110E0080F191F013021E0F5
:10028000120748F080E091E0FD01EB5FFE4F008136
:1002900010E0801B910BAC019201FD01EB5FFE4F62
:1002A000608170E08D01060F171F0C5F1F4F67D034
:1002B000FD01EB5FFE4F80835E98559AFD0104813E
:1002C0000CB926C0FD01EB5FFE4F008110E0080F66
:1002D000191F013021E0120748F080E091E0FD0194
:1002E000EB5FFE4F008110E0801B910BAC0192018F
:1002F000FD01EB5FFE4F608170E08D01060F171F5F
:100300000C5F1F4F3CD0AB5FBE4F0C91080F0C939E
:10031000E6E00C947E0AE5ECF1E0208120FF2EC09F
:10032000F801E95FFE4F20812130C0F0F801E95F5C
:10033000FE4F20812A952083F801E95FFE4F20813E
:10034000222361F4F801EA5FFE4F2081213030F072
:10035000F801E65FFE4F208124602083F801E85F0A
:10036000FE4F20813181232B49F0085F1E4FF80199
:100370000081118101501040008311830895BD0157
:10038000D801F901232B61F0012B39F409C0008158
:100390000C933196119641505040042F052BB9F71C
:1003A000DB0108950E946D0AD8010091CF011091E0
:1003B000D0010093A0001093A1001A96ED91FC913A
:1003C0001B97008110E02091A0003091A10002173E
:1003D000130751F01A96ED91FC911B970081073F8E
:1003E00019F001E010E03EC11A96ED91FC911B97C7
:1003F0000181003189F01A96ED91FC911B970181E2
:10040000063051F01A96ED91FC911B970181033053
:1004100019F002E010E026C1FD0186819781029764
:100420009C01FD01028513850E9429049801FD01AC
:1004300002851385FD0146815781040F151F015068
:100440001040F8014081542F40E0FD0102851385E2
:10045000FD0166817781060F171F02501040F801D9
:10046000008110E0400F511F2417350719F003E0F9
:1004700010E0F8C01A96ED91FC911B9701810031B4
:1004800039F01A96ED91FC911B970181063041F5E8
:10049000FD0106811781083020E01207C1F1FD013E
:1004A00026813781FD0102851385F801868190E060
:1004B00009962817390789F41A96ED91FC911B9734
:1004C000268130E0FD0102851385F801058110E0E9
:1004D000000F111F20173107D1F009E010E0C2C052
:1004E000FD0106811781083020E0120781F0FD012F
:1004F00026813781FD0102851385F801828190E014
:1005000005962817390719F008E010E0ABC0FD0187
:1005100006811781083020E01207B1F51A96ED9197
:10052000FC911B970181003139F01A96ED91FC91F5
:100530001B970181063019F400E010E093C01A9671
:10054000ED91FC911B970281102F00E0FD012285A7
:100550003385F901238130E0020F131FFD0122854D
:100560003385F901258130E0ED91FC9111970995D2
:10057000202F212B09F076C08D0177D0FD01008757
:10058000118700E010E06EC01A96ED91FC911B9768
:100590000181003141F01A96ED91FC911B97018188
:1005A000063009F05DC01A96ED91FC911B9782818F
:1005B000982F80E0FD0102851385F801038110E08A
:1005C000800F911FFD0102851385F8014480542C92
:1005D0004424FD0102851385F801058110E0400ED9
:1005E000511E92018C01ED91FC9111970995202FDC
:1005F000212BC1F507E0602E7724882425C0FD015A
:1006000004851585060D171DF8012081322F20E085
:1006100001E0600E00E0701EFD0104851585060DE9
:10062000171DF801008110E0200F311F01E0600E5E
:1006300000E0701E99248C01080D191DFD014481F4
:100640005581FA0109958394992484149504B8F28C
:100650008D010BD0FD010087118700E010E002C082
:1006600000E010E0EAE00C947A0A0E946B0AD801DC
:100670001A96ED91FC911B970181003109F057C04A
:100680001A96ED91FC911B972081FD01048515853B
:10069000F80120831A96ED91FC911B972181FD01B1
:1006A00004851585F80121831A96ED91FC911B971D
:1006B0002281FD0104851585F80122831A96ED91AA
:1006C000FC911B972381FD0104851585F801238387
:1006D0001A96ED91FC911B972481FD0104851585E7
:1006E000F80124831A96ED91FC911B972581FD0159
:1006F00004851585F801258326E030E0FD01048599
:1007000015850E942904C80140E051E08C010E9437
:10071000570AFD0104851585F8014683892FFD01DF
:10072000A485B58517968C9308E010E08FC01A96C3
:10073000ED91FC911B970181033009F085C01A9659
:10074000ED91FC911B976280762C6624FD01028559
:100750001385F801038110E0600E711EFD01028512
:100760001385F801A580BB24FD0102851385F801DE
:100770002081FD0104851585F8012083FD01028596
:100780001385F8012181FD0104851585F801218378
:10079000FD0102851385F801158102E0109FFD011E
:1007A00004851585F801028203E0402E882425C0C7
:1007B00099248301080D191DFD0122813381F9015E
:1007C0000995C8018C01012F202FFD010485158595
:1007D0005524040D151DF8012083439440E051E099
:1007E0008C010E94570AFD01048515855524040DCE
:1007F000151DF80140834394839499248A149B0423
:10080000B8F2242D30E0FD01048515850E942904ED
:10081000C80140E051E08C010E94570AFD010485A7
:1008200015855524040D151DF80140834394892F27
:10083000FD01048515855524040D151DF8018083DF
:100840004394042D10E002C000E11EEEECE00C9495
:10085000780A7B2F0A2ED8010FEF1FEF29C0602FD7
:100860004C91642744E00E94510A462F50E04F709B
:100870005070440F551FFA01EC5AFF4F45915491A7
:1008800004271527602F4C9142954F70642744E050
:100890000E94510A462F50E04F705070440F551F70
:1008A000FA01EC5AFF4F45915491042715271196F0
:1008B000A9019A0121503040452B89F6A02DB72F70
:1008C000089500E0869B0160879B0260849B046022
:1008D000859B0860089508010091DA01002309F45E
:1008E00066C000E00093DA0120E00CC0422F01E076
:1008F00010E00E944B0A00951091AE011023109356
:10090000AE012395243008F04CC0422F01E010E0E6
:100910000E944B0A1001202231226091AD0170E04B
:10092000422F01E010E00E944B0A6023712326262B
:100930003726232891F0422F01E010E00E944B0A55
:1009400000951091AE0110231093AE0100E030E04D
:10095000F901E155FE4F0083D4CF30E0F901E155B4
:10096000FE4F00810395008330E0F901E155FE4F11
:100970000081043130F2422F01E010E00E944B0A66
:10098000A00140235123452B09F4B0CF422F01E0B1
:1009900010E00E944B0A1091AE01102B1093AE0193
:1009A000B0CF0092AD010091AE010093C701089550
:1009B000F801228120FF16C0F801238120FD12C01A
:1009C000F801238121602383F8012085206120879D
:1009D00021E030E0F80140855185422753274087C8
:1009E000518708C0F801228120FD04C0F80123814D
:1009F0002E7F2383F801228121FF16C0F801238175
:100A000021FD12C0F801238122602383F801208593
:100A10002061208722E030E0F8014085518542279F
:100A200053274087518708C0F801228121FD04C067
:100A3000F80123812D7F2383F801228122FF16C034
:100A4000F801238122FD12C0F80123812460238351
:100A5000F80120852F7E208724E030E0F8014085D2
:100A60005185422753274087518708C0F8012281CA
:100A700022FD04C0F80123812B7F2383F80122810A
:100A800023FF16C0F801238123FD12C0F801238142
:100A90002860238328E030E0F80140855185422713
:100AA000532740875187F80100850F7E00870895FE
:100AB000F801228123FD04C0F8010381077F03832D
:100AC0000895F801248120FF02C0DF9A01C0DF9859
:100AD000F801248121FF02C0AA9A01C0AA98F80156
:100AE000248122FF02C0DE9A01C0DE98F801248131
:100AF00023FF02C0A99A01C0A998F801248124FF0C
:100B000002C0AF9A01C0AF98F801248125FF02C04E
:100B1000A89A01C0A898F801248126FF02C0DD9A96
:100B200001C0DD98F801248127FF02C0C49A01C0EA
:100B3000C498F801258120FF02C0DC9A01C0DC982E
:100B4000F801258121FF02C0C39A01C0C398F801B2
:100B5000258122FF02C0DB9A01C0DB98F8012581C4
:100B600023FF02C0C29A01C0C298F801258124FF68
:100B700002C0DA9A01C0DA98F801258125FF02C087
:100B8000C19A01C0C198F801258126FF02C0D89AF8
:100B900001C0D898F801258127FF02C0C09A01C082
:100BA000C098F801268121FF02C0AE9A01C0AE981C
:100BB000F801268122FF02C0AD9A01C0AD98F8016C
:100BC000268123FF02C0AC9A01C0AC98F8012681AF
:100BD00024FF02C0AB9A01C0AB98F801068100FF68
:100BE00002C0D99A0895D9980895F801208524FF64
:100BF00011C0F801208520FF04C0F80120852B7F5B
:100C00002087F801208521FF15C0F8012085277F66
:100C1000208710C0F801208522FF04C0F80120853C
:100C20002E7F2087F801208523FF04C0F80120854E
:100C30002D7F2087F801208522FF05C0F80126813D
:100C40002860268304C0F8012681277F2683F801C7
:100C5000208523FF05C0F80126812061268304C07A
:100C6000F80126812F7E2683F801208520FF05C00C
:100C7000F80126812260268304C0F80126812D7F99
:100C80002683F801208521FF05C0F8012681246014
:100C9000268304C0F80126812B7F2683F801268550
:100CA00021602687F80126853785F801248335835E
:100CB0000895E199FECF1FBB0EBBE09A0DB30895D6
:100CC000E199FECF1FBB0EBB2DBB04E00CBBE19A2C
:100CD00008950E946F0AC8013A01D901442455249D
:100CE00016C08C01040D151DE4DFFD01E40DF51D9A
:100CF0001081011741F0FD01E40DF51D20818C01EB
:100D0000040D151DDDDF01E0400E00E0501E46140D
:100D1000570438F3E8E00C947C0A9A938A93B8015C
:100D20000A01190180E090E00AC0AB01480F591F89
:100D30000E94480AF101E80FF91F0083019680150F
:100D4000910598F38991999108950E94710AC901BA
:100D5000D801442455249C010E9429049695879526
:100D6000880F991FA80FB91FFD012081318129012A
:100D70004016510611F401E001C000E0E6E00C94D9
:100D80007E0A0E94730AC901D8019C010E942904AD
:100D900096958795880F991FA80FB91F0D931C93DF
:100DA000E4E00C94800A20E030E0F80120833183F5
:100DB000F801008101600083089520E030E0F8012F
:100DC00020833183F801208122602083F801008193
:100DD0000160008308950E94710AD801C9012A01A7
:100DE000F201008100FFCFC0F201008101FD36C099
:100DF000F20100810E7F0083AC014E5F5F4F9D01C9
:100E000000E810E08ADF9C018D019FDF002301F5DF
:100E1000F201008100680083AC014E5F5F4F9D01CD
:100E200000E011E07ADF9C018D018FDF002351F497
:100E300000E010E0F20100831183F20100810068FC
:100E40000083A1C000E010E0F201008311839BC089
:100E500000E010E0F2010083118395C0F2010081EF
:100E60000877002309F5F2010081118198012778A4
:100E70003F7F06950695069510E00F5F1F4F43E0F4
:100E80000E944B0A08771070202B312BF20120832F
:100E90003183F201008111810F7F107000601461B5
:100EA000F201008311836FC0F201008108770830DE
:100EB00091F5F2010081118100701F7F012B09F073
:100EC00062C09C018D015DDF0296AC019D0100E8CE
:100ED00010E0FFDEF201008111810F7F10700060D1
:100EE0001461F20100831183F201008111819801E4
:100EF00027783F7F06950695069510E00F5F1F4FF8
:100F000043E00E944B0A08771070202B312BF2012E
:100F10002083318338C0F20100810877003139F530
:100F2000F2010081118100701F7F012B61F59C018E
:100F30008D0127DF0296AC019D0100E011E0C9DEC2
:100F4000F20100811181980127783F7F069506956F
:100F5000069510E00F5F1F4F43E00E944B0A087791
:100F60001070202B312BF201208331830CC0F20151
:100F70000081118100701F7F012B29F400E010E037
:100F8000F20100831183E6E00C947E0A00E010E099
:100F90000895043320E0120731F4E5ECF1E0008518
:100FA000017010700895053320E0120741F4E5EC5C
:100FB000F1E0008501FB00E010E000F90895063340
:100FC00020E0120741F4E5ECF1E0008502FB00E0CF
:100FD00010E000F90895073320E0120741F4E5EC32
:100FE000F1E0008503FB00E010E000F9089508330C
:100FF00020E0120729F40091D3011091D401089543
:10100000093320E0120729F40091CF011091D0019B
:10101000089500E010E00895043340E0140769F4F7
:10102000E5ECF1E0408540614087422F4170E5ECFE
:10103000F1E040FB408540F94087053340E014076C
:1010400069F4E5ECF1E0408540614087422F417052
:10105000E5ECF1E040FB408541F94087063340E094
:10106000140769F4E5ECF1E040854F7E4087422F9C
:101070004170E5ECF1E040FB408542F940870733E1
:1010800040E0140769F4E5ECF1E040854F7E4087CD
:10109000422F4170E5ECF1E040FB408543F9408789
:1010A000083340E0140721F42093D3013093D40196
:1010B000093340E0140721F42093CF013093D0018D
:1010C000089526EC37E0F8012083318329EC37E0DE
:1010D000F801228333832CE038E0F8012483358340
:1010E0000895F901EA5FFE4F408150E0F801468320
:1010F0005783A9014C5F5F4FF801428753872C5FEC
:101100003F4FF8012487358720E030E0F801208741
:1011100031870895BA93AA93F801D9010085118502
:10112000012B39F040855185248535858D010E943C
:10113000180100E0FD01E65FFE4F008300E0AA5FBA
:10114000BE4F0C93A991B991089505EB11E0B9DF59
:1011500022EA30E005EB11E0C4DF0895BA93AA93C8
:10116000A2EAB0E0FD01E65FFE4F008102FF1AC077
:101170009D0105EB11E0B5DF05EB11E00E94D20106
:101180000093C3011093C4019D0105EB11E0C2DF80
:10119000FD01E65FFE4F00810B7F008300E0AA5F48
:1011A000BE4F0C93A991B99108958C98949A8D98FB
:1011B000959A8E98969A8F98979A0FEF0ABB00E0AF
:1011C0000BBB0FEF04BB00E005BBB89AC098B99AFF
:1011D000C198BA9AC298BB9AC398BC9AC4988A9A82
:1011E00092980895789400EE0DBD0FEB0CBD09B7F1
:1011F000046009BF00E00FBD0EB501600EBD08958B
:101200001A930A931FB700EE0DBD0FEB0CBD01E062
:101210000093D5011FBF0991199118950E94730A77
:10122000D8010091D501002309F4A3C000E0009388
:10123000D501E6EDF1E0008111810F5F1F4F0083C2
:1012400011830091DA0103950093DA010C9101609A
:101250000C934AE050E00091D6011091D7010E9412
:10126000570A493000E0500719F40C9102600C93C2
:1012700044E650E00091D6011091D7010E94570A30
:10128000433600E0500719F40C9104600C9348EECB
:1012900053E00091D6011091D7010E94570A473EB2
:1012A00003E0500719F40C9108600C9340E157E2F9
:1012B0000091D6011091D7010E94570A4F3007E2E2
:1012C000500719F40C9100610C9344EF51E0009128
:1012D000D6011091D7010E94570A433F01E0500701
:1012E00049F400E410E0FD012081318120273127FD
:1012F000208331830091D8011091D90101362AEE63
:10130000120740F4E8EDF1E0008111810F5F1F4FFB
:10131000008311830C9103FF11C08091D101909142
:10132000D20124E030E00DEC11E00E942904801786
:10133000910721F003EB11E00E94DD060C9101FF03
:1013400018C00091B3011091B40100701F7F012BF0
:1013500041F0E3EBF1E00081118100501140008386
:10136000118343EB51E024E030E00DEC11E00E94EA
:10137000EB06E4E00C94800A18DF34DF0E943E00A4
:101380000E9449000E94A508E3EBF1E000810F777D
:10139000008303EB11E00E94D30643EB51E024E00D
:1013A00030E00DEC11E00E94EB06E3EBF1E0008190
:1013B00007FF1FC0E3EBF1E000810F770083E5EC4E
:1013C000F1E000850B7F0087E5ECF1E00085077F09
:1013D0000087E5ECF1E000850E7F0087E5ECF1E0A9
:1013E00000850D7F008707EF10E00093CF01109379
:1013F000D0010091B3010877002321F403EB11E041
:101400000E94DD0600E010E00093D3011093D401A8
:1014100005EC11E003DF0E94610410E00E946B0400
:1014200005EC11E00E94D80405EC11E00E94610572
:1014300005EC11E00E94F50502EA10E00E948B0124
:101440000E94AE0800E010E00093C5011093C601B1
:10145000DFCF00008895FECF0FE90DBF00E00EBF83
:10146000C0E8D0E00E94890A002311F00E94990A86
:101470000E94BC090E94290A0C94290AE199FECF16
:1014800008954F5F5F4FFADF4EBB5FBBE09A089550
:10149000FADF0DB308954A951AF0000F111FFBCF24
:1014A00008954A951AF016950795FBCF08950024E4
:1014B0001124EFE0001F111F001C111C041615065B
:1014C00010F0041A150AEA95AAF7001F111FA001CF
:1014D000009510950895BA92AA929A928A927A9259
:1014E0006A925A924A92BA93AA939A938A930895C7
:1014F000BB84AA84998488847F806E805D804C80C0
:10150000BB81AA8199818881F0E0EC0FFD1FEF017A
:10151000089501E0089520E006D0E9F708952591A7
:1015200002D0E9F708952D9301501040202F212B70
:10153000089586E695E1FC0105911491FC0132962F
:10154000A591B491FC01349625913491422F432BFF
:1015500019F0F901E4DF01C0DEDF069615E18237FC
:10156000910748F308953901A20000000200A0008D
:0415700072153300BD
:0400000300000000F9
:00000001FF
