:020000020000FC
:100000000C949E1218951895189518951895189592
:100010001895189518951895189518951895189578
:100020000C94A70718951895189518950C94C40169
:100030000C941B020C944C02189518951895189561
:100040001895189518951895189518951895189548
:1000500018951895000001CC01D8001401F0003C5F
:10006000002801E401A0006C007801B40050019C5C
:1000700001880044E199FECF1FBB0EBBE09A0DB38F
:100080000895E199FECF1FBB0EBB2DBB04E00CBB56
:10009000E19A08950E94EF12C8013A01D90144245F
:1000A000552416C08C01040D151DE4DFFD01E40D7F
:1000B000F51D1081011741F0FD01E40DF51D2081B2
:1000C0008C01040D151DDDDF01E0400E00E0501E27
:1000D0004614570438F3E8E00C94FC129A938A9380
:1000E000B8010A01190180E090E00AC0AB01480F95
:1000F000591F0E94BA12F101E80FF91F00830196FF
:100100008015910598F38991999108950E94F112B3
:10011000C901D801442455249C010E948905969563
:100120008795880F991FA80FB91FFD012081318184
:1001300029014016510611F401E001C000E0E6E09B
:100140000C94FE120E94F312C901D8019C010E9476
:10015000890596958795880F991FA80FB91F0D934C
:100160001C93E4E00C94001320E030E0F8012083BD
:100170003183F801008101600083089520E030E0C0
:10018000F80120833183F801208122602083F80167
:1001900000810160008308950E94F112D801C90115
:1001A0002A01F201008100FFCFC0F201008101FDB0
:1001B00036C0F20100810E7F0083AC014E5F5F4FBD
:1001C0009D0100E010E08ADF9C018D019FDF00238C
:1001D00001F5F201008100680083AC014E5F5F4FC2
:1001E0009D0100E012E07ADF9C018D018FDF00238A
:1001F00051F400E010E0F20100831183F20100816C
:1002000000680083A1C000E010E0F20100831183C8
:100210009BC000E010E0F2010083118395C0F20161
:1002200000810877002309F5F2010081118198010E
:1002300027783F7F06950695069510E00F5F1F4FC4
:1002400043E00E94CB1208771070202B312BF20173
:1002500020833183F201008111810F7F10700060D3
:100260001461F201008311836FC0F20100810877ED
:10027000083091F5F2010081118100701F7F012B80
:1002800009F062C09C018D015DDF0296AC019D0109
:1002900000E010E0FFDEF201008111810F7F10709D
:1002A00000601461F20100831183F2010081118169
:1002B000980127783F7F06950695069510E00F5F19
:1002C0001F4F43E00E94CB1208771070202B312B78
:1002D000F2012083318338C0F201008108770031B8
:1002E00039F5F2010081118100701F7F012B61F54A
:1002F0009C018D0127DF0296AC019D0100E012E018
:10030000C9DEF20100811181980127783F7F0695AF
:100310000695069510E00F5F1F4F43E00E94CB1239
:1003200008771070202B312BF201208331830CC011
:10033000F2010081118100701F7F012B29F400E080
:1003400010E0F20100831183E6E00C94FE12C49ADF
:100350000895C498089501E00BB908EB0AB906E8BE
:1003600000BD03E309B900E000BD089507EA11E00C
:100370000093BD001093BE0009EA11E00093BF0096
:100380001093C000E6DF0895BA93AA93FA93EA9314
:100390004A933A932A931A930A934FB7EDEBF0E0FE
:1003A0002CB100ED17E0DF01A85FBE4F0D931C9349
:1003B000DF01A65FBE4F0C9102FD32C005E0DF01F8
:1003C000A95FBE4F0C93DF01AA5FBE4F0C910F3F98
:1003D00038F5DF01AA5FBE4F0C9110E0DF01A00FDE
:1003E000B11F14962C93DF01AA5FBE4F0C910395A9
:1003F0000C93DF01AA5FBE4F0C91083031F4DF018E
:10040000A65FBE4F0C9101600C93DF01AA5FBE4F47
:100410000C910F3F29F4E65FFE4F008104600083DA
:100420004FBF09911991299139914991E991F99118
:10043000A991B9911895BA93AA93FA93EA932A933A
:100440001A930A932FB7EDEBF0E0DF01AC5FBE4FDC
:100450000C91DF01AB5FBE4F1C91011790F45E98C9
:10046000DF01AC5FBE4F0C9110E0DF01A00FB11FA8
:1004700014960C910CB9EC5FFE4F0081039500833C
:1004800002C05598569A2FBF099119912991E99167
:10049000F991A991B9911895BA93AA938A93FA936D
:1004A000EA933A922A921A920A927A936A935A9308
:1004B0004A933A932A931A930A938FB7EDEBF0E09D
:1004C000DF01A65FBE4F0C910F7E0C93028113815A
:1004D00014D056988FBF099119912991399149915A
:1004E0005991699179910990199029903990E991E0
:1004F000F9918991A991B991189520E030E00217FE
:10050000130711F0F801099508950E94F112D8011E
:100510002901CA01FD01E65FFE4F008104FD3FC0D5
:10052000FD01E65FFE4F0081006100830D911C918B
:100530001197E3DF00E0FD01EB5FFE4F008300E079
:10054000FD01EC5FFE4F0083FD01EB5FFE4F00817C
:1005500010E0080F191F013021E0120748F080E079
:1005600091E0FD01EB5FFE4F008110E0801B910BDD
:10057000AC019201FD01EB5FFE4F608170E08D01E7
:10058000060F171F0C5F1F4F62D0FD01EB5FFE4F80
:1005900080835E98559AFD0104810CB926C0FD0147
:1005A000EB5FFE4F008110E0080F191F013021E0C2
:1005B000120748F080E091E0FD01EB5FFE4F008103
:1005C00010E0801B910BAC019201FD01EB5FFE4F2F
:1005D000608170E08D01060F171F0C5F1F4F37D031
:1005E000AB5FBE4F0C91080F0C93E6E00C94FE122B
:1005F000F801E95FFE4F20812130C0F0F801E95F8A
:10060000FE4F20812A952083F801E95FFE4F20816B
:10061000222361F4F801EA5FFE4F2081213030F09F
:10062000F801E65FFE4F208124602083F801E85F37
:10063000FE4F20813181232B49F0085F1E4FF801C6
:100640000081118101501040008311830895BD0184
:10065000D801F901232B61F0012B39F409C0008185
:100660000C933196119641505040042F052BB9F749
:10067000DB0108950E94ED12D80100910F0210E0F5
:100680000093A0001093A1001A96ED91FC911B9786
:10069000008110E02091A0003091A1000217130703
:1006A00019F001E010E03EC11A96ED91FC911B9704
:1006B0000181003189F01A96ED91FC911B9701811F
:1006C000063051F01A96ED91FC911B970181033091
:1006D00019F002E010E026C1FD01868197810297A2
:1006E0009C01FD01028513850E9489059801FD0189
:1006F00002851385FD0146815781040F151F0150A6
:100700001040F8014081542F40E0FD01028513851F
:10071000FD0166817781060F171F02501040F80116
:10072000008110E0400F511F2417350719F003E036
:1007300010E0F8C01A96ED91FC911B9701810031F1
:1007400039F01A96ED91FC911B970181063041F525
:10075000FD0106811781083020E01207C1F1FD017B
:1007600026813781FD0102851385F801868190E09D
:1007700009962817390789F41A96ED91FC911B9771
:10078000268130E0FD0102851385F801058110E026
:10079000000F111F20173107D1F009E010E0C2C08F
:1007A000FD0106811781083020E0120781F0FD016C
:1007B00026813781FD0102851385F801828190E051
:1007C00005962817390719F008E010E0ABC0FD01C5
:1007D00006811781083020E01207B1F51A96ED91D5
:1007E000FC911B970181003139F01A96ED91FC9133
:1007F0001B970181063019F400E010E093C01A96AF
:10080000ED91FC911B970281102F00E0FD012285E4
:100810003385F901238130E0020F131FFD0122858A
:100820003385F901258130E0ED91FC91119709950F
:10083000202F212B09F076C08D0177D0FD01008794
:10084000118700E010E06EC01A96ED91FC911B97A5
:100850000181003141F01A96ED91FC911B970181C5
:10086000063009F05DC01A96ED91FC911B978281CC
:10087000982F80E0FD0102851385F801038110E0C7
:10088000800F911FFD0102851385F8014480542CCF
:100890004424FD0102851385F801058110E0400E16
:1008A000511E92018C01ED91FC9111970995202F19
:1008B000212BC1F507E0602E7724882425C0FD0197
:1008C00004851585060D171DF8012081322F20E0C3
:1008D00001E0600E00E0701EFD0104851585060D27
:1008E000171DF801008110E0200F311F01E0600E9C
:1008F00000E0701E99248C01080D191DFD01448132
:100900005581FA0109958394992484149504B8F2C9
:100910008D010BD0FD010087118700E010E002C0BF
:1009200000E010E0EAE00C94FA120E94EB12D80109
:100930001A96ED91FC911B970181003109F057C087
:100940001A96ED91FC911B972081FD010485158578
:10095000F80120831A96ED91FC911B972181FD01EE
:1009600004851585F80121831A96ED91FC911B975A
:100970002281FD0104851585F80122831A96ED91E7
:10098000FC911B972381FD0104851585F8012383C4
:100990001A96ED91FC911B972481FD010485158524
:1009A000F80124831A96ED91FC911B972581FD0196
:1009B00004851585F801258326E030E0FD010485D6
:1009C00015850E948905C80140E051E08C010E9414
:1009D000D712FD0104851585F8014683892FFD0195
:1009E000A485B58517968C9308E010E08FC01A9601
:1009F000ED91FC911B970181033009F085C01A9697
:100A0000ED91FC911B976280762C6624FD01028596
:100A10001385F801038110E0600E711EFD0102854F
:100A20001385F801A580BB24FD0102851385F8011B
:100A30002081FD0104851585F8012083FD010285D3
:100A40001385F8012181FD0104851585F8012183B5
:100A5000FD0102851385F801158102E0109FFD015B
:100A600004851585F801028203E0402E882425C004
:100A700099248301080D191DFD0122813381F9019B
:100A80000995C8018C01012F202FFD0104851585D2
:100A90005524040D151DF8012083439440E051E0D6
:100AA0008C010E94D712FD01048515855524040D83
:100AB000151DF80140834394839499248A149B0460
:100AC000B8F2242D30E0FD01048515850E948905CA
:100AD000C80140E051E08C010E94D712FD0104855D
:100AE00015855524040D151DF80140834394892F65
:100AF000FD01048515855524040D151DF80180831D
:100B00004394042D10E002C000E11EEEECE00C94D2
:100B1000F8127B2F0A2ED8010FEF1FEF29C0602F8C
:100B20004C91642744E00E94D112462F50E04F7050
:100B30005070440F551FFA01EC5AFF4F45915491E4
:100B400004271527602F4C9142954F70642744E08D
:100B50000E94D112462F50E04F705070440F551F25
:100B6000FA01EC5AFF4F459154910427152711962D
:100B7000A9019A0121503040452B89F6A02DB72FAD
:100B8000089500E010E09C9B01609B9B02609A9B93
:100B90000460999B0860989B0061CC990062CD9994
:100BA0000064CE990068C99B1160C89B1260CA9B03
:100BB0001460CB9B18600895B8010091DB010023FD
:100BC00009F478C000E00093DB0120E010C0422F60
:100BD00001E010E00E94CB1200951095EAECF1E0E4
:100BE00040815181402351234083518323952C30F0
:100BF00008F054C0422F01E010E00E94CB120B011C
:100C0000002211222090C8013090C901422F01E03A
:100C100010E00E94CB12202231220224132401284A
:100C2000B1F0422F01E010E00E94CB120095109528
:100C3000EAECF1E04081518140235123408351830C
:100C400000E030E0F901E453FE4F0083CFCF30E005
:100C5000F901E453FE4F00810395008330E0F90170
:100C6000E453FE4F0081043108F2422F01E010E00E
:100C70000E94CB12AB0140235123452B09F4A7CF8F
:100C8000422F01E010E00E94CB12EAECF1E040813B
:100C90005181402B512B40835183A8CF6093C801D1
:100CA0007093C9010091CA011091CB010093E10139
:100CB0001093E2010895BC01F801228120FF12C0C7
:100CC000F801248120FD0EC0F801248121602483D5
:100CD00021E030E0F80140815181422753274083D1
:100CE000518308C0F801228120FD04C0F80124814D
:100CF0002E7F2483F801228121FF0EC0F801248178
:100D000021FD0AC0F80124812260248321E0F8013A
:100D100030853227308708C0F801228121FD04C0C8
:100D2000F80124812D7F2483F801228122FF0EC047
:100D3000F801248122FD0AC0F80124812460248363
:100D400024E0F80130853227308708C0F80122817D
:100D500022FD04C0F80124812B7F2483F801228125
:100D600023FF20C0F801248123FD1CC0F801248149
:100D700028602483F801268120FD1CC0F801248509
:100D800035852F5F3F4F24873587F80124853585CA
:100D9000243640E0340770F023E630E0F801248781
:100DA000358708C0F801228123FD04C0F8012481A1
:100DB000277F2483F801228124FF1FC0F8012481AA
:100DC00024FD1BC0F801248120612483F8012681C1
:100DD00020FD1BC0F8012485358521503040248733
:100DE0003587F801848595858530904070F425E03D
:100DF00030E0F8012487358708C0F801228124FDFE
:100E000004C0F80124812F7E2483EEEDF1E02081DF
:100E100020FF30C0F801248123FB20E020F9F801F5
:100E2000348134FB30E030F923272223E9F020918C
:100E3000D8013091D901C90101968093D8019093CE
:100E4000D9012B3F40E03407A8F020E030E02093A8
:100E5000D8013093D901F8012481277F2483F80138
:100E600004810F7E048306C000E010E00093D801E7
:100E70001093D901CB010895F801268120FF02C00B
:100E8000C49A01C0C498F801268121FF02C0C39A08
:100E900001C0C398F801268122FF02C0C29A01C096
:100EA000C298F801268123FF02C0C09A01C0C098F1
:100EB000F801068104FF02C0C19A0895C1980895FF
:100EC00004B3006E04BB05B3006E05BBBD9AC59AA2
:100ED000A098A198A298A398A49805B30F6105BB08
:100EE00007B30F6107BB08B30F6108BBD498D5984F
:100EF000D6980BB300670BBBD098D198D298D398F3
:100F00000BB30F600BBB8A9A929801B3006C01BBC4
:100F100002B3006C02BB01B3086101BB8D9802B340
:100F2000086302BB0895C498C398C298C198C0983A
:100F30000895789400EE0DBD0FEB0CBD09B7046069
:100F400009BF00E00FBD0EB501600EBD08951A93F4
:100F50000A931FB700EE0DBD0FEB0CBD01E000932F
:100F6000DA011FBF0991199118959A938A930091FC
:100F7000DA01002309F48DC000E00093DA01ECED02
:100F8000F1E0008111810F5F1F4F008311830091F9
:100F9000DB0103950093DB01EEEDF1E000810160E0
:100FA000008348EE53E00091DC011091DD010E94C6
:100FB000D712473E03E0500729F4EEEDF1E000813F
:100FC000046000834AE050E00091DC011091DD01F3
:100FD0000E94D712493000E0500729F4EEEDF1E00D
:100FE00000810260008340E157E20091DC01109132
:100FF000DD010E94D7124F3007E2500729F4EEEDD1
:10100000F1E000810860008340E951E00091DC01DB
:101010001091DD010E94D7124F3801E0500731F4E2
:1010200000E21091DE0110271093DE01EEEDF1E0F9
:10103000008102FF11C08091ED019091EE0122E04C
:1010400030E00BEE11E00E9489058017910721F036
:101050000BEB10E00E94BE00EEEDF1E0008101FF1D
:1010600018C00091BB001091BC0000701F7F012BC5
:1010700041F0EBEBF0E00081118100501140008362
:1010800011834BEB50E022E030E00BEE11E00E94C8
:10109000CC00899199910895AC0198018901015082
:1010A0001040232B41F081E090E0863622E0920749
:1010B000A0F70196FACFCA01089502DF0E944E0FF1
:1010C00032DF37DF0E94AB010E94B6010E94D811C7
:1010D00009EF11E00E94FF0F00E010E00093DF0134
:1010E0001093E001EFEDF1E0008100610083EBEB94
:1010F000F0E000810F7700830BEB10E00E94B4005A
:101100004BEB50E022E030E00BEE11E00E94CC000F
:10111000EBEBF0E0008107FF0BC0EBEBF0E00081B0
:101120000F7700830FE010E00093EB011093EC01C8
:101130000BEB10E00E94BE0008EB1BE0ADDFEFED13
:10114000F1E002850068028708EB1BE0A5DFEFED08
:10115000F1E003850160038708DF0E94C1050E945A
:10116000DC050E9415120E941D120FED11E00E9475
:10117000040C2FED31E009EF11E00E9480102FEDFB
:1011800031E005EF11E00E941F0E09EF11E00E940F
:10119000620F0E94E111EEEDF1E0008100FF04C05A
:1011A0000DEB10E00E94F802EEEDF1E000810E7F01
:1011B0000083EEEDF1E000810D7F0083EEEDF1E0C4
:1011C00000810B7F0083EEEDF1E00081077F00835B
:1011D000C3CFBA93AA93D80116960C910F7E0C93A5
:1011E000169716960C91077F0C93169716960C91EE
:1011F0000D7F0C93169716960C910B7F0C931697F8
:1012000016960C910E7F0C9316970C9104FF24C038
:1012100012960C91129707FF0DC00C9102600C936F
:101220000C910F7E0C930D911C910F7F10701C93ED
:101230000E9321C012960C91129706FF1CC00C91C0
:1012400004600C930C910F7E0C930D911C910F7FF9
:1012500010701C930E930FC00C9101FF03C08D0101
:1012600049D009C00C9102FF03C08D01BED103C05B
:101270000C9100610C930C9100FF1CC00C910F7E2F
:101280000C9316960C910F7E0C93169716960C9154
:10129000077F0C93169716960C910D7F0C9316975B
:1012A00016960C9104600C93169718960C910E7F6D
:1012B0000C93189718960C91189700FF0AC0169671
:1012C0000C9101600C93169716960C9102600C938A
:1012D000169718960C91189702FF09C016960C9154
:1012E00004600C93169716960C9102600C93A991CA
:1012F000B9910895F8012081318120703F7F232B1F
:1013000069F4F8012081318120503F4F20833183DF
:1013100020ED37E0F801208B318B0895F801208112
:10132000318120703F7F203041E03407B1F5F80172
:10133000268128602683F801268122602683F80111
:10134000268124602683F801228127FD10C0F80140
:101350002081318120503F4F20833183F801228545
:101360002160228728EE33E0F801208B318BF801D1
:1013700020893189232B09F037C1F80120812061B0
:101380002083F80120812D7F2083F80100811181C5
:101390000F7F1070008311830895F801208131813F
:1013A00020703F7F203042E03407F9F5F8012681B4
:1013B00028602683F801268122602683F801268191
:1013C00024602683F801228125FF19C0F8012081BD
:1013D000318120503F4F20833183F80126812061E5
:1013E0002683F801268128602683F8012285226061
:1013F0002287F80124853585F801228B338BF8018B
:1014000020893189232B09F0EFC0F8012081206168
:101410002083F80120812D7F2083F8010081118134
:101420000F7F1070008311830895F80120813181AE
:1014300020703F7F203043E0340709F046C0F801B8
:10144000268122602683F801268124602683F80104
:10145000268120612683F801268128602683F801F1
:10146000268121602683F80122893389232B81F488
:10147000F8012081318120503F4F20833183F801D2
:1014800022852860228728EE33E0F801208B318BFB
:10149000F801248135812E713070232B09F4A4C00A
:1014A000F80124812D7F2483F80124812B7F24835C
:1014B000F8012481277F2483F80124812F7E24834F
:1014C000F8010285046002870895F80120813181C6
:1014D00020703F7F203044E0340709F052C0F8010B
:1014E0002681277F2683F80126812F7E2683F80117
:1014F000268122602683F801268124602683F80154
:1015000026812E7F2683F801228127FF10C0F80153
:101510002081318120503F4F20833183F801268183
:101520002860268320ED37E0F801208B318BF8010D
:10153000228126FF10C0F8012081318120503F4FC9
:1015400020833183F80126812061268320ED37E056
:10155000F801208B318BF80120893189232B09F088
:1015600043C0F801208120612083F80120812D7F74
:101570002083F801008111810F7F10700083118397
:101580000895F8012081318120703F7F203045E0AF
:10159000340751F5F80120893189232B79F4F801BA
:1015A000208120612083F80120812D7F2083F80194
:1015B000208131812F7F307020833183F801228197
:1015C0003381207C3070232B79F4F8012081206155
:1015D0002083F80120812D7F2083F8010081118173
:1015E0000F7F1070008311830895F80120813181ED
:1015F00020703F7F232B69F4F80120813181205036
:101600003F4F2083318320ED37E0F801208B318B71
:101610000895F8012081318120703F7F203041E022
:10162000340709F042C0F801268120612683F801C1
:10163000268122602683F801268124602683F80112
:10164000228126FD1CC0F8012081318120503F4FAE
:1016500020833183F8012681277F2683F8012681A4
:101660002F7E2683F801268124602683F8012681B7
:101670002260268328EE33E0F801208B318BF801BD
:1016800020893189232B09F09BC0F801208120613A
:101690002083F80120812B7F2083F80100811181B4
:1016A0000F7F1070008311830895F801208131812C
:1016B00020703F7F203042E0340709F04EC0F8012F
:1016C000268120612683F801268122602683F80185
:1016D000268124602683F801228125FF28C0F80195
:1016E000228127FF10C0F80126812860268328EE7A
:1016F00033E0F801208B318BF801208131812050BB
:101700003F4F20833183F801228126FF10C0F8016A
:1017100026812061268328EE33E0F801208B318B6F
:10172000F8012081318120503F4F20833183F8011F
:1017300020893189232B09F043C0F80120812061E1
:101740002083F80120812B7F2083F8010081118103
:101750000F7F1070008311830895F801208131817B
:1017600020703F7F203043E0340751F5F80122819B
:101770003381207C3070232B19F5F801228125FD5F
:1017800010C0F801208120612083F80120812B7F87
:101790002083F801008111810F7F10700083118375
:1017A0000895F801208122602083F80120812B7F99
:1017B0002083F801008111810F7F10700083118355
:1017C0000895EEEDF1E0208121FF0CC0F8012089A1
:1017D0003189232B39F0F80120893189215030409B
:1017E000208B318BEEEDF1E0208122FF0CC0F8015F
:1017F00022893389232B39F0F8010289138901509A
:101800001040028B138B08959A938A93C8018C0120
:101810000E945B068C01D5DFEEEDF1E0008101FF57
:1018200005C08C01D6DC8C010E943C0789919991FE
:101830000895F801208121FF02C0979A01C097986E
:10184000F801008102FF02C0969A089596980895C3
:10185000592F682FF8010081087F0023E9F40081E7
:101860001181980127703F7F06950695069510E037
:101870000F5F1F4F43E00E94CB12087F1070202B98
:10188000312B208331830281138100701F7F05601B
:10189000106002831383D0C10081087F083041F5B6
:1018A00000810260008300810460008302810F7F59
:1018B000002309F0C1C100811181980127703F7F89
:1018C00006950695069510E00F5F1F4F43E00E94B6
:1018D000CB12087F1070202B312B208331830281A3
:1018E000138100701F7F0560106002831383A4C101
:1018F0000081087F003141F500810D7F0083008168
:101900000460008302810F7F002309F095C10081EC
:101910001181980127703F7F06950695069510E086
:101920000F5F1F4F43E00E94CB12087F1070202BE7
:10193000312B208331830281138100701F7F0C6360
:1019400010600283138378C10081087F083141F55C
:1019500000810260008300810460008302810F7FA8
:10196000002309F069C100811181980127703F7F30
:1019700006950695069510E00F5F1F4F43E00E9405
:10198000CB12087F1070202B312B208331830281F2
:10199000138100701F7F05601060028313834CC1A8
:1019A0000081087F0032A1F5008102600083008180
:1019B0000B7F008302810F7F002309F03DC100816E
:1019C0001181980127703F7F06950695069510E0D6
:1019D0000F5F1F4F43E00E94CB12087F1070202B37
:1019E000312B20833183018100FF09C002811381E3
:1019F00000701F7F03601060028313831DC102818A
:101A0000138100701F7F016010600283138314C173
:101A10000081087F0832E9F00081087F0833C9F0AF
:101A20000081087F0834A9F00081087F083589F01B
:101A30000081087F083669F00081087F083749F087
:101A40000081087F083829F00081087F083909F0F3
:101A500045C0008102600083008104600083028130
:101A60000F7F002309F0E8C00081118198012770E1
:101A70003F7F06950695069510E00F5F1F4F43E0E8
:101A80000E94CB12087F1070202B312B20833183D2
:101A90001181012F202F8081887F869586958695DC
:101AA00090E0059796958795482F01E010E00E94F9
:101AB000CB122023222349F00281138100701F7F63
:101AC0000160106002831383B7C00281138100702C
:101AD0001F7F0360106002831383AEC00081087F04
:101AE0000033E9F00081087F0034C9F00081087FED
:101AF0000035A9F00081087F003689F00081087F59
:101B0000003769F00081087F003849F00081087FC4
:101B1000003929F00081087F003A09F045C00081B2
:101B20000260008300810B7F008302810F7F00230E
:101B300009F082C000811181980127703F7F0695CE
:101B40000695069510E00F5F1F4F43E00E94CB12F1
:101B5000087F1070202B312B208331831181012FBE
:101B6000202F8081887F86958695869590E00597C1
:101B700096958795482F01E010E00E94CB12202314
:101B8000222349F00281138100701F7F03601060DF
:101B90000283138351C00281138100701F7F016093
:101BA00010600283138348C00081087F083A19F54A
:101BB0000081026000830081046000830281138140
:101BC00000701F7F04611060028313830081118104
:101BD000980127703F7F06950695069510E00F5FE8
:101BE0001F4F43E00E94CB12087F1070202B312B37
:101BF0002083318321C00081087F003BA1F4008154
:101C00000260008300810460008302810F7F002353
:101C100099F40081118107701F7F00831183008177
:101C20000E7F008309C00081118107701F7F008330
:101C3000118300810E7F0083862F952F08950E94C7
:101C4000F312D801EEEDF1E0008100FFC5C0FD0107
:101C500002810F7F002371F0FD01828193818C014D
:101C600000701F7F01978F7F9070082B192BFD014B
:101C700002831383F901028500FF0EC0F90102857A
:101C80000E7F02870D911C910F7F10701C930E9395
:101C90000C9101600C9399C0F901028501FF12C0FB
:101CA000F90102850D7F02870D911C9111970F7F1D
:101CB0001070006011600D931C9311970C910160DE
:101CC0000C9383C0F901028502FF12C0F90102855D
:101CD0000B7F02870D911C9111970F7F1070006090
:101CE00012600D931C9311970C9101600C936DC0C1
:101CF000F901028503FF12C0F9010285077F0287FF
:101D00000D911C9111970F7F1070006013600D935F
:101D10001C9311970C9101600C9357C0F901028537
:101D200005FF12C0F90102850F7D02870D911C91FC
:101D300011970F7F1070006015600D931C93119721
:101D40000C9101600C9341C0F901028506FF12C09D
:101D5000F90102850F7B02870D911C9111970F7F6E
:101D60001070006016600D931C9311970C91016028
:101D70000C932BC0F901028507FF12C0F9010285FF
:101D80000F7702870D911C9111970F7F10700060E3
:101D900017600D931C9311970C9101600C9315C063
:101DA000F901038500FF11C0F90103850E7F038748
:101DB0000D911C9111970F7F1070006018600D93AA
:101DC0001C9311970C9101600C930C9100FF02C0C1
:101DD0008D013EDD8D012DDDE4E00C940013AC019E
:101DE0009801890101501040232B41F080E090E0E0
:101DF000843F21E09207A0F70196FACFCA01089527
:101E000020E005C0AD980000AE9A000F2395211781
:101E100028F4AE9807FBB6F7AD9AF5CFAE98AD981B
:101E2000089520E006C0AD9800000000AE9A069527
:101E30002395211728F4AE9800FBAEF7AD9AF4CFA6
:101E4000AE98AD9808958A93802FAF98000014E063
:101E500000E8D6DF18E0082FD3DFAF9A00008991A1
:101E600008950E94F312A02FC901B12FAF9813E07B
:101E700000EAC6DF16E0AA0FAA0F0A2FC1DFA0E012
:101E800006C018E0FC010081CCDF0196A395AB17DA
:101E9000C0F3AF9A0000E4E00C940013AF9AAE9A3E
:101EA000AD9A000001E010E09ADF0AE4CCDF00E325
:101EB000CADF00E0C8DF0AE0C6DF02E0C4DF06E0F8
:101EC000C2DF08959801EEEDF1E0008101FF03C04B
:101ED00016E000E0C6DF0895F80103810E7F03835A
:101EE00020FB1EF403810160038302810F7E0283C5
:101EF00021FB1EF402810061028302810F7D0283B7
:101F000022FB1EF402810062028303810B7F0383A4
:101F100023FB1EF403810460038303810F7D03838D
:101F200024FB1EF403810062038303810F7E03837D
:101F300025FB1EF403810061038303810D7F03836E
:101F400026FB1EF40381026003830895F8010481D7
:101F50000F7E048320FB1EF404810061048304814E
:101F60000E7F048321FB1EF404810160048304813D
:101F70000D7F048322FB1EF404810260048304812C
:101F80000F7B048323FB1EF404810064048305811A
:101F90000D7F058324FB1EF4058102600583058106
:101FA0000E7F058325FB1EF40581016005830481F6
:101FB0000F7D048326FB1EF40481006204830895D0
:101FC0000E94F312C801B22F4AE00B2F0E94BD12EB
:101FD00010E0F801EE55FF4FA0814AE00B2F0E9460
:101FE000BD1250E0FA01EE55FF4FB0812A2F8C014F
:101FF000ADDF2B2F8C0170DFE4E00C940013F801AF
:10200000208120642083F801228124602283F8014A
:102010000281006402830895AD01D801FD010381AE
:102020000F7B0383F901068100FF14C0F9010381CE
:1020300003FF0CC0EEEDF1E0008105FB00E000F9CC
:10204000FD0100FB038106F9038304C0FD01038148
:102050000F7B0383FD0101810B7F0183F901068161
:1020600002FF14C0F901038102FF0CC0EEEDF1E0A4
:10207000008105FB00E000F9FD0100FB018102F990
:10208000018304C0FD0101810B7F0183FD010181FA
:102090000F7E0183F901068103FF14C0F90103815A
:1020A00000FF0CC0EEEDF1E0008105FB00E000F95F
:1020B000FD0100FB018104F9018304C0FD010181E0
:1020C0000F7E0183FD0102810E7F0283F9010681EB
:1020D00004FF14C0F901038101FF0CC0EEEDF1E033
:1020E000008105FB00E000F9FD0100FB028100F921
:1020F000028304C0FD0102810E7F0283DA0108958C
:102100000E94F112C801D90146E450E00091DC01BF
:102110001091DD010E94D71243E050E00E94D712D7
:102120002A01FD01068100FF0AC0FD010289138911
:10213000012B29F0FD0122898C0142DF04C020918E
:10214000EB018C013DDFFD01068100FF36C0FC0183
:1021500000810E7F0083FC0100810D7F0083FC0164
:1021600000810B7F0083FC01048104600483042D43
:10217000052941F4FC01008101600083FC0100811C
:102180000260008301E0401600E0500641F4FC01CB
:10219000008101600083FC0100810460008302E093
:1021A000401600E05006C9F4FC0100810260008383
:1021B000FC0100810460008310C0FC0100810E7FDF
:1021C0000083FC0100810D7F0083FC0100810B7FF7
:1021D0000083FC0104810B7F0483FD01068102FF63
:1021E00005C0FC0101810064018304C0FC01018180
:1021F0000F7B0183FD01028106FF05C0FC01018107
:102200000062018304C0FC0101810F7D0183FD0197
:10221000028107FF05C0FC0102810260028304C045
:10222000FC0102810D7F02830C9100FF05C0FC01BF
:1022300000810061008304C0FC0100810F7E0083E7
:10224000FD01028105FF05C0FC01018102600183DF
:1022500004C0FC0101810D7F0183EEEDF1E00081FE
:1022600000FF03C09D018C01D7DEE6E00C94FE1256
:1022700042E350E00417150718F005E010E0089558
:10228000020F131F0417150718F006E010E0089559
:10229000293700E0300718F007E010E0089500E06B
:1022A00010E00895013020E0120729F40091E901BF
:1022B0001091EA010895023020E0120729F40091FC
:1022C000E5011091E60108950A3020E0120721F49B
:1022D00000910F0210E00895093120E0120729F45F
:1022E0000091EB011091EC01089500E010E00895D9
:1022F000013040E0140751F4E9EEF1E0A801440F89
:10230000551FE40FF51F329720833183023040E0E0
:10231000140749F4E5EEF1E0000F111FE00FF11F83
:10232000349720833183089528E331E1F801208335
:10233000318322E531E1F8012283338328E731E15B
:10234000F801248335830895F901EA5FFE4F408147
:1023500050E0F80146835783A9014C5F5F4FF801B5
:10236000428753872C5F3F4FF8012487358720E051
:1023700030E0F801208731870895BA93AA93F801D5
:10238000D90100851185012B39F0408551852485BF
:1023900035858D010E94850200E0FD01E65FFE4F5C
:1023A000008300E0AA5FBE4F0C93A991B9910895F4
:1023B0000FEF11E0B9DF2DEB30E00FEF11E0C4DFDC
:1023C0000895BA93AA93ADEBB0E0FD01E65FFE4F2E
:1023D000008102FF1AC09D010FEF11E0B5DF0FEF82
:1023E00011E00E943A0300930D0210930E029D012A
:1023F0000FEF11E0C2DFFD01E65FFE4F00810B7FB2
:10240000008300E0AA5FBE4F0C93A991B991089593
:1024100000E0949A20E006C0000F9498859901602E
:10242000949A23952830C0F30895939A00000000F1
:10243000EFDF0000000093980895302FEEEDF1E0FB
:10244000008100FF77C020E011C0022F10E0F801EA
:10245000EE54FF4F408101E010E00E94CB12009546
:10246000109111021023109311022395022F10E0F6
:10247000F801EE54FF4F0081083008F055C0422F9C
:1024800001E010E00E94CB12532F50236091100204
:10249000422F01E010E00E94CB1260235627552303
:1024A000C1F0022F10E0F801EE54FF4F408101E02F
:1024B00010E00E94CB12009510911102102310938E
:1024C000110240E0022F10E0F801EE5EFD4F408364
:1024D000CCCF022F10E0F801EE5EFD4F0081039596
:1024E0000083022F10E0F801EE5EFD4F0081043101
:1024F00008F4BBCF422F01E010E00E94CB12132F53
:102500001023112309F4A1CF022F10E0F801EE549B
:10251000FF4F408101E010E00E94CB1210911102A8
:10252000102B10931102A1CF3093100200911102D1
:1025300000930F02089500008895FECF0FE90DBFAC
:1025400000E00EBFC0E8D0E00E940913002311F0A4
:102550000E9419130E945D080E949B120C949B120A
:10256000E199FECF08954F5F5F4FFADF4EBB5FBB2F
:10257000E09A0895FADF0DB308950024E8E0EA95A3
:1025800032F0001F001C0416D0F3041AF8CF001F0D
:10259000402D009508954A951AF0000F111FFBCFAA
:1025A00008954A951AF016950795FBCF08950024D3
:1025B0001124EFE0001F111F001C111C041615064A
:1025C00010F0041A150AEA95AAF7001F111FA001BE
:1025D000009510950895BA92AA929A928A927A9248
:1025E0006A925A924A92BA93AA939A938A930895B6
:1025F000BB84AA84998488847F806E805D804C80AF
:10260000BB81AA8199818881F0E0EC0FFD1FEF0169
:10261000089501E0089520E006D0E9F70895259196
:1026200002D0E9F708952D9301501040202F212B5F
:10263000089586E696E2FC0105911491FC0132961C
:10264000A591B491FC01349625913491422F432BEE
:1026500019F0F901E4DF01C0DEDF069616E28237E9
:10266000910748F308955F01BB0000001B00A00024
:10267000722633003F065B4F666D7D077F6F777C68
:0D268000395E7971000102030706050408A8
:0400000300000000F9
:00000001FF
