:020000020000FC
:100000000C946C05189518951895189518951895D1
:100010001895189518951895189518951895189578
:100020000C94480018951895189518950C94AC04E4
:100030000C94E1040C9410051895189518951895D2
:100040001895189518951895189518951895189548
:1000500018951895000001CC01D8001401F0003C5F
:10006000002801E401A0006C007801B40050019C5C
:100070000188004400EE0DBD0FEB0CBD09B7046014
:1000800009BF00E00FBD0EB501600EBD7894089564
:100090001A930A931FB700EE0DBD0FEB0CBD009134
:1000A000A00003950093A0001FBF09911991189516
:1000B000BA93AA93D8010C91002309F4A0C000E0E0
:1000C0000C9311960D911C910F5F1F4F1C930E9373
:1000D000119713960C9101600C93139711960D9143
:1000E0001C91129745E050E00E948A05452B29F4A7
:1000F00013960C9102600C93139711960D911C911D
:1001000012974AE050E00E948A05452B29F4139685
:100110000C9104600C93139711960D911C911297FA
:1001200044E150E00E948A05452B29F413960C9176
:1001300008600C93139711960D911C91129742E34E
:1001400050E00E948A05452B29F413960C9100611A
:100150000C93139711960D911C91129744E650E061
:100160000E948A05452B59F413960C9100620C935A
:10017000139702E014961C9110271C931497119664
:100180000D911C91129744EF51E00E948A05452B76
:1001900059F413960C9100620C93139701E0149696
:1001A0001C9110271C93149711960D911C91129776
:1001B00048EE53E00E948A05452B29F413960C91D2
:1001C00000640C93139711960D911C91129748E8B7
:1001D00053E10E948A05452B29F413960C9100687F
:1001E0000C93139711960D911C911297003523ECE7
:1001F000120728F000E010E011960D931C93A991CE
:10020000B9910895A098A89AA198A99A8E98969ABB
:100210008F98979A8B9A93988C9A94988D9A959890
:10022000B99AC198BA9AC298BB9AC398BC9AC49812
:10023000D098D898D198D998D298DA98D398DB9852
:10024000D498DC98D598DD988A9A9298B89AC098F4
:10025000A69AAE98A79AAF980895F801208122FF38
:1002600002C0939A01C09398F801208121FF02C037
:10027000949A01C09498F801208120FF02C0959AB9
:1002800001C09598F801208124FF02C0AE9801C0FA
:10029000AE9AF801008105FF02C0AF980895AF9AA9
:1002A0000895B0DF0E943A000E94A10400EA10E025
:1002B0000E94580005EA10E0D0DFE0EAF0E0038198
:1002C00000FF04C008EB10E00E944A0506EA10E0B7
:1002D0000E946C0400E00093A300E0EAF0E00481D7
:1002E00001FB00E000F9E5EAF0E000FB008104F921
:1002F0000083DCCF7B2F0A2ED8010FEF1FEF29C020
:10030000602F4C91642744E00E948405462F50E002
:100310004F705070440F551FFA01EC5AFF4F459132
:10032000549104271527602F4C9142954F706427F4
:1003300044E00E948405462F50E04F705070440FF7
:10034000551FFA01EC5AFF4F459154910427152788
:100350001196A9019A0121503040452B89F6A02D14
:10036000B72F0895AD01F801A281B38112962C91A7
:10037000322F20E0F801A281B38113960C9110E096
:10038000200F311F8901DA010895AD01F801A28122
:10039000B38114962C91322F20E0F801A281B38111
:1003A00015960C9110E0200F311F8901DA01089594
:1003B000202F212B19F40AE010E00895013020E0ED
:1003C000120719F404E110E00895093020E0120743
:1003D00041F4E5EAF0E0008105FB00E010E000F9FF
:1003E000089500E010E00895093040E0140741F45A
:1003F000022F0170E5EAF0E000FB008105F90083BF
:1004000008950E949E05D80166245524442480E066
:1004100090E08D01A7DF48018D01B7DF5801FD0194
:1004200002811381F8010181013041F0FD01028157
:100430001381F8010181023009F087C0FD010281BA
:100440001381F8012081FD0104811581F8012083C9
:10045000FD0102811381F8012181FD0104811581D3
:10046000F801218348E050E085010E948A05452B70
:1004700059F443E085010E948405202FFD01048189
:100480001581F80122830BC043E085010E94840599
:10049000202F2395FD0104811581F801228303E0BB
:1004A000402E66242BC077248401060D171D80DFA3
:1004B000C801892B89F0452D01E010E00E947E05DE
:1004C000402FFD0104811581242D30E0020F131F00
:1004D000F8010081042B00835394052D502E083021
:1004E00060F05524439440E0FD0104811581242DE2
:1004F00030E0020F131FF8014083639477246A14DD
:100500007B0488F2552009F04394242D30E0FD014E
:1005100004811581EFDEC80140E051E08C010E94AA
:100520008A05FD01048115815524040D151DF8016E
:1005300040834394892FFD01048115815524040DC6
:10054000151DF80180834394C3C1FD01028113810D
:10055000F8010181033041F0FD0102811381F801AE
:100560000181043009F069C003E0402EFD010281E1
:100570001381F8012081FD0104811581F801208398
:10058000FD0102811381F8012181FD0104811581A2
:10059000F8012183FD0102811381F801158102E038
:1005A000109FFD0104811581F8010282662421C09B
:1005B00077248401060D171DFBDEC8018C01012F75
:1005C000202FFD01048115815524040D151DF8010E
:1005D0002083439440E051E08C010E948A05FD0194
:1005E000048115815524040D151DF80140834394A1
:1005F000639477246A147B04D8F2242D30E0FD0143
:100600000481158177DEC80140E051E08C010E9431
:100610008A05FD01048115815524040D151DF8017D
:1006200040834394892FFD01048115815524040DD5
:10063000151DF801808343944BC1FD010281138194
:10064000F8010181053041F0FD0102811381F801BB
:100650000181063009F093C004E0402EFD010281C3
:1006600013815524040D151DF8018081982F80E019
:100670004394FD01028113815524040D151DF801D9
:10068000008110E0800F911F43949C018401ACDE37
:100690004424FD0102811381F8012081FD010481C0
:1006A00015815524040D151DF80120834394FD0187
:1006B00002811381F8012181FD01048115815524F6
:1006C000040D151DF80120834394FD01028113815F
:1006D000F8012281FD01048115815524040D151DA9
:1006E000F80120834394FD0102811381F8012381E5
:1006F000FD01048115815524040D151DF801208389
:100700004394FD0102811381F8012481FD010481DC
:1007100015815524040D151DF80120834394FD0116
:1007200002811381F8012581FD0104811581552481
:10073000040D151DF8012083439426E030E0FD01EF
:1007400004811581D7DDC80140E051E08C010E9491
:100750008A05FD01048115815524040D151DF8013C
:1007600040834394892FFD01048115815524040D94
:10077000151DF80180834394FD014182A9C0FD014C
:1007800002811381F80101810F3041F0FD010281E6
:100790001381F8010181003109F09AC004E0402E74
:1007A00066241EC0FD01028113815524040D151D10
:1007B000F8018081982F80E04394FD01028113812C
:1007C0005524040D151DF801008110E0800F911FC4
:1007D00043949C0177248401060D171D05DE639464
:1007E00077246A147B04F0F24424FD010281138112
:1007F000F8012081FD01048115815524040D151D8A
:10080000F80120834394FD0102811381F8012181C5
:10081000FD01048115815524040D151DF801208367
:100820004394FD0102811381F8012281FD010481BD
:1008300015815524040D151DF80120834394FD01F5
:1008400002811381F8012381FD0104811581552462
:10085000040D151DF80120834394FD0102811381CD
:10086000F8012481FD01048115815524040D151D15
:10087000F80120834394FD0102811381F801258151
:10088000FD01048115815524040D151DF8012083F7
:10089000439426E030E0FD01048115812BDDC80181
:1008A00040E051E08C010E948A05FD010481158120
:1008B0005524040D151DF80140834394892FFD0133
:1008C000048115815524040D151DF801808343947E
:1008D000042DECE00C94AB050E94A605C801A8EB22
:1008E000B0E000E0FD01EA5FFE4F108110FF26C07E
:1008F000FD01E050FF4F0081FC010083FC01A28359
:10090000B383FC01A483B5838C017BDDFC010183EF
:10091000FC010181013048F0FC01418150E0FC0103
:10092000248135818D010E94240500E0FD01E05005
:10093000FF4F008300E0AA5FBE4F0C93E4E00C94ED
:10094000B30501E00BB908EB0AB906E800BD03E303
:1009500009B900E000BD0895BA93AA93FA93EA9307
:100960003A932A931A930A933FB72CB1E8EBF0E03D
:1009700005E0DF01AD5FBE4F0C93DF01A050BF4F1C
:100980000C9110E0DF01A00FB11F2C93DF01A050EC
:10099000BF4F0C9103950C93DF01A050BF4F0C91FA
:1009A0000F3F29F4EA5FFE4F0081016000833FBFE3
:1009B0000991199129913991E991F991A991B991E7
:1009C0001895BA93AA93FA93EA932A931A930A93DF
:1009D0002FB7E8EBF0E0DF01AF5FBE4F0C91DF0116
:1009E000AE5FBE4F1C91011780F4DF01AF5FBE4FB9
:1009F0000C9110E0DF01A00FB11F0C910CB9EF5F5B
:100A0000FE4F00810395008302C05598569A2FBF70
:100A1000099119912991E991F991A991B9911895A3
:100A2000FA93EA931A930A931FB7E8EBF0E0EA5FB0
:100A3000FE4F00810B7F0083929856981FBF09914B
:100A40001991E991F99118950E94A605D801CA015A
:100A5000FD01EA5FFE4F008102FD19C0FD01EA5F62
:100A6000FE4F008104600083929A00E0FD01EF5F79
:100A7000FE4F008300E0FD01EE5FFE4F0083AC01FE
:100A80008D010E94BE05AE5FBE4F8C93559AE4E087
:100A90000C94B305F801ED5FFE4F20812130C0F0CA
:100AA000F801ED5FFE4F20812A952083F801ED5F6C
:100AB000FE4F2081222361F4F801E050FF4F208196
:100AC000213030F00A5F1E4FF80100810160008381
:100AD000089500008895FECF0FE90DBF00E00EBF1E
:100AE000C0E8D0E00E94BC05002311F00E94DA05A6
:100AF0000E9451010E9469050C9469054A951AF0FB
:100B0000000F111FFBCF08954A951AF0169507950F
:100B1000FBCF089500241124EFE0001F111F001CDB
:100B2000111C0416150610F0041A150AEA95AAF706
:100B3000001F111FA001009510950895BA92AA9266
:100B40009A928A927A926A925A924A92BA93AA9303
:100B50009A938A930895BB84AA84998488847F8019
:100B60006E805D804C80BB81AA8199818881F0E094
:100B7000EC0FFD1FEF01089501E008950D01D8016C
:100B800004C0F90161919F016D93BA014150504039
:100B9000672BB9F7D001089520E006D0E9F7089552
:100BA000259102D0E9F708952D9301501040202F90
:100BB000212B089588EE9BE0FC0105911491FC0126
:100BC0003296A591B491FC01349625913491422F2F
:100BD000432B19F0F901E4DF01C0DEDF06961BE0CC
:0E0BE0008E3E910748F308951F01A00000000B
:0400000300000000F9
:00000001FF
