:020000020000FC
:100000000C94DF0A18951895189518951895189559
:100010001895189518951895189518951895189578
:100020001895189518951895189518951895189568
:1000300018951895189518950C940E0A18951895FA
:100040000C94FC09189518950C9497000C94F200E8
:100050000C942701189518951895189518951895CA
:100060001895189518951895189518951895189528
:1000700018951895189518950C945C010C94B80176
:100080000C94FA011895189518951895000001CC54
:1000900001D8001401F0003C002801E401A0006C2C
:1000A000007801B40050019C018800441A9808951A
:1000B0001A9A089591980895919A089501E00093ED
:1000C0009B0008EB00939A0006E800939D0007E66A
:1000D0000093990000E000939800089501E00BB9A7
:1000E00008EB0AB906E80093950007E609B900E0B5
:1000F00000939000089506E510E0009352021093DB
:10010000530208E510E00093540210935502D0DF2B
:1001100008950AE510E000936003109361030CE575
:1001200010E00093620310936303C6DF0895BA934F
:10013000AA93FA93EA935A934A933A932A931A9377
:100140000A934FB75BB7E2E5F2E02CB108EE13E09B
:10015000DF01A75FBE4F0D931C93DF01A35FBE4F6E
:100160000C9102FD32C005E0DF01A95FBE4F0C9388
:10017000DF01AA5FBE4F0C910F3F38F5DF01AA5F88
:10018000BE4F0C9110E0DF01A00FB11F14962C930D
:10019000DF01AA5FBE4F0C9103950C93DF01AA5FAC
:1001A000BE4F0C91083031F4DF01A35FBE4F0C91BC
:1001B00001600C93DF01AA5FBE4F0C910F3F29F441
:1001C000E35FFE4F0081046000835BBF4FBF099176
:1001D00019912991399149915991E991F991A991EF
:1001E000B9911895BA93AA93FA93EA933A932A93FA
:1001F0001A930A932FB73BB7E2E5F2E0DF01AC5F59
:10020000BE4F0C91DF01AB5FBE4F1C91011790F404
:100210005E98DF01AC5FBE4F0C9110E0DF01A00FD4
:10022000B11F14960C910CB9EC5FFE4F0081039541
:10023000008302C05598569A3BBF2FBF0991199170
:1002400029913991E991F991A991B9911895BA93A8
:10025000AA939A938A93FA93EA933A922A921A92D9
:100260000A927A936A935A934A933A932A931A93E7
:100270000A938FB79BB7E2E5F2E0DF01A35FBE4FC1
:100280000C910F7E0C9302811381EDD056989BBF89
:100290008FBF09911991299139914991599169918A
:1002A00079910990199029903990E991F991899162
:1002B0009991A991B9911895BA93AA93FA93EA934F
:1002C0005A934A933A932A931A930A934FB75BB778
:1002D000E0E6F3E020919C0008EE13E0DF01A75F69
:1002E000BE4F0D931C93DF01A35FBE4F0C9102FD27
:1002F00032C005E0DF01A95FBE4F0C93DF01AA5FAA
:10030000BE4F0C910F3F38F5DF01AA5FBE4F0C9135
:1003100010E0DF01A00FB11F14962C93DF01AA5F3C
:10032000BE4F0C9103950C93DF01AA5FBE4F0C9159
:10033000083031F4DF01A35FBE4F0C9101600C93D4
:10034000DF01AA5FBE4F0C910F3F29F4E35FFE4F20
:100350000081046000835BBF4FBF0991199129910F
:10036000399149915991E991F991A991B9911895CA
:10037000BA93AA93FA93EA933A932A931A930A9315
:100380002FB73BB7E0E6F3E0DF01AC5FBE4F0C9167
:10039000DF01AB5FBE4F1C910117B8F400919B00C9
:1003A0000F7B00939B00DF01AC5FBE4F0C9110E010
:1003B000DF01A00FB11F14960C9100939C00EC5F1D
:1003C000FE4F0081039500830AC000919A000F7DC3
:1003D00000939A0000919A00006400939A003BBF3A
:1003E0002FBF0991199129913991E991F991A99119
:1003F000B9911895BA93AA939A938A93FA93EA9328
:100400003A922A921A920A927A936A935A934A9348
:100410003A932A931A930A938FB79BB7E0E6F3E0D7
:10042000DF01A35FBE4F0C910F7E0C9302811381FD
:100430001AD000919A000F7B00939A009BBF8FBF48
:10044000099119912991399149915991699179911C
:100450000990199029903990E991F9918991999190
:10046000A991B991189520E030E00217130711F017
:10047000F801099508950E94250BD8012901CA01A8
:10048000FD01E35FFE4F008104FD3BC0FD01E35F22
:10049000FE4F0081006100830D911C911197E3DFF5
:1004A00000E0FD01EB5FFE4F008300E0FD01EC5F2B
:1004B000FE4F0083FD01EB5FFE4F008110E0080F4F
:1004C000191F013021E0120748F080E091E0FD01A2
:1004D000EB5FFE4F008110E0801B910BAC0192019D
:1004E000FD01EB5FFE4F608170E08D01060F171F6D
:1004F0000C5F1F4FD5D0AB5FBE4F8C935E98559A63
:1005000026C0FD01EB5FFE4F008110E0080F191FB0
:10051000013021E0120748F080E091E0FD01EB5F3F
:10052000FE4F008110E0801B910BAC019201FD0198
:10053000EB5FFE4F608170E08D01060F171F0C5FAF
:100540001F4FAED0AB5FBE4F0C91080F0C93E6E08F
:100550000C94320B0E94250BD8012901CA01FD0120
:10056000E35FFE4F008104FD43C0FD01E35FFE4FEA
:100570000081006100830D911C91119774DF00E0F0
:10058000FD01EB5FFE4F008300E0FD01EC5FFE4FDD
:100590000083FD01EB5FFE4F008110E0080F191F83
:1005A000013021E0120748F080E091E0FD01EB5FAF
:1005B000FE4F008110E0801B910BAC019201FD0108
:1005C000EB5FFE4F608170E08D01060F171F0C5F1F
:1005D0001F4F66D0AB5FBE4F8C9300919B000F7B8B
:1005E00000939B0000919A00006200939A0026C03D
:1005F000FD01EB5FFE4F008110E0080F191F013075
:1006000021E0120748F080E091E0FD01EB5FFE4F32
:10061000008110E0801B910BAC019201FD01EB5FAA
:10062000FE4F608170E08D01060F171F0C5F1F4F9A
:1006300037D0AB5FBE4F0C91080F0C93E6E00C94E3
:10064000320BF801E95FFE4F20812130C0F0F80144
:10065000E95FFE4F20812A952083F801E95FFE4F74
:100660002081222361F4F801EA5FFE4F20812130CE
:1006700030F0F801E35FFE4F208124602083F80111
:10068000E75FFE4F20813181232B49F0075F1E4F2A
:10069000F8010081118101501040008311830895F9
:1006A0007B2F0A2ED801F901232B61F0012B39F49D
:1006B00009C000810C933196119641505040042F8F
:1006C000052BB9F7A02DB72F08950E94210BD80153
:1006D0001F96ED91FC915097008110E0209140020F
:1006E000309141020217130749F01F96ED91FC91DA
:1006F00050970081013011F001E181C11F96ED9109
:10070000FC9150970181003181F01F96ED91FC9191
:1007100050970181063049F01F96ED91FC9150975A
:100720000181033011F002E16AC1FD0183859485E6
:1007300002979C01FD01078510890E94F605FD01C5
:1007400027853089FD0143855485240F351F2150AD
:100750003040F9014081542F40E0FD012785308968
:10076000FD0163857485260F371F22503040F90143
:10077000208130E0420F531F0417150711F003E1E9
:100780003EC11F96ED91FC9150970181003139F0E7
:100790001F96ED91FC9150970181063039F5FD01CE
:1007A00003851485083020E01207B1F1FD0123858F
:1007B0003485FD0107851089F801868190E009964E
:1007C0002817390789F41F96ED91FC9150972681DF
:1007D00030E0FD0107851089F801058110E0000F68
:1007E000111F20173107C1F009E109C1FD0103857F
:1007F0001485083020E0120779F0FD012385348547
:10080000FD0107851089F801828190E0059628177F
:10081000390711F008E1F3C0FD01038514850830A4
:1008200020E0120799F51F96ED91FC9150970181F8
:10083000003139F01F96ED91FC91509701810630FF
:1008400011F400E0DCC01F96ED91FC9150970281FD
:10085000102F00E0FD0127853089F901238130E068
:10086000020F131FFD0127853089F901258130E032
:10087000ED91FC9111970995002309F0C0C08D01FD
:10088000C1D0FD010587168700E0B9C01F96ED9124
:10089000FC9150970181003141F01F96ED91FC9140
:1008A00050970181063009F053C01F96ED91FC91DD
:1008B00050978281982F80E0FD0107851089F8010B
:1008C000038110E0800F911FFD0107851089F80159
:1008D0004480542C4424FD0107851089F8010581CA
:1008E00010E0400E511E07E0602E7724882425C0BA
:1008F000FD0101891289060D171DF8012081322F93
:1009000020E001E0600E00E0701EFD010189128907
:10091000060D171DF801008110E0200F311F01E0C6
:10092000600E00E0701E99248C01080D191DFD0158
:1009300044815581FA01099583949924841495047E
:10094000B8F28D015FD0FD010587168700E057C022
:100950001F96ED91FC9150970081FD0116810117C2
:1009600011F00CE14CC01F96ED91FC915097228143
:1009700030E0FD01008510E0000F111F2017310746
:1009800011F00EE13CC003E0802E9924FD01818529
:100990009285FD0107851089F801028142E00E94DD
:1009A000F10A402E5524662425C0FD0107851089D3
:1009B000080D191DF8012081322F20E001E0800E82
:1009C00000E0901EFD0107851089080D191DF80132
:1009D000008110E0200F311F01E0800E00E0901E2A
:1009E00077248C01060D171DFD0144815581FA0104
:1009F00009956394772464147504B8F200E0EAE082
:100A00000C942E0B0E941F0BD8011F96ED91FC91A8
:100A100050970181003109F057C01F96ED91FC916C
:100A200050972081FD0101891289F80120831F96CA
:100A3000ED91FC9150972181FD0101891289F80106
:100A400021831F96ED91FC9150972281FD01018930
:100A50001289F80122831F96ED91FC915097238112
:100A6000FD0101891289F80123831F96ED91FC9104
:100A700050972481FD0101891289F80124831F9672
:100A8000ED91FC9150972581FD0101891289F801B2
:100A9000258326E030E0FD01018912890E94F605D8
:100AA000C80140E051E08C010E940B0BFD0101895F
:100AB0001289F8014683892FFD01A189B289179611
:100AC0008C9308E010E08FC01F96ED91FC91509739
:100AD0000181033009F085C01F96ED91FC9150977C
:100AE0006280762C6624FD0107851089F801038158
:100AF00010E0600E711EFD0107851089F801A580C8
:100B0000BB24FD0107851089F8012081FD010189C1
:100B10001289F8012083FD0107851089F8012181E0
:100B2000FD0101891289F8012183FD0107851089E2
:100B3000F801158102E0109FFD0101891289F80179
:100B4000028203E0402E882425C099248301080DE9
:100B5000191DFD0122813381F9010995C8018C011C
:100B6000012F202FFD01018912895524040D151D27
:100B7000F8012083439440E051E08C010E940B0B6C
:100B8000FD01018912895524040D151DF8014083CA
:100B90004394839499248A149B04B8F2242D30E062
:100BA000FD01018912890E94F605C80140E051E06B
:100BB0008C010E940B0BFD01018912895524040D43
:100BC000151DF80140834394892FFD010189128985
:100BD0005524040D151DF80180834394042D10E065
:100BE00002C00AEF10E0ECE00C942C0B7B2F0A2ED5
:100BF000D8010FEF1FEF29C0602F4C91642744E00C
:100C00000E94050B462F50E04F705070440F551F47
:100C1000FA01E457FF4F4591549104271527602F9F
:100C20004C9142954F70642744E00E94050B462F7B
:100C300050E04F705070440F551FFA01E457FF4FBA
:100C400045915491042715271196A9019A01215025
:100C50003040452B89F6A02DB72F0895F801248147
:100C600020FF02C01F9A01C01F98F801248121FFB4
:100C700002C0C09A01C0C098F801248122FF02C0BE
:100C8000C29A01C0C298F801248123FF02C0C39A0E
:100C900001C0C398F801048104FF02C0C49A0895FA
:100CA000C4980895F801228120FF02C0DC9A01C097
:100CB000DC98F801228121FF02C0DB9A01C0DB9899
:100CC000F801228122FF02C0AF9A01C0AF98F8015B
:100CD000228123FF06C020916500246020936500D7
:100CE00005C0209165002B7F20936500F8012281CB
:100CF00024FF02C0DF9A01C0DF98F801228125FF9E
:100D000002C0DD9A01C0DD98F801228126FF02C0F1
:100D1000DE9A01C0DE98F801028107FF02C01D9A29
:100D200008951D980895F801238120FF02C0AA9A12
:100D300001C0AA98F801238121FF02C0AB9A01C02B
:100D4000AB98F801238122FF02C0AC9A01C0AC9895
:100D5000F801238123FF02C0AD9A01C0AD98F801CC
:100D6000238124FF02C0AE9A01C0AE98F80123810E
:100D700025FF02C0A99A01C0A998F801238126FF86
:100D800002C0A89A01C0A898F801038107FF02C019
:100D90001E9A08951E980895D89A009165000260E1
:100DA00000936500D99A0091650001600093650089
:100DB000DA9A979A00916E04002341F4DA98979892
:100DC00000916E04039500936E04089500916E04E3
:100DD000013061F4D998009165000E7F00936500A1
:100DE00000916E04039500936E04089500916E04C3
:100DF000023049F4D898009165000D7F009365009A
:100E000000E000936E0408959A938A93C801082F16
:100E1000092B29F144E650E08C010E940B0BF801EC
:100E2000EE5BFD4F00810093AE044AE050E08C0180
:100E30000E940B0B4AE050E00E940B0BFA01EE5BA4
:100E4000FD4F00810093AE044AE050E08C010E9407
:100E50000B0BFA01EE5BFD4F00810093AE0489910C
:100E60009991089544E650E00417150710F005E144
:100E70000895020F131F0417150710F006E10895D7
:100E8000293700E0300710F007E1089500E00895E9
:100E9000012B19F40AE010E0089500E010E0089535
:100EA000089522E337E0F8012083318328E437E016
:100EB000F8012283338320E537E0F801248335836A
:100EC0000895012B19F40AE010E0089500E010E005
:100ED0000895089522E337E0F8012083318321E665
:100EE00037E0F8012283338329E637E0F8012483D1
:100EF00035830895F901EA5FFE4F408150E0F80123
:100F000043875487A9014C5F5F4FF8014787508B97
:100F10002C5F3F4FF801218B328B20E030E0F8014D
:100F2000258736870895BA93AA93F801D9010585D4
:100F30001685012B39F045855685218932898D0129
:100F40000E943B0200E0FD01E35FFE4F008300E0F2
:100F5000AA5FBE4F0C93A991B9910895BA93AA9331
:100F6000F801D90105851685012B39F0458556858F
:100F7000218932898D010E94AA0200E0FD01E35F10
:100F8000FE4F008300E0AA5FBE4F0C93A991B99178
:100F900008950FE614E085DF22E532E00FE614E065
:100FA000A9DF089502E814E095DF20E633E002E8C7
:100FB00014E0A0DF0895BA93AA93A2E5B2E0FD0180
:100FC000E35FFE4F008102FF18C09D010FE614E0B1
:100FD00091DF0FE614E00E946503009395049D01E4
:100FE0000FE614E0A0DFFD01E35FFE4F00810B7F01
:100FF000008300E0AA5FBE4F0C93A991B9910895B8
:10100000BA93AA93A0E6B3E0FD01E35FFE4F00812F
:1010100002FF18C09D0102E814E06CDF02E814E052
:101020000E946503009395049D0102E814E096DF99
:10103000FD01E35FFE4F00810B7F008300E0AA5FAC
:10104000BE4F0C93A991B991089500E010E0019B67
:1010500001600B9B0260B69B0460849B0860039B4D
:101060000061009B006220916300322F34FF006416
:10107000869B0068B59B116008959A938A93B80186
:1010800020E010C0422F01E010E00E94FF0A00950E
:101090001095E8E9F4E040815181402351234083D9
:1010A00051832395293008F065C0422F01E010E0FC
:1010B0000E94FF0A0B01002211222090960430901A
:1010C0009704422F01E010E00E94FF0A2022312203
:1010D000022413240128D9F0422F01E010E00E94DD
:1010E000FF0A00951095E8E9F4E040815181402322
:1010F00051234083518300E010E0422F50E0440F21
:10110000551FFA01E656FB4F00831183CACF022F09
:1011100010E0000F111FF801E656FB4F008111810E
:101120000F5F1F4F00831183022F10E0000F111F6C
:10113000F801E656FB4F808191818431904008F49C
:10114000B0CF422F01E010E00E94FF0AAB01402324
:101150005123452B09F496CF422F01E010E00E9465
:10116000FF0AE8E9F4E040815181402B512B408394
:10117000518397CF609396047093970400919804DD
:10118000109199040093B1041093B204899199913C
:101190000895F801258120FF12C0F801278120FD64
:1011A0000EC0F80127812160278321E030E0F8019B
:1011B00041855285422753274187528708C0F8014D
:1011C000258120FD04C0F80127812E7F2783F801A7
:1011D000218520FF05C0F801048101600483089582
:1011E000F80104810E7F04830895F801258121FF11
:1011F00012C0F801278121FD0EC0F801278122606D
:10120000278322E030E0F8014185528542275327A9
:101210004187528708C0F801258121FD04C0F801EB
:1012200027812D7F2783F801218521FF05C0F80143
:101230000481026004830895F80104810D7F048312
:101240000895F801258122FF17C0F801278122FDAA
:1012500013C0F80127812460278324E030E0F801DF
:10126000418552854227532741875287ECEAF4E0B3
:1012700024812160248308C0F801258122FD04C057
:10128000F80127812B7F2783F801218522FF05C0E4
:10129000F8010481006104830895F80104810F7E40
:1012A000048308959A938A93C8018C0172DF8C019C
:1012B0009CDF8C01C6DF8991999108958E98969A4A
:1012C00000916100077F0093610000916200086057
:1012D00000936200009161000E7F00936100009115
:1012E0006200016000936200009161000D7F009335
:1012F00061000091620002600093620013981B9AE3
:10130000BD98C59ABE98C69A8C98949A009164002C
:101310000F7E0093640000916500006100936500FA
:10132000179A1F98B89AC098BA9AC298BB9AC3984D
:10133000BC9AC49800916100046000936100009120
:101340006200046000936200149A1C9ABF9AC79AC4
:101350008D9A959AD09AD89AD19AD99AD29ADA9A9D
:10136000D49ADC98D39ADB98A79AAF98009164003E
:10137000046000936400009165000B7F009365009A
:10138000D79ADF98D59ADD98D69ADE98159A1D9847
:1013900000916400026000936400009165000260A7
:1013A0000093650000916400016000936400009167
:1013B00065000160009365008F9A979AA29AAA9897
:1013C000A39AAB98A49AAC98A59AAD98A69AAE9811
:1013D000A19AA998A09AA898169A1E98899A919865
:1013E000129A1A98089503E003BF07B7016007BF78
:1013F00003E802BF789408952A931A930A931FB7BB
:101400002BB703E802BF0091B70403950093B7041C
:101410002BBF1FBF09911991299118952A931A93EF
:101420000A931FB72BB700EE0DBD0FEB0CBD2BBF02
:101430001FBF0991199129911895BA93AA93D801C0
:101440000091B704023008F461C000E00093B704D3
:10145000E8EBF4E0008111810F5F1F4F00831183DF
:101460000C9101600C9345E050E00091B80410919C
:10147000B9040E940B0B452B19F40C9102600C93DC
:101480004AE050E00091B8041091B9040E940B0B9F
:10149000452B19F40C9104600C9344E150E0009149
:1014A000B8041091B9040E940B0B452B19F40C9150
:1014B00008600C9344E650E00091B8041091B90420
:1014C0000E940B0B452B19F40C9100620C9348EE13
:1014D00053E00091B8041091B9040E940B0B452B06
:1014E00041F40C9100640C9301E0FD01118110277F
:1014F000118348E853E10091B8041091B9040E94A7
:101500000B0B452B19F40C9100680C93A991B99120
:101510000895D4DE68DF0E945E000E946E000E9483
:101520007B000E9489000E94C9070E94D20778941C
:101530000CEA14E082DF0E94DB070E940008ECEA5C
:10154000F4E0008100FF14C002E512E00E942103D4
:1015500000E613E00E9421030E9425080E943D0836
:101560000CEA14E00E9452090CEA14E00E94CC0636
:101570000091BA0410E00E940407ECEAF4E0008154
:1015800001FF0CC00CEA14E00E942E060CEA14E0E5
:101590000E9493060CEA14E00E945206ECEAF4E082
:1015A000008106FF05C00091BA0403950093BA04B8
:1015B00000E00093AC04BCCF00008895FECF0FE3A1
:1015C0000DBF02E00EBFC0E0D2E00E943D0B002341
:1015D00011F00E944F0B0E94890A0E94DC0A0C94B1
:1015E000DC0A0024E8E0EA9532F0001F001C041633
:1015F000D0F3041AF8CF001F402D009508954A95A6
:101600001AF0000F111FFBCF08954A951AF0169596
:101610000795FBCF089500241124EFE0001F111F50
:10162000001C111C0416150610F0041A150AEA9580
:10163000AAF7001F111FA001009510950895BA92F6
:10164000AA929A928A927A926A925A924A92BA93F9
:10165000AA939A938A930895BB84AA8499848884D0
:101660007F806E805D804C80BB81AA81998188815A
:10167000F0E0EC0FFD1FEF01089501E0089520E078
:1016800008D0E9F708953BBF27913BB702D0D9F7BF
:1016900008952D9301501040202F212B08950EEF17
:1016A000402E06E1502E00E0602EF201362D6BBE7A
:1016B00007911691F201EE5FFF4F3F4F3BBFA7919D
:1016C000B691F201362DEC5FFF4F3F4F3BBF479184
:1016D00057916691242F252B262B21F0FA01362FC6
:1016E000D2DF01C0CCDF07E0400E00E0501E601EDC
:1016F000A201662D4C3057416040B8F2089569024E
:101700005202000000120040020C170033003F0696
:0E1710005B4F666D7D077F6F777C395E797168
:0400000300000000F9
:00000001FF
